S02B00002F686F6D652F62726973746F70686572776F6F64732F4465736B746F702F435446732F4D4954524527
S315100100000000022001110110850F01103F1101108E
S31510010010411101104311011045110110000000009A
S315100100200000000000000000000000004711011050
S3151001003049110110000000004B1101104D11011062
S3151001004051110110531101105511011057110110C1
S31510010050591101105B1101105D1101105F11011091
S315100100606111011063110110651101106711011061
S31510010070691101106B1101106D1101106F11011031
S315100100807111011073110110751101107711011001
S31510010090791101107B1101107D1101107F110110D1
S315100100A01D0F0110250F0110851101108711011067
S315100100B0891101108B1101108D1101108F11011071
S315100100C09111011093110110951101109711011041
S315100100D0991101109B1101109D1101109F11011011
S315100100E0A1110110A3110110A5110110A7110110E1
S315100100F0A9110110AB110110AD110110AF110110B1
S31510010100B1110110B3110110B5110110B711011080
S31510010110B9110110BB110110BD110110BF11011050
S31510010120C1110110C3110110C5110110C711011020
S31510010130C9110110CB110110CD110110CF110110F0
S31510010140D1110110D3110110D5110110D7110110C0
S31510010150D9110110DB110110DD110110DF11011090
S31510010160E1110110E3110110E5110110E711011060
S31510010170E9110110EB110110ED110110EF11011030
S31510010180F1110110F3110110F5110110F711011000
S31510010190F9110110FB110110FD110110FF110110D0
S315100101A0011201100312011005120110071201109C
S315100101B0091201100B1201100D1201100F1201106C
S315100101C0111201101312011015120110171201103C
S315100101D0191201101B1201101D1201101F1201100C
S315100101E000000000000000000000000000000000F8
S315100101F000000000000000000000000000000000E8
S3151001020000488047011101100348044B834202D074
S31510010210034B03B118477047CC0B0020CC0B0020C1
S31510010220000000000548064B1B1AD90F01EBA3016C
S31510010230491002D0034B03B118477047CC0B00206D
S31510010240CC0B00200000000010B5064C237843B9F2
S31510010250FFF7DAFF044B13B10448AFF30080012313
S31510010260237010BD000C002000000000907B0210CE
S3151001027008B5054B1BB105490548AFF30080BDE82C
S315100102800840FFF7CFBF00BF00000000040C00209C
S31510010290907B02102DE9F043294A2A4E2A4F2B4D05
S315100102A02B4C4FF0040C00EB060E87FB0E384FEA71
S315100102B0EE73C3EBE85302FB13E34FF0040803EBB1
S315100102C0430E03EB8E032B444FEA932EA4FB0E9E93
S315100102D04FEA5E1EB8F1010802FB1E33EFD1CB1AAD
S315100102E0990AA4FB01E1490902FB113101EB060E42
S315100102F04FEA9E23A4FB03835B0902FB13E34FF032
S31510010300040803EB430E03EB8E032B444FEA932EA3
S31510010310A4FB0E9E4FEA5E1EB8F1010802FB1E33C6
S31510010320EFD1C31A980AA4FB00E04009BCF1010CF5
S3151001033002FB1030B7D107480844C0B2BDE8F083BC
S3151001034000A49A0378563412BFF48323C7AB255100
S31510010350F5832300A7A39A0310B562B6184C00F0D3
S31510010360C3FC88221748214600F0D8FC164B226898
S315100103709A421AD0154805F013F8154805F070F889
S31510010380144805F00DF8144B1B68986805F05EF9D2
S3151001039009A1D1E900014FF01133C4E90001882206
S315100103A00848A360214600F0BBFCBDE8104000F0F0
S315100103B00FBC00BFAFF30080EFBEADDE0100000041
S315100103C0200C002000E00710EFBEADDE6005021024
S315100103D06C05021088050210900500202DE9F047E2
S315100103E0DFF8C0A0304EDAF80430ADF5007DDBB190
S315100103F0DFF8B890DFF8B8802E4F0AF10405002413
S31510010400484604F0CDFF55F8041F404604F0C8FFD6
S31510010410384604F0C5FF3368986805F017F9DAF81D
S3151001042004300134A342EBD8204DDFF88C80214FE4
S315100104300824362C08BF3724012140AA20468DF8FE
S31510010440001100F0C9FB034601336946204612D05C
S3151001045000F0DCFB0346002B28460CDD04F0A0FF60
S315100104600099404604F09CFF384604F099FF336822
S31510010470986805F0EBF80134E4B27F2CD9D10F4816
S3151001048004F08EFF0E4804F0EBFF0A4804F088FFD3
S315100104903368986805F0DAF800200DF5007DBDE89F
S315100104A0F08700BF200C0020900500208C0502105B
S315100104B09805021088050210A4050210B005021055
S315100104C0BC0502102DE9F041244F7B68ADF5007D86
S315100104D0002B37D03D1D00264FF0020803E07B6844
S315100104E00136B3422ED955F8040F00F073FB0121E2
S315100104F040AA04468DF8008100F06EFB03460133D5
S315100105006946204623D000F081FB01301FD0009AA6
S315100105102B689A42E3D00236114804F041FF114884
S3151001052057F8261004F03CFF0F4804F039FF0F4B23
S315100105301B68986805F08AF84FF0FF300DF5007DBD
S31510010540BDE8F08100200DF5007DBDE8F08104487D
S3151001055004F026FF064804F083FFE5E7200C00208F
S31510010560C4050210F005021088050210900500203E
S31510010570D00502102DE9F04F294F7B68ADF5017DAD
S31510010580A3B3DFF8A080DFF8A090DFF8A0B0DFF802
S31510010590A0A03E1D002556F8040F00F01BFB0323F7
S315100105A0012140AA04468DF8003100F015FB0346DF
S315100105B001336946204605F101051CD000F026FBE2
S315100105C003460133484616D004F0EAFE31686A46FE
S315100105D0584604F0E5FE504604F0E2FED8F8003025
S315100105E0986805F033F87B68AB42D4D800200DF536
S315100105F0017DBDE8F08F0F4804F0D2FE0E4804F0DD
S315100106002FFF0B4804F0CCFED8F80030986805F09F
S315100106101DF84FF0FF300DF5017DBDE8F08F00BFDD
S31510010620200C0020900500208C05021010060210E7
S3151001063088050210C40502101C06021030B5ADF56E
S31510010640017D044600F0C6FA042340AA012105469D
S315100106508DF8003100F0C0FA013025D069462846E0
S3151001066000F0D4FA01301FD0184804F099FE214643
S315100106701748184C04F094FE174804F091FE2368AD
S31510010680986804F0E3FF114804F08AFE684604F006
S31510010690E7FE114804F084FE2368986804F0D6FF3B
S315100106A000200DF5017D30BD0C4804F079FE0C4893
S315100106B004F0D6FE084804F073FE064B1B689868D2
S315100106C004F0C4FF4FF0FF30EBE700BF8C050210BA
S315100106D0380602109005002088050210C405021084
S315100106E04406021008B5134C002000F0D5FC204634
S315100106F000F0C8FE012000F0CFFC204600F0C2FE3B
S31510010700022000F0C9FC204600F0BCFE002000F0DB
S31510010710CFFC204600F0B6FE012000F0C9FC2046B1
S3151001072000F0B0FE022000F0C3FC204600F0AAFE45
S31510010730DAE700BF20A107002DE9F0412E482F4D21
S315100107408AB004F02DFE2E4804F08AFE2D4804F0DE
S3151001075027FE2B68986804F079FFFFF70BFF78B135
S31510010760294804F01DFE294804F07AFE254804F0B4
S3151001077017FE2B6898680AB0BDE8F04104F066BF11
S315100107800446DFF88C80234F23486E4658F8041B25
S31510010790FFF780FD307057F8040F06F8014F002857
S315100107A0F4D1154804F0FCFD684604F059FE1548CD
S315100107B004F0F6FD2B68986804F048FF174804F01A
S315100107C0EFFD1749174804F0EBFD0E4804F0E8FD5C
S315100107D02B68986804F03AFF134804F0E1FD1348BA
S315100107E004F03EFE074804F0DBFD2B68986804F020
S315100107F02DFFFFF777FF00BF60050210900500205F
S315100108006006021088050210C40502107C0602104B
S315100108107008021004090210B6E4FF018C050210DB
S315100108209C060210B8060210B0050210C00602108E
S3151001083010B58EB032221A4801A900F00BFA194BE5
S31510010840019A9A4212D0184804F0AAFD174804F0EA
S3151001085007FE174804F0A4FD164B1B6898684FF065
S31510010860FF3404F0F3FE20460EB010BDBDF808208B
S3151001087043F235639A42E6D19DF80A40002CE2D143
S315100108800D4804F08DFD0D4804F0EAFD084804F00A
S3151001089087FD084B1B68986804F0D8FEE3E700BF94
S315100108A0C806021031323334C4050210EC060210A8
S315100108B0880502109005002060050210DC06021062
S315100108C010B58EB032221D4801A900F0C3F91C4B98
S315100108D0019A9A4212D01B4804F062FD1A4804F09C
S315100108E0BFFD1A4804F05CFD194B1B6898684FF060
S315100108F0FF3404F0ABFE20460EB010BD029A03F190
S3151001090004339A42E7D1039AA3F1D433283B9A428E
S31510010910E1D1104B049A9A42DDD10F4804F040FD03
S315100109200E4804F09DFD094804F03AFD084B1B687A
S315100109309868002404F08AFEDDE700BFFC06021069
S3151001094031323334C40502102C0702108805021007
S315100109509005002064656600600502101C070210F0
S3151001096070B590B0FFF7ACFF08B110B070BD04467A
S3151001097032223048304E03A9CDE9014400F06AF91C
S315100109802E4901AA03A802F01BFB2D48322203A906
S3151001099000F060F9294902AA03A802F011FB716857
S315100109A0002935D0029D331D204602E001308842D0
S315100109B02ED053F8042FAA42F8D1831C019A21484C
S315100109C046F8232000F0A8F91B491E481E4C882220
S315100109D000F0A6F91D4804F0E3FCDDE901211C48ED
S315100109E004F0DEFC1B4804F0DBFC2368986804F075
S315100109F02DFE194804F0D4FC184804F031FD1548B1
S31510010A0004F0CEFC2368986804F020FE10B070BD87
S31510010A10134804F0C5FC0299124804F0C1FC0D48B4
S31510010A2004F0BEFC084B1B68986804F00FFE10B06A
S31510010A3070BD00BF60070210200C00207407021061
S31510010A407807021000E007109005002060050210DB
S31510010A508C07021088050210B0050210AC070210AF
S31510010A60C4050210B407021000B58FB0FFF7E0FEFF
S31510010A70D0B90F48322201A900F0ECF80D496A46A7
S31510010A8001A802F09DFA0098FFF7D8FD0A4804F074
S31510010A9087FC0A4804F0E4FC094804F081FC094B80
S31510010AA01B68986804F0D2FD0FB05DF804FB00BF17
S31510010AB0EC07021074070210B0050210FC070210B1
S31510010AC088050210900500202DE9F0479AB0FFF72E
S31510010AD043FC3248DFF8C890324D334C334E344F15
S31510010AE0DFF8D080DFF8D0A004F05AFC334804F0C8
S31510010AF0B7FC334804F054FCD9F80030986804F078
S31510010B00A5FD642201A9284600F0A4F8019BA34281
S31510010B1018D0019BB3421CD0019BBB4223D0019B31
S31510010B20434526D0274804F03BFC274801A904F089
S31510010B3037FC234804F034FCD9F80030986804F0E7
S31510010B4085FDDEE79DF80830002BE2D1FFF746FC64
S31510010B50D7E79DF80830002BDED1FFF7B3FCA8B913
S31510010B60FFF7EAFDCDE7029B5345D8D1FFF7F8FE13
S31510010B70C7E7BDF8082047F273439A42D2D19DF8D0
S31510010B800A30002BCED1FFF76FFFBAE70D4804F0FC
S31510010B9007FC0E4804F064FCCBE700BF8C0502107D
S31510010BA090050020240802106C697374626F6F74CB
S31510010BB07265706C61747465616365000408021076
S31510010BC088050210C4050210540802103C070210D1
S31510010BD000F0B2B8C0B2704770B504460D4616465D
S31510010BE000F02EF900280DDB33462A460021204657
S31510010BF000F074F9002805DB0121204600F004F904
S31510010C00C01770BD4FF0FF3070BD00BF70B5044600
S31510010C100E4602E00BD000F035FC204600F0B0F88D
S31510010C2000284FF03200F5DA4FF0FF3070BD204644
S31510010C3000F0C8F8C5B233462A460321204600F013
S31510010C4035F90028F0DB0121204600F013F928467A
S31510010C5070BD00BFF8B507461248134E0C4615462F
S31510010C6004F09EFB384604F09BFB104804F098FBF9
S31510010C703368986804F0EAFC002004F0E7FC0C489D
S31510010C8004F08EFB3368986804F0E0FC336829465B
S31510010C905A68204604F084FDBDE8F840054804F082
S31510010CA0DFBB00BF60050210900500208805021009
S31510010CB098090210E8070210094A536AD90703D5A1
S31510010CC0516A21F0010151629B0700D47047044A11
S31510010CD00448536A23F00203536204F0C1BB00BFF8
S31510010CE000900240A409021008B50849172000F027
S31510010CF003FC074B4FF400021A604FF4407000F0EA
S31510010D0047FDBDE80840034801F0E8BDB90C0110E4
S31510010D1000E100E000A0024016F02ABF00F036BD47
S31510010D200B4611461A4600F02FBD00BF014800F0D0
S31510010D3093BF00BF00E0014010B50C48002201210D
S31510010D4000F026FF044660B90949084800F06AFF19
S31510010D500849242000F0D0FB074B10225A60204688
S31510010D6010BD064804F07CFB204610BD00E0014092
S31510010D70A08601002D0D011000E100E0CC09021042
S31510010D8010B50F498AB00424CDE9021000230122BF
S31510010D908DF806400DF107010DF1060402A8CDE903
S31510010DA00442CDE90612CDE908338DF8073000F07B
S31510010DB04DFF0028A8BF9DF807000AB010BD00BF5F
S31510010DC000E0014010B50F498AB00524CDE90210A3
S31510010DD0002301228DF806400DF107010DF10604DD
S31510010DE002A8CDE90442CDE90612CDE908338DF802
S31510010DF0073000F02BFF0028A8BF9DF807000AB0A6
S31510010E0010BD00BF00E0014030B58BB005460B4A5E
S31510010E100292012000238DF8040001AA022402A8DF
S31510010E20CDE90424CDE90633CDE908338DF8051053
S31510010E30039500F00BFF0BB030BD00BF00E0014081
S31510010E4010B58AB004460A488DF80510002302220F
S31510010E50029001A902A8CDE90412CDE90633CDE924
S31510010E6008338DF80420039400F0F0FE0AB010BD8B
S31510010E7000E0014030B58BB005460B4A02920420C2
S31510010E8000230DEB00028DF80400022402A8CDE91F
S31510010E900424CDE90633CDE908338DF80510039501
S31510010EA000F0D4FE0BB030BD00E0014030B58BB080
S31510010EB0094D8DF8071003900DF107010120CDE9B9
S31510010EC00410002402A8CDE90632CDE908440295A2
S31510010ED000F0BCFE0BB030BD00E0014070B5CAB0E9
S31510010EE08C46054619460DF1250014468DF824C089
S31510010EF004F086FD084B019309AE0023013401A8C5
S31510010F00CDE90533CDE9073302950494039600F034
S31510010F109DFE4AB070BD00BF00E00140002000F008
S31510010F209DBD00BF012000F099BD00BF10B5002086
S31510010F3000F02AFB012000F027FB402000F024FBE3
S31510010F400D4B022218684FF4E13101F01FFD041E0A
S31510010F5003DB00F0B9F8044608B1204610BD00F0D5
S31510010F607BF804460028F8D1044B05484322DA6081
S31510010F7000F088FA204610BD000000200044004011
S31510010F80400D030000BF70474FF0FF30704700BFA0
S31510010F904FF0FF30704700BF4FF0FF30704700BF72
S31510010FA04FF0FF30704700BFF8B5E0B9002A19DDE0
S31510010FB0104D0E468F180C4602E0BB420FD01C4650
S31510010FC0284601F0DBFDC1B22170284601F0D8FD9B
S31510010FD022780D2A04F10103EFD10A232370C6F1F9
S31510010FE00106A019F8BD02F075F8092303604FF048
S31510010FF0FF30F8BD00200440F8B5431E012B21D85F
S31510011000002A174612DD531E124E4C1ECD1814F827
S31510011010013F0A2B0CD00F4801F0B6FD0028FAD07B
S315100110202178304601F0ACFDAC42F0D13846F8BD1E
S31510011030084801F0A9FD0028FAD00D21304601F02B
S315100110409FFDE8E702F046F8092303604FF0FF30F1
S31510011050F8BD00BF00200440F8B50D4B1F68A7B1BD
S3151001106000250C4C2E46D4E9000100F0C9FC20469F
S3151001107000F0C0FB0135002818BF6FF00706BD420E
S3151001108004F10C04EFD13046F8BD3E463046F8BDAA
S31510011090E8090210EC090210044B00EB400003EBC7
S315100110A0800253F82000516800F0C0BCEC09021010
S315100110B0044B00EB400003EB800253F8200051680B
S315100110C000F09EBCEC090210F8B50B4B1F6887B1F6
S315100110D000240A4D2646284600F08CFB01340028D0
S315100110E018BF6FF00706BC4205F10C05F3D1304667
S315100110F0F8BD3E463046F8BD100A0210140A021019
S31510011100474885464748804780B94749474A484B2B
S315100111109B1A03DD043BC858D050FBDC4549464AAF
S3151001112000209142BCBF41F8040BFAE743488047BF
S315100111304348804743488047FFF7FEFFFEE7FEE737
S31510011140FEE7FEE7FEE7FEE7FEE7FEE7FEE7FEE760
S31510011150FEE7FEE7FEE7FEE7FEE7FEE7FEE7FEE750
S31510011160FEE7FEE7FEE7FEE7FEE7FEE7FEE7FEE740
S31510011170FEE7FEE7FEE7FEE7FEE7FEE7FEE7FEE730
S31510011180FEE7FEE7FEE7FEE7FEE7FEE7FEE7FEE720
S31510011190FEE7FEE7FEE7FEE7FEE7FEE7FEE7FEE710
S315100111A0FEE7FEE7FEE7FEE7FEE7FEE7FEE7FEE700
S315100111B0FEE7FEE7FEE7FEE7FEE7FEE7FEE7FEE7F0
S315100111C0FEE7FEE7FEE7FEE7FEE7FEE7FEE7FEE7E0
S315100111D0FEE7FEE7FEE7FEE7FEE7FEE7FEE7FEE7D0
S315100111E0FEE7FEE7FEE7FEE7FEE7FEE7FEE7FEE7C0
S315100111F0FEE7FEE7FEE7FEE7FEE7FEE7FEE7FEE7B0
S31510011200FEE7FEE7FEE7FEE7FEE7FEE7FEE7FEE79F
S31510011210FEE7FEE7FEE7FEE7FEE7FEE7FEE7FEE78F
S3151001122000000220ED120110587C0210000000206F
S31510011230CC0B0020000C002068170020F1120110C1
S3151001124005500110C90A01100B4A08B5034610686A
S3151001125028B10A4903448B4207D8136008BD0848D0
S315100112600649106003448B42F7D901F033FF0C2372
S3151001127003604FF0FF3008BDA80C002000F00120DC
S31510011280701700204FF080439A6802F46062B2F53D
S31510011290206F20D011D9B2F5406F17D00F4B1049DE
S315100112A0B2F5606F18BF0B464FF080420D49926838
S315100112B0C2F38212D3400B60704752B1084947F20C
S315100112C03053B2F5C06F18BF0B46EDE74FF400432C
S315100112D0EAE7054BE8E74FF4E103E5E7C068780470
S315100112E000E1F50568170020008793030020704779
S315100112F010B50A4C0A4BA3600A4801F0EDFAD4F86E
S31510011300883043F47003C4F88830BFF34F8FBFF3AE
S315100113106F8FFFF7B7FFFFF709FE10BD00ED00E075
S315100113200000011000A0024038B54FF0E023184923
S315100113309C691A6922F480320A601A69D2071FD48D
S315100113406FF07F4405225C614FF080759C611A61D4
S31510011350104B114A19680023A0FB01010EF052FF30
S315100113600E4BB0FBF5F205FB120084421A600AD847
S315100113701A6801321A602544094B281A186038BDBB
S315100113805D690135E4E7064B201A186038BD00BFC8
S31510011390B00C00206817002040420F000400002006
S315100113A0B40C002010B50C4C0C4B22681960002AA5
S315100113B00EDC08B9002010BDFFF7B6FF2368002B1D
S315100113C0F8DD4FF0E022136943F002031361F1E7F0
S315100113D06FF0050010BD00BF04000020AC0C00200A
S315100113E0F8B5174C2368002B1EDB26682EBB154B50
S315100113F04FF0E0251B68AA699A421ED8124F3B6826
S315100114005BB16FF00F009847104B3E601A682A6166
S315100114104FF0FF3323600020F8BD0C4A4FF0FF3325
S3151001142012682A612360F6E7074C2368002BF2D075
S315100114300020984700232360EDE76FF00500F8BD03
S3151001144004000020B40C0020AC0C0020B00C0020CD
S3151001145010B5094C236823B16FF00F00984700238C
S315100114602360064A064B10684FF0E0214FF0FF3219
S3151001147008611A6010BD00BFAC0C0020B00C002032
S315100114800400002038B5184C2268002A29DC08B956
S31510011490002038BDFFF748FF4FF0E02202E0136944
S315100114A0DB031AD42368002BF9DC104B1A684FF0B2
S315100114B0E0218B699342FCD80D4D2B6823B16FF057
S315100114C00F00984700232B600A4B4FF0E022196852
S315100114D011614FF0FF332360DAE72368013B236084
S315100114E0E0E76FF0050038BD04000020B40C0020C1
S315100114F0AC0C0020B00C0020F8B50F4E0F4BB268A3
S315100115009A4204460D4600F1100707D018460C49B9
S315100115104FF4F07204F074FA0346B060002C43F8ED
S31510011520275007DB074A6109012304F01F04A34072
S3151001153042F82130F8BD00BF00ED00E0000E00209A
S315100115400000011000E100E03F2808D90D4A40389B
S31510011550D168C0B2012383400B43D36070471F2863
S315100115604FF0804207D92038916CC0B201238340D5
S315100115700B4393647047516A012383400B435362B3
S31510011580704700BF000008403F2809D90E4940386E
S31510011590CB68C0B20122824023EA0203CB607047B6
S315100115A01F284FF0804108D920388B6CC0B2012218
S315100115B0824023EA02038B6470474B6A0122824000
S315100115C023EA02034B6270470000084010B5072852
S315100115D00AD8DFE800F00C09092333475B04BDE89C
S315100115E01040364800F006B96FF0020010BD4FF0FA
S315100115F080440021A36843F48023A3604FF47A70DA
S31510011600FFF7D0FE03E0FFF7EBFE063052D1A368D9
S315100116105901F8D5FFF71CFF002010BD00214FF42A
S315100116207A70FFF7BFFE4FF0804403E0FFF7D8FE54
S3151001163006303FD1A3689A00ECD4F7E74FF0804407
S315100116400021A36843F40023A3604FF47A70FFF7D7
S31510011650A9FE03E0FFF7C4FE06302BD1A3681B01D8
S31510011660F8D5D7E74FF080440021A36843F48013DF
S31510011670A3604FF47A70FFF795FE03E0FFF7B0FE13
S31510011680063017D1A368D800C4D4F7E74FF08044C9
S315100116900021A36843F40033A3604FF47A70FFF777
S315100116A081FE03E0FFF79CFE063003D1A3689B0180
S315100116B0B0D4F7E76FF0090010BD00BF800A021021
S315100116C03F2809D940380F49C0B2012282408A60A9
S315100116D08B681A42FCD170471F280AD92038C0B22C
S315100116E001224FF0804182404A644B6C1A42FCD170
S315100116F0704701224FF0804182404A604B681A427E
S31510011700FCD1704700000840820733D100F17043C5
S31510011710B3F5002F84460A4629D3A0F18453B3F5B5
S31510011720804F27D220F00F03A3F18453B3F5804FD6
S3151001173020D243F6F073034003F5002300B50F489A
S3151001174083B0614616F01CFA4FF08042136843F0DD
S315100117504003136013685B06FCD44FF08052084BAC
S31510011760126801921B68019303B05DF804FB054BE7
S315100117700340E3E76FF00200704700BF009002409C
S3151001178000200010F0FF070016F0F6B916F0FCB9AC
S3151001179000F000B810F4407306D0054A11684A6A81
S315100117A0134300204B6270476FF00200704700BF71
S315100117B008000020C10710B5044608D4A2070BD4AF
S315100117C063070ED42046BDE8104001F0BDBB0020D2
S315100117D0FFF7DAFEA207F3D50120FFF7D5FE63075F
S315100117E0F0D54020FFF7D0FE2046BDE8104001F0AD
S315100117F0ABBB00BF70B57F4B05689D42044637D021
S3151001180003F580539D4220D003F5EE2303F5806343
S315100118109D427FD07848281AB0FA80F04009C0005E
S31510011820FFF7C8FF744B22689A4215D06268217A75
S31510011830284600F04BF9D0B9637A042B00F2D78011
S31510011840DFE803F05A4C3E2F18000220FFF7B2FFD3
S31510011850694B22689A42E9D1237A012B00F0BB80A9
S31510011860022B00F0A580002B56D06FF0100070BD32
S315100118700120D5E72B6E626823EA02032B666B6E95
S3151001188013436B66D5F8B83023EA0203C5F8B830AE
S31510011890594BA17A9D4239D02846BDE8704000F0D7
S315100118A0FFB82B6E626813432B666B6E23EA020335
S315100118B06B66D5F8B83023EA0203C5F8B830E7E706
S315100118C02B6E626823EA02032B666B6E13436B66FB
S315100118D0D5F8B8301343C5F8B830D9E72B6E62681E
S315100118E013432B666B6E23EA02036B66D5F8B83089
S315100118F01343C5F8B830CBE72B6E626823EA0203AF
S315100119002B666B6E23EA02036B66C1E70029ACD026
S31510011910002070BD042083E76368384958001A0116
S315100119200E6A00F0020002F02002024326EA0202C9
S315100119300A628A68C3F34003034322EA03038B60F6
S31510011940637A042B91D8DFE803F0261B031B0300EF
S3151001195062682A49D300086A03F0100302F00106EF
S31510011960334320EA03030B6256019300086A03F01E
S31510011970040306F04006334320EA03030B6287E7AC
S315100119801E4962680E6AD30002F0010003F01003CB
S3151001199030430343E7E76268184893005101066A2A
S315100119A003F0040301F040010B43334303626FE775
S315100119B06368124958001A010E6A00F0020002F01B
S315100119C02002024332430A628A68C3F34003034387
S315100119D013438B60B4E76368084958001A010E6A0D
S315100119E000F0020002F0200202433243A0E76FF03A
S315100119F0020070BD0080004000060840006C0040E7
S31510011A00084A904201D000F043B8074810B4046A5E
S31510011A10CA0001F00101214302F010030B4310BC6F
S31510011A200362704700060840006C0040094A904264
S31510011A3001D000F02FB810B4074CCA00206A02F08A
S31510011A40100201F0010142EA010320EA03032362B5
S31510011A5010BC704700060840006C004001F086BAC1
S31510011A60034A904201D000F017B8024AD16170477B
S31510011A700006084000680040034B984201D000F070
S31510011A800DB8024BD869704700060840006800403F
S31510011A90C16170470162704781647047006C70477D
S31510011AA059B1012906D1D0F8C0301343C0F8C0305E
S31510011AB0002070476FF002007047D0F8C03023EA5B
S31510011AC00203C0F8C0300020704700BF036B1343F8
S31510011AD00363426005292CD8DFE801F00A12191FA9
S31510011AE02503C0F888208267C2668260002070478D
S31510011AF0426142600267C267C0F8882000207047C1
S31510011B00026142600267C267C0F88820EEE7C0F83A
S31510011B108820C26702678260E8E7C0F88820C2673A
S31510011B20C2668260E2E7C0F8882082670267826037
S31510011B30DCE76FF00200704700F0FAB808B5114BF8
S31510011B4098420DD0104B984211D0104B984215D196
S31510011B503820FFF7F9FC3420FFF7B2FD002008BD4D
S31510011B600D20FFF7F1FC1020FFF7AAFDF6E71C2068
S31510011B70FFF7EAFC2020FFF7A3FDEFE76FF0010066
S31510011B8008BD00BF00D0014000E0014000F0014057
S31510011B90C0B370B504460D461646FFF7CFFF1B4B73
S31510011BA09C4212D01A4B9C421CD01A4B9C4226D1F5
S31510011BB03820FFF7E9FC1848FFF71CFE3246294684
S31510011BC02046BDE8704000F04DB80D20FFF7DCFC53
S31510011BD01248FFF70FFE324629462046BDE87040EF
S31510011BE000F040B81C20FFF7CFFC0D48FFF702FEAE
S31510011BF0324629462046BDE8704000F033B86FF0F2
S31510011C00010070BD4FF0FF30704700BF00D001409A
S31510011C1000E0014000F001405C0A0210740A021053
S31510011C20680A021000F09EB800F0ECB800F0FAB89D
S31510011C3000F00CB900F018B900F034B900F04AB947
S31510011C4000F050B900F056B900F058B900F0C2B919
S31510011C5000F090BA00F09EBA014B196800F008BE68
S31510011C600C000020F8B5002857D00F461021154654
S31510011C700446FFF7E9FF064608B13046F8BD23686A
S31510011C8043F0010323602046FFF7D8FF2046FFF7F4
S31510011C90D7FF02212046FFF7DDFF06212046FFF779
S31510011CA0D7FFDFB123681E4A43F002039442236033
S31510011CB02FD01C4B9C420FD003F580539C4214BF6E
S31510011CC04FF0FF340224184B04EB440403EBC40316
S31510011CD001225A603046F8BD0124F4E73A462946F6
S31510011CE02046FFF729FF0E4B9C4209D003F580537E
S31510011CF09C4210D00D4FBC4214BF4FF0FF37022744
S31510011D00094B07EB470103EBC10300225A6030462A
S31510011D10F8BD3446D7E70127F2E74FF0FF36ACE7B7
S31510011D2000D0014000E001400810002000F0014001
S31510011D300346A0B16AB9B1F5806F0DD27F29C2648D
S31510011D4084BF4FF40042C264C26C0A430020DA64B5
S31510011D5070476FF0100070476FF0020070474FF038
S31510011D60FF30704700283FD010B4214AA1F57423E3
S31510011D706FF410742344934213D31E4B99422FD8F8
S31510011D801D4B1B685B08B3FBF1F35B089A1EB2F59A
S31510011D90FF7F03F1FF3323D8436310BC8363FFF73F
S31510011DA043BF154B154C1B685B08B3FBF1F14A0099
S31510011DB0A4FB01C14908A4FB0242013952080F29AB
S31510011DC002F1FF320CDC0F2A0ADC090289B2D2B207
S31510011DD00A43C26302680A4942F400420260D2E72A
S31510011DE06FF0020010BC70474FF0FF30704700BF14
S31510011DF0009F240040E1330068170020ABAAAAAA6D
S31510011E00801A06000649436B826B0868C2F3080202
S31510011E10C3F3080313444008B0FBF3F0704700BF47
S31510011E206817002070B1036B13F0010F036B04D117
S31510011E3043F0010303630020704743F00203036379
S31510011E40002070474FF0FF30704700BF48B1036B59
S31510011E5043F004030363036B13F00403FBD1184629
S31510011E6070474FF0FF307047C8B1C1B1AAB100B584
S31510011E70002301F1FF3E07E0C16A01335FFA81FCDD
S31510011E809A420EF803C005D041688907F4D5184661
S31510011E905DF804FB10465DF804FB104670474FF0E1
S31510011EA0FF30704798B191B17AB1002301F1FF3C2F
S31510011EB006E001339A421CF80310C9B2C16204D07C
S31510011EC04168C906F5D518467047104670474FF058
S31510011ED0FF307047C36943F08003C361C3691B06B2
S31510011EE0FCD47047436A43F080034362436A1B067E
S31510011EF0FCD4704781600261704700BF002865D02D
S31510011F00036843F001032DE9F04103600768036894
S31510011F1043F480630E46044607F480670360002984
S31510011F2043D000252BE0FFF7ADFA236823F0800399
S31510011F3023600A20FFF7A6FA236813F400784FF0FE
S31510011F400A002BD1FFF79EFA236843F08003236022
S31510011F500A20FFF797FA23689A054FF00A001DD554
S31510011F60FFF790FA236843F0400323600A20FFF736
S31510011F7089FA2368DB0525D40135AE4215D00A202E
S31510011F80FFF780FA236823F0400323600A20FFF746
S31510011F9079FA2368D9054FF00A00C4D523680135AB
S31510011FA043F0C003AE422360E9D16FF008001FB9B8
S31510011FB0236823F480632360236823F001032360DD
S31510011FC0BDE8F0814046002FF6D1F1E74FF0FF3022
S31510011FD0704700BF2DE9F041D0E900437F2B00F295
S31510011FE0C380634B9C42054608D003F580539C423F
S31510011FF004D003F580539C4240F0B08023689E07BD
S3151001200040F1AF8007226FF07F412046FFF71AFE9D
S315100120102046FFF715FE2046FFF710FE6A690023DA
S31510012020E360636142BBEA686B685B00E362236B42
S3151001203043F0010300262363202704E0A36813F469
S31510012040FE4F11D1EA68964219D2A3689806F5D5C2
S31510012050A968921B31442046FFF7EEFDA760A368DD
S3151001206013F4FE4F0644EDD0EE602046FFF7E0FD77
S315100120706FF00800BDE8F081EA68002AD4D1002289
S3151001208011212046FFF7DEFD6B69002B4AD0B3F50F
S31510012090807F88BF002323622046FFF7C7FD266B8A
S315100120A016F00206FBD16B686A695B0043F0010307
S315100120B0E362002A36D010274FF001081DE0A3680D
S315100120C013F4FE4329D1A1686A69C90713D596424B
S315100120D0A2EB06010FD9B1F5807F8CBF2362216275
S315100120E0236B43F0020323636B68C4F808805B001B
S315100120F043F00103E362964214D2A36813F0110F61
S31510012100DDD02969921B31442046FFF793FDA76064
S31510012110A36813F4FE430644D5D06E612046FFF73B
S3151001212087FDA5E7AB6973B1236B43F00203236304
S31510012130A368DB07FCD54123A360A06810F4FE4019
S3151001214096D1BDE8F081236B43F004032363A368A2
S315100121505A06FCD5A368DB07EAD5ECE76FF0020057
S31510012160EFE76FF00600ECE76FF01000E9E700BF4C
S3151001217000D001408269D2B28A42034607D3C269AE
S3151001218022F4706242EA01210020D96170476FF092
S31510012190020070478269C2F307228A42034607D3B7
S315100121A0426A22F4706242EA0121002059627047A4
S315100121B06FF00200704700BF2DE9F84FDFF898A2C3
S315100121C0DFF898925AF8206059F82080054620B316
S315100121D0012800F09C80A24CDFF888B202280CBFBF
S315100121E0234600235BF820709B6813F4FE4F40F0E2
S315100121F0B280FA68B24211462FD87B69434546D957
S31510012200A16811F0110F37D1B24200F0EB804AF8F4
S31510012210256049F82580BDE8F88F934CDFF844B264
S31510012220A368DBF8007013F4FE4FE2D0A368A36035
S31510012230236923612046E5606561FFF7F9FCDBF848
S315100122400000C36913B16FF008019847E560656135
S31510012250A368A3602369236196E0A368990600F138
S315100122609880E36843F02003E3607B699845CED2FA
S31510012270A16811F0110FC7D03969A3EB08024144C7
S315100122802046FFF7D7FC1023F968A3608044B142BA
S31510012290BDD17B69434540F0A5800023E3606361AE
S315100122A0A368A360BB6922692261002B40F0B38049
S315100122B0236B43F004032363A36813F4FE4F6A4BA5
S315100122C000F0BC809C4200F0DA8003F580539C42FA
S315100122D000F00581DBF80800C369002B00F0E380EC
S315100122E06FF0080198470023E3606361A368A36058
S315100122F05D4B226922619C4200F0CD805B4B9C4272
S3151001230000F0E480022200234BF8223083E7574C79
S31510012310DFF850B1A368DBF8047013F4FE4F3FF4F5
S3151001232068AFA368A360236923610026E66020468F
S315100123306661FFF77DFCDBF80400C369002B00F032
S31510012340C7806FF008019847E6606661A368A360CD
S315100123502369236118E0A368A3602369236100251B
S31510012360E56020466561FFF763FCDBF80800C36989
S31510012370002B7DD06FF008019847E5606561A36871
S31510012380A36023692361022500234BF82530BDE89C
S31510012390F88FB968921B31442046FFF74DFCFA6855
S315100123A006442023B242A3603FF65BAFE36823F0F5
S315100123B02003E3607B697FF459AF002B3FF46AAFCA
S315100123C0226B42F0020222630122A260E268984562
S315100123D042F00102E260BFF45DAFA26812F0110F84
S315100123E07FF44AAFA268D2077FF511AF0122A2602E
S315100123F0B8F1000F14D17A685200B3F5807F42F01C
S315100124000102E2628CBFC4F820802362E36843F0C4
S315100124101103E360FBE6236B43F0020323634BE7EF
S31510012420A3EB0802B2F5807F88BF0022984522628D
S31510012430ECD3E36823F01103E360E8E69C422CD069
S3151001244003F580539C4236D0DBF80800C36953B3B9
S315100124500021984747E700BFEC0F0020E00F00204E
S3151001246000F00140F80F002000D0014000E00140CB
S31510012470E3606361A368A3602369236183E7DBF8E3
S315100124800000C369002B7FF42BAFE3606361A3687F
S31510012490A36023692361002235E7DBF80000C369D5
S315100124A0002BD5D1F1E7114AD3605361936893603C
S315100124B01369136126E7DBF80400C369002BC7D142
S315100124C0E3606361A368A3602369236101221AE7AC
S315100124D0E3606361A368A3602369236154E7DBF8B2
S315100124E00400C369002B7FF4FBAEE9E700F001405D
S315100124F02DE9F04715460E461268B249D0F80890F4
S31510012500002711401F6004460768984600295AD1D2
S3151001251019F4FE4F40F0CF80D30640F1A48119F093
S31510012520100F00F04881002E00F05C81002202217C
S315100125302046B0471023A3602369DA0705D5002288
S3151001254006212046B047012323612A6848F2200359
S31510012550134200F0DF8019F0200F09F4004A00F051
S31510012560FC80002E00F04581032100222046B04751
S315100125702023A3602369990700F1F580BAF1000FB2
S3151001258040F0FA8019F0400F00F06881C8F800A0F9
S31510012590424604212046B0478B4A002340219442EB
S315100125A0A1602B606B600AD0884B9C4200F0318190
S315100125B003F580539C420CBF02234FF0FF33844A2C
S315100125C0002142F8231019F4800F11D01EB10022F8
S315100125D011462046B0474FF48003A3600823A36039
S315100125E04FF40043A36047F611732B6001236B6010
S315100125F019F4000F0ED01EB1002201212046B0475A
S315100126004FF40003A3600823A3604FF620732B60D9
S3151001261002236B6019F0080F17D017F4006200F04F
S315100126208C801EB1002201212046B0474FF4800252
S315100126300823A2604FF40041A3604FF620720223D3
S31510012640A1602A606B60BDE8F08719F4FE4FFAD0DD
S315100126506FF00803C8F800301EB142460421204627
S31510012660B04707236FF07F42A2602361636A43F08C
S3151001267080036362636A1B06FCD4E36943F080033B
S31510012680E361E36913F08003FBD14F4A2B60944257
S315100126906B600AD04D4B9C4200F0BF8003F580530E
S315100126A09C4214BF4FF0FF330223494A002142F8DE
S315100126B02310BDE8F0876FF00803C8F8003016B193
S315100126C042460421B04707226FF07F412046FFF7AB
S315100126D0B9FA2046FFF7B4FA2046FFF7AFFA3A4A9D
S315100126E0002394422B606B600AD0384B9C4200F059
S315100126F0928003F580539C420CBF02234FF0FF33A7
S31510012700334A002142F823102A6848F22003134263
S315100127107FF421AF6B6898073FF51DAF19F0400F95
S315100127203FF451AF0023C8F80030002E3FF434AF08
S31510012730424604212046B0472EE716B111462046DF
S31510012740B04708234FF40001A16047F61172A36048
S3151001275001232A606B60BDE8F087236913F0020339
S3151001276038D0002E5BD0002205212046B047022327
S315100127702361BAF1000FD1D00023C8F800304246C8
S3151001278004212046B047104A00234FF400419442D9
S31510012790A1602B606B6009D00C4B9C4259D003F59C
S315100127A080539C420CBF02234FF0FF33084A00218D
S315100127B042F82310B2E72369DB07A6D5002E7FF472
S315100127C0BEAEC0E60800C00000D0014000E00140E6
S315100127D0F80F0020BAF1000FA0D0C8F80030002E73
S315100127E0D1D0CCE71023A3602369D9073FF5ABAE4F
S315100127F0ABE62023A36023699A0721D4BAF1000F0F
S3151001280023D119F0400F26D119F4800F7FF4E3AECE
S31510012810EEE60123D3E6012372E7012345E70223FE
S315100128202361BAF1000F10D119F0400F13D119F429
S31510012830800F7FF4D0AE19F4000F7FF4E1AEE9E614
S3151001284002232361BAF1000FDBD00023C8F8003050
S3151001285099E70123AAE7C8F800609DE619F4800FED
S315100128607FF4B5AEC4E66B68D8073FF558AE4CE7B2
S3151001287030B5174B984285B0044624D003F58053E2
S31510012880984205D003F5805398421ED005B030BD4D
S31510012890012023689B0704D505B0BDE83040FFF73A
S315100128A08BBCE5680B4B626953F82010CDE90252D7
S315100128B001AB02AA2046FFF71BFEDDE90223E26007
S315100128C0636105B030BD0020E3E70220E1E700BFF8
S315100128D000D00140F80F002000F002B800F018B83F
S315100128E0D0F80031012223F00103C0F80031C0F8FD
S315100128F00027D0F80031DA03FBD5D0F8003143F0C8
S315100129000103C0F80031D0F80031DB03FBD5704765
S31510012910D0F8003123F00103C0F80031704700BF31
S3151001292008B5164B984210D0154B984214D0154B3A
S31510012930984218D0144B98421CD14420FEF7C0FE81
S315100129404420FEF701FE002008BD0B20FEF7B8FE5D
S315100129500920FEF7F9FDF6E70C20FEF7B1FE0A2075
S31510012960FEF7F2FDEFE71C20FEF7AAFE2120FEF787
S31510012970EBFDE8E76FF0020008BD00BF0020044040
S3151001298000300440004004400014084070B504466D
S315100129900E461546FFF7C4FFA8BB022D2DD0042DF8
S315100129A018D0204B9C421BD01F4B9C422CD01F4B46
S315100129B09C4230D01E4B9C4223D11E48FEF71AFF73
S315100129C04420FEF7E1FD2A4631462046BDE8704017
S315100129D000F0F8B80620FEF7F9FD124B9C42E3D140
S315100129E01548FEF707FF0920FEF7CEFD2A463146A8
S315100129F02046BDE8704000F0E5B80520FEF7E6FD7B
S31510012A00CFE76FF0020070BD0C48FEF7F3FE0A2007
S31510012A10FEF7BAFDD7E70A48FEF7ECFE2120FEF7CE
S31510012A20B3FDD0E7002004400030044000400440CC
S31510012A30001408402C0A0210500A0210440A02100F
S31510012A40380A0210314B984210B5044615D003F5D9
S31510012A508053984211D003F5805398420DD003F557
S31510012A607533984206D10523022A436114D0042AEC
S31510012A7032D08AB16FF0020010BD042AFAD0204676
S31510012A8000F0D8F80028F7DD236843F400432360EB
S31510012A9023681B03FCD510BD4FF4E103B3FBF1F31F
S31510012AA001FB03F2C2F5E10213B1B2EB510F00D9EA
S31510012AB00133174A1361106800F44030B0F5803FB6
S31510012AC005D0136813F4403FD4D14FF4E100104BF5
S31510012AD01B69B0FBF3F0D5E7036843F48033036059
S31510012AE00368B1F5166F43F4001303600AD9002386
S31510012AF043614FF48033B3FBF1F301FB03F2C2F5EB
S31510012B008032D1E701234361F3E700BF002004407F
S31510012B1000140840124B98421CD003F5805398427A
S31510012B2018D003F58053984214D003F575339842A3
S31510012B3012D1036803F44033B3F5803F05D003681F
S31510012B4013F4403F08D14FF4E103064A1069B3FB71
S31510012B50F0F0704700F0BAB86FF00200704700BF8E
S31510012B60002004400014084000F0F0B800F00EB93F
S31510012B7000F030B900F084B900F09EB900F008B841
S31510012B8000F012B800F0B6B900F0B8B900F0BCB94F
S31510012B9010B504462046FFF7F5FF0028FAD0204667
S31510012BA0BDE81040FFF7E6BF38B504460D4620468E
S31510012BB0FFF7EAFF0028FAD029462046BDE838403B
S31510012BC0FFF7DABF1A4B984270B504460D46164602
S31510012BD00BD003F58053984207D003F580539842E2
S31510012BE003D003F5753398421FD101212046FFF713
S31510012BF0CDFF00B170BD08212046FFF7B5FF0028B3
S31510012C00F8D101462046FFF7B3FF0028F2D101465D
S31510012C102046FFF7ABFF0028ECD132462946204665
S31510012C20FFF710FF00EAE07070BD6FF0020070BD93
S31510012C3000200440224B98420BD003F58053984252
S31510012C4007D003F58053984203D003F575339842A4
S31510012C5032D10523012A10B4436123D0022A14D09C
S31510012C601AB16FF0020010BC7047164B1A68520861
S31510012C70B2FBF1F301FB132213B1B2EB510F00D9E1
S31510012C80013310BC0361FFF745BF04684FF4E1033C
S31510012C9044F40034B3FBF1F301FB03F2C2F5E10294
S31510012CA00460E9E70468084AB2FBF1F344F480349E
S31510012CB0046001FB1322DFE76FF00200704700BFCB
S31510012CC00020044068170020C06878041C4B984205
S31510012CD00BD003F58053984207D003F580539842E1
S31510012CE003D003F57533984222D1036803F44033B8
S31510012CF0B3F5803F17D0036813F4403F0CD0036837
S31510012D0003F44033B3F5003F08BF4FF4E10312D18A
S31510012D100069B3FBF0F070470A4B00691B685B084A
S31510012D20B3FBF0F07047084B0069B3FBF0F0704746
S31510012D306FF00200704703686FF00200704700BF22
S31510012D400020044068170020C06878040E4A90429B
S31510012D5003460BD002F58052904207D002F58052FD
S31510012D60904203D002F5753290420AD105390329F2
S31510012D7007D81A6822F4406242EA812200201A60BA
S31510012D8070476FF00200704700200440104B9842C4
S31510012D900BD003F58053984207D003F58053984220
S31510012DA003D003F57533984208D151B1012905D1E4
S31510012DB0036843F480530360002070476FF00200EC
S31510012DC07047036823F4805303600020704700BFE7
S31510012DD000200440294B98420BD003F580539842AA
S31510012DE007D003F58053984203D003F57533984203
S31510012DF041D104293FD8DFE801F01117243103002E
S31510012E00036843F010030360036843F02003036073
S31510012E10036843F04003036000207047036823F002
S31510012E201003036000207047036843F0100303602A
S31510012E30036823F020030360036823F04003036053
S31510012E40EAE7036843F010030360036823F02003E5
S31510012E500360036843F040030360DDE7036843F052
S31510012E6010030360036843F020030360036823F033
S31510012E7040030360D0E76FF0020070470020044062
S31510012E800C4B98420BD003F58053984207D003F5AB
S31510012E908053984203D003F57533984204D14368A1
S31510012EA0DB0604D4006A70476FF0020070476FF0BA
S31510012EB00C007047002004400D4A904203460BD087
S31510012EC002F58052904207D002F58052904203D00B
S31510012ED002F57532904205D1586810F0800004D180
S31510012EE0196270476FF0020070476FF00B00704760
S31510012EF0002004404068C0F3032070474068C0F3C7
S31510012F000330C0F1080070470E4A904203460BD0B9
S31510012F1002F58052904207D002F58052904203D0BA
S31510012F2002F57532904209D14A1E072A06D81A6847
S31510012F3022F00F0211430020196070476FF0020052
S31510012F40704700BF0020044010B5064C217831B9F6
S31510012F5005484FF4007202F003F801232370002094
S31510012F6010BD00BF50100020541200200328F8B5E0
S31510012F709ABF104B53F82050002507462846FEF7F6
S31510012F807BFD044601462846FEF76AFD8CB10A4EC2
S31510012F900A4D06EBC71605EBC715E30703D52B68D4
S31510012FA00BB130689847640806F1040605F104056B
S31510012FB0F3D1F8BD8C0A02105410002054120020CF
S31510012FC00EB430B59CB01FAC4FF4017254F8045BCB
S31510012FD0ADF814200290069002F0B2FD039007900E
S31510012FE00A480B490A9100234FF6FF7C0E9313935F
S31510012FF02A46234602A90068ADF816C0019400F0CE
S315100130006FF81CB0BDE8304003B070479005002042
S315100130103930011010B50C46B1F90E1005F090F8C3
S31510013020002803DB236D0344236510BDA38923F414
S315100130308053A38110BD00BF002070472DE9F041D8
S315100130400C46B1F90C101F46CB05054616460BD496
S3151001305021F48051A1813B46B4F90E10324628461F
S31510013060BDE8F04100F020B8B4F90E100223002299
S3151001307005F050F8B4F90C10EAE700BF10B50C468C
S31510013080B1F90E1005F046F8B4F90C30421C0EBF1A
S3151001309023F4805343F480532065A38110BD00BFF0
S315100130A0B1F90E1002F002BA38B50C46084D844635
S315100130B0114620461A4600232B606446FDF79CFFF5
S315100130C0431C00D038BD2B68002BFBD0236038BDC4
S315100130D098140020014B1868704700BF9005002016
S315100130E02DE9F04FADF5377D8A46B1F90C1002AFD7
S315100130F08C04F86415467B6309D4DAF8643041F41C
S31510013100005123F40053AAF80C10CAF864300023B6
S315100131101C460822194607F15800BB62A14601F068
S315100131201FFFA846FC637C62BC633C64834BD3F8E7
S31510013130E44001F0ABFF07F1580200920346424604
S31510013140F86C07F15401A04700284CDB7B6D8044D5
S315100131500646002B00F0A885012853D0252B5AD0FE
S315100131600028E3D0DAF804301A46A8EB060601382F
S31510013170002A06EB000406F1FF3517DDDAF80030F8
S315100131806A781878904203F1010305F1010140F0C4
S315100131908B85DAF80420CAF80030013A8C42CAF855
S315100131A0042000F09B80002A0D46E7DCF86C51469E
S315100131B005F042FB0028E1D03B6C002B01F0E381C6
S315100131C0BAF80C3013F0400FFB6B41F0DD8123B1DF
S315100131D0FB6B186808B101F0CDFB386C07F5357734
S315100131E0BD46BDE8F08F4FF6FD730822002107F1A9
S315100131F058007B6501F0B4FE7B6D08F10108002BC8
S3151001320000F052854E4AD25C100700F15B8501260B
S31510013210252B3046A6D1002498F800202546A2F188
S31510013220250308F10101552B00F24986DFE813F059
S315100132303D0747064706470647063407470647062A
S315100132404706470647064D064D064D064D064D06E1
S315100132504D064D064D064D064D06470647064706D1
S315100132604706470647064706580647066B00F40405
S315100132705806580658064706470647064706620087
S3151001328047064706FF04470647064706B50447069D
S31510013290470647064706980647064706D9064706CC
S315100132A04706470647064706580647066D00F604C1
S315100132B0580658065806ED06E406620047061E072C
S315100132C00F07FD060105FA0647064706B7045B0018
S315100132D02B0747064706980647065B0002354D44FD
S315100132E0A5EB060922E7230740F0DE8498F80120B2
S315100132F0884694E7220740F0D78498F8012044F0D5
S31510013300020488468BE744F0010444F040048846E1
S315100133104FF0000BDAF80430002B40F348846006B6
S3151001332040F14F840BF1FF33032B00F29387DFE853
S3151001333013F0B102F4014801090000BF2404002072
S315100133400D0B021044F4F063F86CBB6401F0A4FE9B
S315100133500368FB616B1EB3F5AE7F4FF0000488BFA7
S315100133606FF4AE70C7E9044488BF05EB000C07F58E
S31510013370B87394BF4FF0000C40F25D15FB627C648C
S315100133803C63BC619B46C7F80CC0C7F82080DAF8CD
S3151001339000100A78A2F12B034E2B50D8DFE813F058
S315100133A0B7034F00B7034F004F0099009D009D00D2
S315100133B09D009D009D009D009D009D009D004F005C
S315100133C04F004F004F004F004F004F00AC033B031F
S315100133D03B033B03D903D0034F004F00BF034F00FC
S315100133E04F004F004F0093034F0072034F004F00E1
S315100133F04F006D034F004F004F005603A7034F00B8
S315100134004F004F004F004F004F004F00AC033B03DE
S315100134103B033B03D903D0034F004F00BF034F00BB
S315100134204F004F004F0093034F0072034F004F00A0
S315100134304F006D034F004F004F005603A703BB6C9F
S315100134409E0568D5D7F81C8098F80030934262D152
S31510013450C7E901540026554606E0296091F800E0B7
S3151001346098F8000086451BD118F8010FB2464C4654
S315100134700131013609F10109002800F093866868C7
S31510013480013800286860E8DCF86C294605F0D4F9A3
S3151001349030B9296898F8000091F800E08645E3D024
S315100134A05246AA46D7E9075823462E44BC683C62C1
S315100134B03446FE6CFA61994614F8011D524630469F
S315100134C005F07EF9AC42F7D1FA693C6AA9EB02091B
S315100134D023E0BB6CD90500F14E857B6C1B191AD103
S315100134E01C46BB6C23F4C073C7E911430BF8012BBF
S315100134F0013DDAF80430013B002B09F10109CAF844
S31510013500043040F3D483DAF800300133CAF80030BE
S31510013510002D7FF43CAFD7F820803B6B002B40F099
S3151001352037837B6C013B012B40F2B183631E062B63
S3151001353040F24F86BB6CD8051CD5590501F1278180
S315100135401BF8011C65290BF1FF3309F1FF340BD070
S31510013550452909D0F86C524605F032F91BF8021CC0
S31510013560A9F10204ABF10203F86C5246A1469B463F
S3151001357005F026F9BB6C13F010027FF4D7AD03F4F6
S31510013580C063B3F5806F8BF8002000F00F857B695F
S31510013590002B41F023800022F96AF86C03F012FD2A
S315100135A0BA6C7B6BD20705460E4603F1040440F153
S315100135B029861B68C3E900563B6C7C6301333B6467
S315100135C0B4E56B1EB3F5AE7F88BF6FF4AE7207F527
S315100135D0B8738CBFA9180021FB621E46BA6B7964B9
S315100135E0534644F45864CA4688BF40F25D154FF0FD
S315100135F0000B9946D9F8000090F800C0ACF12B03E6
S315100136004D2B62D8DFE813F0B5026100B5026100F7
S3151001361061001E0315021502150215021502150287
S315100136201502BB02BB02610061006100610061000D
S31510013630610061004E004E004E004E004E004E00DD
S31510013640610061006100610061006100610061005B
S31510013650610061006100610061006100610061004B
S315100136606100A902610061006100610061006100F1
S31510013670610061004E004E004E004E004E004E009D
S31510013680610061006100610061006100610061001B
S31510013690610061006100610061006100610061000B
S315100136A06100A9020A2A10DD24F4386406F801CB58
S315100136B0D9F80430013B002BC9F8043040F3DD8200
S315100136C00130C9F80000013D94D14B46E005D146C1
S315100136D0BA639A4607D5FB6A9E4200F27984FB6A61
S315100136E09E4200F0E18214F0100211D1BB6BF96A0F
S315100136F0BD6AF86C3270A8477B6BA10603F104050D
S3151001370040F14C841B6818603B6C7D6301333B644C
S31510013710FB6AF61A5E44B14408E5002D08BF4FF066
S31510013720FF35E00704F0100340F1EB82002B40F067
S31510013730BF847E6B210656F8042BBA6440F15D876F
S315100137407B64002A00F0B082802001F00BF97B6CBB
S315100137500246002800F01787B96C0860F86BC48818
S3151001376081888C4280F007860068B96C40F8241075
S31510013770F96B7E630134CC8096464FF0200CDAF853
S315100137800010AF4E097816F801B01BF0080B70D176
S31510013790C7F81C803E62C7F830E02E46C7F844C011
S315100137A09846154601F072FC58453FF405ADDAE925
S315100137B0003207F5B8710846F96213F8011B00F8D3
S315100137C00B10013ACAE900327B6A032B0BF1010B8C
S315100137D007F1680402D12368042B04D008220021C2
S315100137E0204601F0BDFB0094FA6AF86C5B46294647
S315100137F001F08CFB421C78623FF4DEAC002800F02D
S315100138000C867B6A02331ED0286804F0AFFC0028B0
S3151001381040F07A877B6A032BD94402D12368042BA3
S3151001382000D0013EB8F1000F40F0E386BB6C0435C1
S31510013830002B00F0DE863B6BEC1A7B6CB3EBA40F0E
S3151001384040F29487C346DAF80430002B40F32887F8
S31510013850DAF800303A6A1B78D35C180701D4002EC7
S31510013860A0D14346D7F830E0D7F844C0D7F81C802A
S315100138702A46002B7FF45AAC1360BB6C33B1A2EB12
S315100138800E02931001339C4500F211863B6C0133F5
S315100138903B644BE4002D08BF4FF0FF35E60704F0FB
S315100138A0100240F19D82002A40F03E84796B240675
S315100138B051F8043B7B63396240F1AA86BA64002B46
S315100138C000F0F281802001F04DF8BA6C8346002891
S315100138D000F059867B6B1860FB6BDC8899888C42EB
S315100138E080F0358518687B6B40F82430FB6BC7F880
S315100138F030B00134DC802023FB627C6AC7F81C805F
S3151001390000267A64A84601F0C1FBB0423FF454ACDC
S31510013910DAE9003207F5B87013F8011B8155013A3F
S31510013920032CCAE9003206F1010607F1600502D13E
S315100139302B68042B04D008220021284601F010FB25
S315100139400095F86C334607F5B872594601F0DEFA60
S315100139500446601C3FF430AC002C40F0F283CBF8E7
S31510013960004023460822002107F16800BB6401F0DC
S31510013970F7FABB6C1A46334BD3F8E030BB64D7E980
S3151001398012C007F1680307F15001E04701280CBF87
S3151001399097F85030002307F17002D35C002B00F02A
S315100139A03E86032CB14400F0D58308F1FF387B6CB9
S315100139B0002B40F0C4837B6B0BF1040B002B00F042
S315100139C0BE833B6BABEB0305FB6AB3EBA50F40F272
S315100139D0D8837E6CDAF80430002B40F3A382B8F159
S315100139E0000F90D17A6CD7F81C807C627AB97B6B08
S315100139F0CBF8002043B13B6BF96AABEB03039A108A
S31510013A000132914200F2A7863B6C01333B643B6A5B
S31510013A107B63FFF78BBBB96C0E057FF57CAD7B6CB9
S31510013A201B197FF478AD1C4621F4C073C7E9114305
S31510013A305CE5054B24F4386433F9122036E600BFF1
S31510013A400D0B021024040020A40A0210B96C01F413
S31510013A501863B3F5807F7FF45EAD3B6B012B7FF46A
S31510013A605AAD21F4807343F40063BB6430230BF821
S31510013A70013B0023013D3B6338E5062C7FF44BAD3A
S31510013A80072433E5BB6C1E057FF545ADB96C01F412
S31510013A90A063B3F5806F05D049057FF53CAD3B6B4F
S31510013AA0002B48D0BB6C9B0504D43B6BB9695B1AE0
S31510013AB0C7E904B3BB6C23F4786343F4C073BB64E6
S31510013AC000233B6312E57B6C002B40F01D823B6BA0
S31510013AD033B9BB6C03F4E063B3F5E06F00F006860F
S31510013AE0012C00F00D82042C00F00A8213E5072C3C
S31510013AF07FF411AD0824F9E4BB6C190500F10C82B1
S31510013B007B6C012B7FF407AD02237B64EEE4BB6C67
S31510013B1018067FF500AD23F08003BB64E6E4002CA4
S31510013B2040F0E9813B6B8BBBBB6C03F4E063B3F5EF
S31510013B30E06F00F0CD850023D7F820803B63F0E4D9
S31510013B40BB6C1B0500F1D181022C7FF4E4AC03247C
S31510013B50CCE4B96C080599D561E704F4C063B3F5F3
S31510013B60007F7FF4B2AD24F4007444F4A0641022F3
S31510013B709CE523067FF5A9AD24F0800496E5944BC8
S31510013B8033F91220082A3FF78FAD9EE5D7F820802A
S31510013B90BB6C23F48073BB64C3E444F00104DAF80C
S31510013BA00430002B88464FF0020B3FF7B8ABF86C88
S31510013BB0514604F041FE00287FF4FEAA60063FF547
S31510013BC0B1ABDAF80020834E1378F35C19077FF551
S31510013BD0A9AB334656469A4605E0326013781AF871
S31510013BE003301B0715D57368013B002B09F1010939
S31510013BF0736002F10102F0DCF86C314604F01CFE30
S31510013C00002840F0E382326813781AF803301B0754
S31510013C10E9D4B246FFF786BB44F001046E4BBB6292
S31510013C200A238846BB634FF0030BFFF773BB44F0BF
S31510013C3001046A4BBB6208238846BB634FF0030B32
S31510013C40FFF768BB23057FF531AD12B944F4007453
S31510013C500822610500F19E817B6C24F4607413B116
S31510013C60013B7B640135D9F80430013B002B0BF184
S31510013C70010BC9F804303FF723ADF86CBA64494615
S31510013C8004F0DAFDBA6C00283FF41DAD1DE5FD6A9E
S31510013C90AB4540F21481FC6C1BF8011D52462046BF
S31510013CA004F08EFDAB45F7D1FB6BFFF790BAF86CBC
S31510013CB0514604F0C1FD00287FF42DAC002D7FF490
S31510013CC066AB28E4DAF80420FC6C10E0DAF8003070
S31510013CD040491A788A5C110703F101037FF526AA78
S31510013CE0DAF80420013ACAE9003209F10109002A79
S31510013CF0ECDC5146204604F09FFD0028E6D0FFF784
S31510013D0015BA002B40F09583D7F834B014F0800221
S31510013D105BF8046BBE6400F04684002EC4D02020EC
S31510013D2000F020FE0446002800F02D84FB6B306065
S31510013D309A88DE88964280F073821868BB6C40F8C8
S31510013D402630FB6B0136DE8020237B64DAF8000017
S31510013D50204E0278B25C130700F1E48243462246F4
S31510013D60B0462646DAF804100139CAF80410411C87
S31510013D70CAF800103446017804F8011BB96C21B158
S31510013D80796CA61A8E4280F01984013D0CD0DAF8AE
S31510013D9004100029264640F36284DAF800000178FF
S31510013DA018F801100907DDD5A21A98469144511C3D
S31510013DB0BB6C002222701BB17B6C8B4200F24584D6
S31510013DC03B6CC7F834B001333B64FFF7AFB900BFA2
S31510013DD0A40A02100D0B0210BD7301100D7B011008
S31510013DE0002A40F06E817B6B14F0800453F804BBFB
S31510013DF0BB6400F00984BBF1000F3FF455AF2020DE
S31510013E0000F0B0FD0646002800F0BD83FA6BCBF832
S31510013E100000D48893889C4280F086821068FB6BE0
S31510013E2040F824B00134DC802023DAF8001007F1C1
S31510013E3070020878105C00283FF436AFC7F844903A
S31510013E40C7F83480D946344698469346DAF80400C2
S31510013E504B1C0138CAE900303046097800F8011BBD
S31510013E60B9F1000F02D0061B46456BD20646013D3D
S31510013E700BD0DAF80410002940F37181DAF800103A
S31510013E8008781BF800000028E0D1341BCB464346C6
S31510013E90D7F84490D7F834803FF406AF0022327039
S31510013EA0BBF1000F03D0611C8B4200F2E5833B6C22
S31510013EB001333B64BB6C7B63A144FFF737B9FB6BE2
S31510013EC0002B7FF486A9FFF788B914F08F0F7FF4C2
S31510013ED0EBAE05EB850502EB4505303DFFF706BA5E
S31510013EE088464FF0040BFFF715BA7B6C1B197FF44C
S31510013EF02BAEFFF7F5BA032C02D0052C7FF40BABD2
S31510013F000134E4B2FFF7F2BA7B6C022B7FF4E8AD11
S31510013F1003237B64FFF7EABA7B6C1B197FF4F0ADC0
S31510013F20FFF7DEBAF86C514604F086FC00283FF420
S31510013F3056AD7A6CD7F81C807C62002E3FF456ADD4
S31510013F40FFF73AB94FEA48082046414601F0A2FA6E
S31510013F500446002800F017830644C9F8000086E7D6
S31510013F6044F40074B84BBB6210238846BB634FF010
S31510013F70030BFFF7CFB923F08003BB643B6B01330F
S31510013F803B63FB68002B3FF4B3AAFB68013BFB6064
S31510013F90FFF7AFBA24F4B064FFF788BB220740F1EC
S31510013FA013827B6B1B681870FFF7AEBB3A6BBB694C
S31510013FB09A423FF4F0AA9A1A07F2C3239B4528BFE7
S31510013FC007F2C22BA149584604F0E8F8FFF7E3BA05
S31510013FD016F8011CF86C5246013E04F0F1FBFFF78E
S31510013FE07EBB07F1700001F017FE44F040048046D5
S31510013FF04FF0010BFFF78EB9954BBB620023884634
S31510014000BB634FF0030BFFF785B923077FF44CAE63
S3151001401098F80120682A00F0CF8144F004048846FC
S31510014020FFF7FDB844F408749CE7E50600F1F58046
S315100140307B6B200753F8042B00F1F881660740F1DA
S315100140402583A2F800907B638846FFF76FB814F0BA
S315100140508F037FF429AEFA6B002A00F0A98298F833
S31510014060012044F080048846FFF7D9B822077FF46F
S315100140701BAE98F801206C2A00F0968144F00104D9
S315100140808846FFF7CCB8704BBB620A238846BB63E0
S315100140904FF0030BFFF73EB925437FF405AE98F8B1
S315100140A0012010248846FFF7BAB88846FFF758B89A
S315100140B04FF0000CE646C7F848C007F15402FFF767
S315100140C05EBBDAF8003007F170021978515C0029ED
S315100140D03FF4F5AE0133CAF80030DAF80430012D99
S315100140E003F1FF33CAF804301BD0FC6C164610E0FE
S315100140F0DAF800301A78B25C013392B1CAF800309E
S31510014100DAF804300BF1010B013B5D45CAF80430B6
S3151001411007D0002BECDC5146204604F08DFB00281D
S31510014120E6D0D944FFF702B87B6B3B620023C7E99F
S315100141300B337B6307F154039B46FFF7DEBB002667
S3151001414048E4A11C3FF446ACDBF800305A1C7FF45E
S3151001415009AC20E42B68042B7FF427AC27E4F86C18
S31510014160514604F069FB00283FF488AEA642CB46BF
S315100141704346D7F84490D7F834803FF41DA8341B32
S315100141808CE6386BD9001E4601F084F93863002895
S3151001419000F0F9817A6B730000EB050B7E6C1060F1
S315100141A0FB6217E4B96C21F4207123465846B964B1
S315100141B03246F969BC689946AA467D6804F00EF83C
S315100141C03B6BBB61013D8346FFF793B9B246FEF7E0
S315100141D0F3BF022C40F2EA82032C3FF4ABA9043C54
S315100141E0E5B2EC43FE6C5C441BF8011D52463046A9
S315100141F004F0E6FA5C45F7D109F1FF39A9EB050997
S31510014200FFF798B97B6BD3F800B0BB6C9A0740F1F6
S31510014210F580CBE90056FFF7CFB98846FEF786BF82
S315100142204FF6F6718A4264D8FB6B083292B218685F
S315100142307A64910001F02EF900285AD0FB6B7A6C42
S315100142409A8018607AE500BF0D7B01109C0A021056
S31510014250BD73011004F01003012D38BF01251A4654
S31510014260BB6414F0010340F02D81BA6C002A40F0B2
S31510014270B582D7F834B023065BF8046B40F1C582DA
S31510014280002E3FF411AD284600F06CFB04460028C1
S3151001429000F07981F96B3060CB888A889342C0F03F
S315100142A000834FF6F6718A427B6422D8FB6B083283
S315100142B092B21868BA64910001F0ECF8C8B1FB6BC0
S315100142C0BA6C9A8018607B6CFA6B40F823600133E4
S315100142D0D380CDF800A02146F86C2B46012204F0BC
S315100142E0C7FA0446002840F0DE823B6C002B40F0F2
S315100142F0E482FB6BDE8818687EB10024051FA04698
S31510014300814655F8043F186800F034FB01342B68D8
S31510014310A642C3F80080F4D148464FF0FF333B6400
S31510014320FEF758BF012143E54FF6F6729342E0D8E6
S31510014330FA6B08339BB210687B64990001F0AAF8F6
S315100143400028D6D0FA6B7B6C9380106067E54FF628
S31510014350F6708142BA64CCD80831FB6B8EB21868FC
S31510014360B10001F097F80028C3D0FB6BBA6C9E80A0
S315100143701860FFF7B8BA4FF6F67081427B637A641C
S31510014380B7D80831FB6B1FFA81FB18684FEA8B010E
S3151001439001F080F80028ACD0FB6B7A6CA3F804B05E
S315100143A018607B6BFFF7E1B998F8022044F002041C
S315100143B008F10208FEF733BF98F8022044F008040A
S315100143C008F10208FEF72BBF63076BD414F0010244
S315100143D040F07B81A40740F17881C14BB96AF86C32
S315100143E09942BB6BF96A00F0F08103F091FD0B461F
S315100143F07A6B1168C1E90003FFF786B902460B46CD
S315100144000BF052FE002840F0C780284631460BF0CB
S31510014410A9FECBF80000FFF7CFB8286003F0A6FE7F
S31510014420002840F07181D944FFF7FBB982F800905A
S3151001443009E6DAF80030AB4E1A78B25C11073EF590
S3151001444075AE0133CAF80030DAF80430012D03F1E4
S31510014450FF33CAF8043008BF09F101093EF466AE0C
S31510014460D7F84CB0012412E0DAF800301A78B25CB1
S31510014470120703F1010312D4CAF80030DAF8043036
S315100144800134013BA542CAF8043000F03A81002BF1
S31510014490EADC5146584604F0CFF90028E4D0A1448D
S315100144A0FEF744BE7B6B1B681880FFF72DB9BC6CF9
S315100144B0111D206800F0EEFF00283FF4E7A92060E7
S315100144C0FFF7E4B9002A40F084817B6B1A46240673
S315100144D052F8043B7A6300F1AC819B46BB6C1A46D9
S315100144E09C46C7F83080002664467B64904600F0EF
S315100144F0CDFDB0423EF460AEDAE9003213F8011B8D
S31510014500013ACAE900327A6A07F5B870032A815569
S3151001451006F1010307F1680602D13268042A06D0B2
S31510014520082200213046FB6200F01AFDFB6A009654
S3151001453007F5B872F86CFB62594600F0E7FC0246C3
S315100145407862501C3EF438AEFB6A002A40F0BD81F9
S315100145509944BB6C013D002B40F0C581CBF800306E
S315100145607B6C002B00F0F181ABEB0406B8EBA60FC8
S3151001457000F2EB8120464FEAC80100F08BFF04469A
S31510014580002840F0DC81FB6B002B7FF4B2AE4FF0BC
S31510014590FF333B64FEF721BE534801F089FBCBF88C
S315100145A00000FFF709B8BC6CC7E91122FFF7CEBBB3
S315100145B082B0CDE9023302ABFB6350E57B634B005E
S315100145C0104619467B6400F065FF02460028DAD0D2
S315100145D0BB6C841918607B6BFFF7D7BB3869014632
S315100145E00A2301318346F86C02F0E8FE7B69C21A90
S315100145F0E2E44FF0000BFFF726B9BA6C7E639C46D6
S315100146009E46BB64FFF7BBB85E462346A3460CE441
S31510014610D7F834B07A63C7E90B22FFF76EB97A6C13
S31510014620D7F81C807C62002E3FF4E0A9FC6C15467D
S31510014630013E07F5B8735246995D204604F0C0F85D
S31510014640002EF5D12A46FFF7D1B9BC6C206800F0CF
S3151001465021FF00283FF4B4AB2060FFF7B1BBF86C23
S315100146605146C7E90C3204F0E7F8D7E90C320028B5
S315100146703FF493ABFFF798BBDBF8000000F00AFF9D
S3151001468000283FF414ACCBF8000010E4E50735D44C
S31510014690A40733D54FEAE970C2F800905060D2E40E
S315100146A0F86C514604F0C8F800283FF4D1A84346E7
S315100146B0D7F830E0D7F844C0D7F81C802A46BBF1AA
S315100146C0000F7EF479ADFFF7D4B87B6BFFF71AB8FC
S315100146D0BB6C23F4F063BB640124FEF707BF00BF74
S315100146E00D7B01100D0B0210E8070210BB6C23F4B1
S315100146F0F063BB6401237B64FEF7F8BEC2F8009039
S31510014700A1E4A944FEF712BD4346D7F830E0D7F825
S3151001471044C0D7F81C802A46BBF1000F3FF4A9A864
S315100147203D63FC6CFD6AC7F844905E46F146C3468C
S315100147303B62E046013E5246A95D204604F040F830
S31510014740002EF7D1CE46C4463A6BD7F844903B6A51
S31510014750D846FFF78EB87C6B191D206800F09AFEBB
S3151001476000283FF451A92060FFF74EB9386BD900E4
S3151001477000F090FE386300283FF405AF7B6CBA6CED
S315100147805B00051910607B64C346FFF75CB8FD6AD0
S31510014790AB457FF694ABFC6C1BF8011D52462046C7
S315100147A004F00EF8AB45F7D1FFF77EBAFB6A9B45CD
S315100147B07FF685ABFC6A1BF8011DF86C524603F0B7
S315100147C0FFFFA345F7D1FFF76FBA03F0A1FC0B4624
S315100147D00EE6002294461346934682E61C46DAE913
S315100147E000239D4202EB030151DDCAF80010F86C5B
S315100147F051461C44ED1A04F01FF80028EFD0002C86
S315100148003EF4DAACA144FEF791BCCDF800A0F86CE9
S315100148102B463146012204F02BF8044600283EF4BB
S31510014820CBAC3B6CC7F834B00133A1443B64FEF703
S315100148307DBC7B64002B3FF437AA802000F092F8F0
S315100148407B6C834600283FF49EAEF96B1860CE88C8
S315100148508A88964237D34FF6F6718A427B643FF6C1
S3151001486048ADFB6B083294B21868A10000F012FE35
S3151001487000283FF43EADFB6B9C8018607B6CFA6B95
S3151001488040F826300136D680DC46202229E65B1B0D
S315100148902A442C44CAF80430CAF80020A144FEF771
S315100148A045BC086810E58542BBD93068214600F041
S315100148B0F1FD0028B5D03060B3E7BAF80C305B06CD
S315100148C07EF586AC15E50868D9E77A6A911C34D06D
S315100148D0032A994402D13368042B00D0013DBB6CE5
S315100148E0002B3FF43DAE0026DAF80430002B13DD21
S315100148F0002D7FF4FCAD7B6C4246A446D7F8308080
S3151001490023B1ABEB0C01B2EBA10F21D8BB6C002B81
S315100149107EF40CACFEF7BABFF86C514603F08CFF6F
S315100149200028E5D042467B6CD7F83080A446002E8D
S315100149307EF442AC002BE4D1E8E71E46D4E77B6C4B
S3151001494000EB060B18604FEA48080BF1040BCAE797
S3151001495018687B6400F09EFD0028D7D07B6C186028
S31510014960D4E700BF024B0146186800F00BB800BF30
S3151001497090050020024B0146186802F085BB00BF66
S31510014980900500202DE9F04F01F10B05162D85B08C
S31510014990064624D8102900F2B18000F069FD1025D1
S315100149A018234FF0020CBA4F3B44A3F108025C687E
S315100149B0944200F022816368E268A16823F0030340
S315100149C0CA602344304691605A6842F001025A6027
S315100149D0083400F053FD204605B0BDE8F08F35F0E0
S315100149E0070500F18B80A94200F2888000F040FD96
S315100149F0B5F5FC7FC0F073816B0A00F08380042B40
S31510014A0000F22281AB0903F1390C03F1380E4FEA9A
S31510014A10CC039F4F3B44A3F108005C68A04207D129
S31510014A200DE0002AE16880F2E280884207D00C4648
S31510014A30636823F003035A1B0F2AF2DDF446DFF8ED
S31510014A4054823C69444500F0BF80636823F0030932
S31510014A50A9EB05030F2B00F34781002BC7E9048847
S31510014A6080F23181B9F5007FD7F804E080F0CC806F
S31510014A704FEAD90101314FEA5919012303FA09F312
S31510014A8057F83120A2604EEA030E07EBC103083B2B
S31510014A90E360C7F804E047F83140D4604FEAAC034D
S31510014AA001209840704534D810EA0E0F07D12CF02A
S31510014AB0030C400010EA0E0F0CF1040CF9D007EBB1
S31510014AC0CC0A5246E146D1680EE04B6823F0030347
S31510014AD0A3EB050EBEF10F0F0C46C96800F3C1809A
S31510014AE0BEF1000F80F2E2808A42EED109F101098E
S31510014AF019F0030F02F10802E5D121E10C2333600D
S31510014B00002468E74FF400734FF0400C4FF03F0E4E
S31510014B107FE7BC68636823F00309A94503D3A9EBB2
S31510014B2005030F2B53DC5C4BDFF870B11B680820B3
S31510014B3003F1100800F0B4FADBF8003001900133EC
S31510014B40A84404EB090205D008F1FF38804443421A
S31510014B5003EA080841463046029203F0BBFBB0F166
S31510014B60FF3F029A824600F0DC80824200F2D78033
S31510014B704B4B01991868404401F1FF311860844686
S31510014B8040F0FC801AEA010F40F0F880D7F808A02F
S31510014B90C84448F00102CAF80420424B1968814200
S31510014BA038BF1860404B1968814238BF18605446A7
S31510014BB022F00308A845A8EB050301D30F2B06DC49
S31510014BC0304600F05BFC9BE7D7F804E066E7621914
S31510014BD043F0010345F0010565603046BA60536044
S31510014BE000F04CFC0834204605B0BDE8F08FA268F1
S31510014BF02344D16030468A60E6E6DC68A3427FF43E
S31510014C00DAAE0CF1020C1AE7B9F5206F4FEA592208
S31510014C107ED3142A00F2158102F15C03DB005B32AC
S31510014C20F918FB580839994203D1F0E09B6899426B
S31510014C3004D05A6822F003024A45F7D8D968C4E964
S31510014C4002318C60DC6029E7142B6DD9542B00F2EC
S31510014C5001812B0B03F16F0C03F16E0E4FEACC039E
S31510014C60D7E63046A668621945F001056560F16020
S31510014C708E604EF00101C7E90422C2F80880C2F81D
S31510014C800C80516044F803E000F0F8FB0834A2E60A
S31510014C90180000202000002084140020100000209D
S31510014CA054140020801400207C1400202344304624
S31510014CB05A6842F001025A6054F8083FD9608B6075
S31510014CC000F0DCFB87E6A1443046D9F8043043F006
S31510014CD00103C9F80430083400F0D0FB7BE64FEA33
S31510014CE0D50C05F108035EE6621943F0010145F0A2
S31510014CF0010565603046C7E90422C2F80880C2F88A
S31510014D000C80516044F8093000F0B8FB083462E6B3
S31510014D104FEA991202F13903DB00383280E7BC42BF
S31510014D2024D0BC68626843E703F15C0C03F15B0EA7
S31510014D304FEACC036DE65AF80839534540F0D8804E
S31510014D401CF0030F0CF1FF3CF5D17B6823EA00033D
S31510014D507B60400098423FF6DCAE18B9D9E64000B8
S31510014D6009F104091842FAD0CC46A8E6614B01991B
S31510014D70186808EB000C0139C3F800C0DBF8000015
S31510014D8001301BBFAAEB02026244CBF800A01A60E5
S31510014D901AF00702CDE9022342D0C2F10802019BA3
S31510014DA09244D044134408EA01001A1A02EA010B8C
S31510014DB05946304603F08EFA421C039B7AD0A0EB7B
S31510014DC00A0000EB0B081868C7F808A048F00102A2
S31510014DD05844BC42CAF8042018603FF4DEAEB9F15B
S31510014DE00F0F42D96168A9F10C0222F0070201F0F6
S31510014DF0010111436160A1184FF0050C0F2AC1F88A
S31510014E0004C0C1F808C04AD8DAF80420C5E69210E1
S31510014E10012000FA02F24EEA020EC7F804E00EE78C
S31510014E20019B0AEB08020A409A1A02EA010B59463B
S31510014E30304603F04FFA431C039BC0D1DDF808B08E
S31510014E40C1E7542A15D84FEA193202F16F03DB0074
S31510014E506E32E5E6B3F5AA7F15D8EB0B03F1780CA4
S31510014E6003F1770E4FEACC03D3E50123CAF80430D8
S31510014E70A6E6B2F5AA7F25D84FEAD93202F1780310
S31510014E80DB007732CCE640F25452934225D8AB0C74
S31510014E9003F17D0C03F17C0E4FEACC03B9E53046E4
S31510014EA004F10801019302F0EFF8019BD7F808A06D
S31510014EB01868A9E7029A083A9044A8EB0A084FF035
S31510014EC0000B80E740F254539A420DD84FEA9942AB
S31510014ED002F17D03DB007C32A2E64FF47E734FF0C4
S31510014EE07F0C4FF07E0E94E54FF47E737E2297E68B
S31510014EF07B682EE754140020024B13B1024800F0D0
S31510014F00C3BA7047000000005550011070B582B049
S31510014F100446069D55B11048D0F8E46000956AB173
S31510014F202046B047431C10D002B070BD00F1F40505
S31510014F300948D0F8E4600095002AF1D10123114601
S31510014F402046064AB047431CEED100228A232A6026
S31510014F50236002B070BD00BF24040020E8070210D0
S31510014F60830730B547D0541E002A3ED0CAB2034635
S31510014F7001E0013C39D303F8012B9D07F9D1032C2C
S31510014F802CD9CDB205EB05250F2C05EB054535D9E9
S31510014F90A4F1100222F00F0C03F1100EE6444FEAB1
S31510014FA0121C1A46156055609560D560103272450F
S31510014FB0F8D10CF1010214F00C0F03EB021204F0FC
S31510014FC00F0C13D0ACF1040323F003030433134481
S31510014FD042F8045B9A42FBD10CF003042CB1C9B21E
S31510014FE01C4403F8011B9C42FBD130BD6446134699
S31510014FF0002CF4D1F9E703461446C0E71A46A44635
S31510015000E0E700BF70B50F4B0F4DAB42A3EB0506A2
S3151001501007D0B610002455F8043B01349847A64230
S31510015020F9D812F097FD094D094B5E1BAB424FEAB9
S31510015030A60606D0002455F8043B01349847A6422B
S31510015040F9D870BDC00B0020C00B0020C00B00208A
S31510015050C80B002038B5074D074C2C1BA41005D0E2
S31510015060013C55F8043D9847002CF9D1BDE838406C
S3151001507012F076BDCC0B0020C80B0020704700BF84
S31510015080704700BF704700BF704700BF014B93F8D0
S315100150902801704724040020004870471405002099
S315100150A0082802D14FF48050704708B5FEF712F860
S315100150B0162303604FF0FF3008BD00BF000000004B
S315100150C002780B78012A28BF9A4240F0D8806DE900
S315100150D0044540EA0104CDE902676FF0000C4FEA7E
S315100150E044721AB380EA010414F0070F6BD100F071
S315100150F0070420F0070004F0030521F007014FEA29
S31510015100C505F0E8042314F0040FF1E804670CFA5E
S3151001511005F462EA040266EA04060BD063EA0403A4
S31510015120624667EA0407664604E000BFF0E8042316
S31510015130F1E8046782FA4CF582EA0604A4FA8CF4C3
S315100151406CBB83FA4CF583EA0705A5FA8CF595B97C
S3151001515050E9022351E9026782FA4CF582EA060404
S31510015160A4FA8CF483FA4CF583EA0705A5FA8CF5B3
S315100151702543DBD09CB92DBAB5FA85F424F0070482
S3151001518027FA04F1DDE9026723FA04F303F0FF00BD
S3151001519001F0FF01FDE80445A0EB0100704724BAB8
S315100151A0B4FA84F424F0070426FA04F1DDE902675F
S315100151B022FA04F202F0FF0001F0FF01FDE80445B6
S315100151C0A0EB0100704714F0030F3CD110F003045B
S315100151D028D150F8082B51F8083B82FA4CF582EA8F
S315100151E00305A5FA8CF55DB950F8042C51F8043C69
S315100151F082FA4CF582EA0305A5FA8CF5002DE8D062
S315100152002DBAB5FA85F424F0070423FA04F122FA2B
S3151001521004F202F0FF0001F0FF01FDE80445A0EBE6
S31510015220010070474FEAC40420F0030050F8082B20
S3151001523021F0030151F8083B0CFA04F462EA040266
S3151001524063EA0403C9E710F003041DD0A1EB0401BE
S3151001525020F00300E40750F8042B06D012D28B7805
S315100152605FFAA2F4E41A06D12BB1CB785FFAB2F445
S31510015270E41A00D133B920465DF8104B7047A2EB02
S315100152800300704701F1040150F8042BCC0721F0FB
S31510015290030151F8043B48D824D222F07F4482FA04
S315100152A04CF594EA1325A5FA8CF50AD165B951F88E
S315100152B0043B84EA0204B4EB036F0ED150F8042BBD
S315100152C0EBE74FEA132355E035F07F454DD10878CA
S315100152D0FDE80445C0F1000070474FEA126203F081
S315100152E0FF0347E002EA1C4482FA4CF594EA13459F
S315100152F0A5FA8CF50AD165B951F8043B84EA020482
S31510015300B4EB034F0CD150F8042BEBE74FEA1343E0
S3151001531030E015EA1C4528D10B884FEA124229E0E4
S315100153204FEA124203EA1C4324E002F0FF0482FA18
S315100153304CF594EA1365A5FA8CF50AD165B951F8BD
S31510015340043B84EA0204B4EB032F09D150F8042B71
S31510015350EBE74FEA13630DE015F0FF0F05D10B686C
S315100153604FEA122223F07F4304E04FF00000FDE8DC
S315100153700445704712BA1BBA82FA4CF482EA030446
S31510015380A4FA8CF5B5FA85F402FA04F203FA04F3D9
S315100153904FEA1260FDE80445A0EB1360704700BFA9
S315100153A00FB400B5074983B004AB086853F8042B52
S315100153B08168019305F08AF803B05DF804EB04B037
S315100153C0704700BF9005002070B5054688B00846A5
S315100153D00C4600F0B5FB214E6A6B0590012143186E
S315100153E0CDE9066104A8022104940393AC680190E7
S315100153F00291002A2ED0626EB4F90C30D60701D470
S31510015400980521D5990406D4626E43F4005322F40B
S315100154100052A3816266284601AA214602F06CFF5A
S31510015420636E00280CBF0A254FF0FF35DA0702D448
S31510015430A3899B0502D5284608B070BDA06DFFF75C
S3151001544023FE284608B070BDA06DFFF71BFEB4F908
S315100154500C30D7E7284600F053FACCE70C060210B9
S31510015460024B01461868FFF7AFBF00BF9005002039
S315100154700148FFF707BE00BF8C1400200148FFF753
S3151001548003BE00BF8C140020002301461A4618469D
S3151001549007F0DCBE10B4044C03460A46206810BC63
S315100154A0194600F009BC00BF9005002038B5074D1C
S315100154B00022044608462A60FBF766FD431C00D00D
S315100154C038BD2B68002BFBD0236038BD9814002003
S315100154D0B1F90C20F8B5074610070C4646D44968B1
S315100154E042F400630029A3815CDDA56A002D3BD03F
