:020000041001E9
:1000000000000220690901109D070110A7090110D5
:10001000A9090110AB090110AD0901100000000091
:10002000000000000000000000000000AF09011007
:10003000B109011000000000B3090110B509011059
:10004000B9090110BB090110BD090110BF09011058
:10005000C1090110C3090110C5090110C709011028
:10006000C9090110CB090110CD090110CF090110F8
:10007000D1090110D3090110D5090110D7090110C8
:10008000D9090110DB090110DD090110DF09011098
:10009000E1090110E3090110E5090110E709011068
:1000A0002107011029070110ED090110EF090110C6
:1000B000F1090110F3090110F5090110F709011008
:1000C000F9090110FB090110FD090110FF090110D8
:1000D000010A0110030A0110050A0110070A0110A4
:1000E000090A01100B0A01100D0A01100F0A011074
:1000F000110A0110130A0110150A0110170A011044
:10010000190A01101B0A01101D0A01101F0A011013
:10011000210A0110230A0110250A0110270A0110E3
:10012000290A01102B0A01102D0A01102F0A0110B3
:10013000310A0110330A0110350A0110370A011083
:10014000390A01103B0A01103D0A01103F0A011053
:10015000410A0110430A0110450A0110470A011023
:10016000490A01104B0A01104D0A01104F0A0110F3
:10017000510A0110530A0110550A0110570A0110C3
:10018000590A01105B0A01105D0A01105F0A011093
:10019000610A0110630A0110650A0110670A011063
:1001A000690A01106B0A01106D0A01106F0A011033
:1001B000710A0110730A0110750A0110770A011003
:1001C000790A01107B0A01107D0A01107F0A0110D3
:1001D000810A0110830A0110850A0110870A0110A3
:1001E000000000000000000000000000000000000F
:1001F00000000000000000000000000000000000FF
:1002000000488047690901100348044B834202D02B
:10021000034B03B118477047F8060020F80600208A
:10022000000000000548064B1B1AD90F01EBA30183
:10023000491002D0034B03B118477047F80600205D
:10024000F80600200000000010B5064C237843B9E2
:10025000FFF7DAFF044B13B10448AFF3008001232A
:10026000237010BD000800200000000010B5011030
:1002700008B5054B1BB105490548AFF30080BDE843
:100280000840FFF7CFBF00BF0000000004080020B7
:1002900010B5011000F0F6B9C0B2704710B5094CA6
:1002A000636918700246E06805F0EAF823690022E5
:1002B0001A7022691378002BFCD0636800221A7030
:1002C00010BD00BF1800002010B507494A68137818
:1002D000002BFCD08B6809681C78E4B2224605F03C
:1002E000CFF8204610BD00BF1800002008B5002040
:1002F00000F0FEFA012000F0FBFA022000F0F8FA0C
:10030000124C002000F0D4FA204600F0EFFC01204F
:1003100000F0CEFA204600F0E9FC022000F0C8FA16
:10032000204600F0E3FC002000F0E2FA204600F056
:10033000DDFC012000F0DCFA204600F0D7FC0220B2
:1003400000F0D6FA204600F0D1FCDAE720A1070041
:1003500038B5084C084D0FCCAC46ACE80F0094E81B
:1003600003008CE8030029461820FFF797FFFFF7EA
:10037000BDFF00BF60AE01101C08002010B5154B7A
:1003800019784B1E82B0032B1ED8DFE803F002025F
:100390001B0C11494FF0113304200B6002B0BDE873
:1003A0001040FFF77BBF0D4C0D490E4B0E4A0094D9
:1003B000094801F079FD0849262002B0BDE8104047
:1003C000FFF76CBFFFF7C4FF084802B0BDE810405C
:1003D00003F0FABE1C0900201C080020A4AE011086
:1003E0008CAE011078AE011080AE0110B0AE0110DD
:1003F00010B50A4803F048FF62B64FF01130FFF71E
:100400004BFFFFF747FF012000F052FA044C204653
:10041000FFF75AFFFFF7B2FFF9E700BFDCAE0110AC
:100420001C0900209048F8B58468630649D58F4EB2
:100430003378002B40F0CB808D4D8B482B78052BEB
:100440001BD800F0D3FF29788A4B8B4D53F821201D
:100450002B68D21A824240F3DA80884A824852F8E6
:1004600021701F4400F0C2FF394602467E4800F06A
:10047000BBFF2B6803442B6002E000F0BDFF7E4D04
:1004800079480022102100F0BFFF77480022202188
:1004900000F0BAFF744800F0A9FF002840F0DF80A8
:1004A000714800F0A7FF082802D06F4800F0A6FFAF
:1004B000734B6D48002240212A601A60327000F0B0
:1004C0009FFFA70603D56848C3689E0633D4200261
:1004D0003FD462026CD4E30611D5644C2378002B20
:1004E0007CD1634C60482378052B09D900F084FF48
:1004F000BDE8F8405C480022102100F081BFF8BD43
:1005000000F074FF21785B4A5B4C52F8212023688D
:10051000D21A824270DD594A534852F821501D4484
:1005200000F064FF294602464F4800F05DFF236853
:1005300003442360DCE7250400F18B804C4D2B78CD
:10054000052B69D948480022202100F059FF2002DC
:10055000BFD54FF400014448002200F051FF2104B0
:10056000B7D5434D404800224FF4004100F048FF0A
:100570003D480122294600F037FF2B78052BA8D8EB
:100580003C4E3E4A384852F8231056F8232000F0DB
:100590002FFF3B4B2A78196856F8222008449042D6
:1005A000186096DA30480022202100F02BFF90E7F7
:1005B0002E4B2D480022102101251D7000F022FF36
:1005C000294800224FF4800100F01AFF83E72849F0
:1005D000012200F009FF002333702DE7244922484F
:1005E000012200F001FF00232370214C1E482378D4
:1005F000052B3FF67BAF83E7204850F821101A48BF
:10060000194400F0F1FE23680344236070E71B489F
:1006100050F82110194429E7194E164F174932682E
:1006200051F8231057F823300F4811449A1A00F05C
:10063000DFFE2B78326857F823301044013B984294
:1006400030607FF47FAF08480022202100F0DCFEFC
:1006500078E700224FF4004100F0D2FE6EE7024836
:1006600000F0CAFE1CE700BF00E00140250A0020A0
:10067000240A002000000020200A0020180000208A
:100680001C0A002010B5024600211B4800F05EFE47
:10069000044660BB1949184800F0A2FE164800F055
:1006A000ABFE224614484FF4800100F0ABFE224618
:1006B00011484FF4000100F0A5FE22460E484021EB
:1006C00000F0A0FE0E49242000F04AFB0D4B102242
:1006D0005A604FF0FF321146074800F091FE0A4B76
:1006E00059680C701B6901221A70204610BD07481A
:1006F00003F0CAFD204610BD00E00140A0860100C5
:100700002504011000E100E018000020F0AE011007
:1007100008B50346014803F057FDFEE70CAF011092
:10072000002000F079BD00BF012000F075BD00BFC2
:1007300010B5002000F05CFB012000F059FB4020C8
:1007400000F056FB104B022218684FF4E13101F023
:1007500091F8041E0CDB00F0EBF858B900F088F8B3
:10076000044660B9094B0A484322DA6000F0BEFA39
:10077000204610BD074908486F22FFF7C9FF054909
:1007800005487422FFF7C4FF3000002000440040F9
:10079000400D030028AF0110B0AF011000BF70473B
:1007A0004FF0FF30704700BF4FF0FF30704700BF81
:1007B0004FF0FF30704700BF4FF0FF30704700BF71
:1007C000F8B5E0B9002A19DD104D0E468F180C4619
:1007D00002E0BB420FD01C46284601F043F9C1B2EB
:1007E0002170284601F040F922780D2A04F1010316
:1007F000EFD10A232370C6F10106A019F8BD01F05C
:1008000073FB092303604FF0FF30F8BD0020044064
:10081000F8B5431E012B21D8002A174612DD531EBE
:10082000124E4C1ECD1814F8013F0A2B0CD00F4865
:1008300001F01EF90028FAD02178304601F014F9B1
:10084000AC42F0D13846F8BD084801F011F9002853
:10085000FAD00D21304601F007F9E8E701F044FB3A
:10086000092303604FF0FF30F8BD00BF00200440B3
:10087000F8B50D4B1F68A7B100250C4C2E46D4E9E6
:10088000000100F09BFC204600F092FB013500289F
:1008900018BF6FF00706AF4204F10C04EFD13046E9
:1008A000F8BD3E463046F8BDB8AF0110BCAF0110F0
:1008B0000B4B1B68834210B504460BD9094B04EB64
:1008C000440403EB840253F824005168BDE810404F
:1008D00000F08ABC044905483B22FFF719FFEDE709
:1008E000B8AF0110BCAF0110FCAF011070B0011027
:1008F0000B4B1B68834210B504460BD9094B04EB24
:10090000440403EB840253F824005168BDE810400E
:1009100000F054BC044905484622FFF7F9FEEDE714
:10092000B8AF0110BCAF0110FCAF011070B00110E6
:10093000F8B50B4B1F6887B100240A4D26462846A0
:1009400000F036FB0134002818BF6FF00706BC42E8
:1009500005F10C05F3D13046F8BD3E463046F8BDF2
:10096000E0AF0110E4AF0110474885464748804793
:1009700080B94749474A484B9B1A03DD043BC85896
:10098000D050FBDC4549464A00209142BCBF41F8AB
:10099000040BFAE743488047434880474348804771
:1009A000FFF7FEFFFEE7FEE7FEE7FEE7FEE7FEE7F6
:1009B000FEE7FEE7FEE7FEE7FEE7FEE7FEE7FEE70F
:1009C000FEE7FEE7FEE7FEE7FEE7FEE7FEE7FEE7FF
:1009D000FEE7FEE7FEE7FEE7FEE7FEE7FEE7FEE7EF
:1009E000FEE7FEE7FEE7FEE7FEE7FEE7FEE7FEE7DF
:1009F000FEE7FEE7FEE7FEE7FEE7FEE7FEE7FEE7CF
:100A0000FEE7FEE7FEE7FEE7FEE7FEE7FEE7FEE7BE
:100A1000FEE7FEE7FEE7FEE7FEE7FEE7FEE7FEE7AE
:100A2000FEE7FEE7FEE7FEE7FEE7FEE7FEE7FEE79E
:100A3000FEE7FEE7FEE7FEE7FEE7FEE7FEE7FEE78E
:100A4000FEE7FEE7FEE7FEE7FEE7FEE7FEE7FEE77E
:100A5000FEE7FEE7FEE7FEE7FEE7FEE7FEE7FEE76E
:100A6000FEE7FEE7FEE7FEE7FEE7FEE7FEE7FEE75E
:100A7000FEE7FEE7FEE7FEE7FEE7FEE7FEE7FEE74E
:100A8000FEE7FEE7FEE7FEE700000220550B01103F
:100A9000D8B5011000000020F80600200008002052
:100AA00040170020590B011011410110F1030110F2
:100AB0000B4A08B50346106828B10A4903448B4223
:100AC00007D8136008BD08480649106003448B42EC
:100AD000F7D901F009FA0C2303604FF0FF3008BD8D
:100AE000380C002000F00120481700204FF0804310
:100AF0009A6802F46062B2F5206F20D011D9B2F585
:100B0000406F17D00F4B1049B2F5606F18BF0B46FE
:100B10004FF080420D499268C2F38212D3400B60BD
:100B2000704752B1084947F23053B2F5C06F18BF51
:100B30000B46EDE74FF40043EAE7054BE8E74FF4D7
:100B4000E103E5E7C068780400E1F50540170020FF
:100B5000008793030020704710B50A4C0A4BA3602E
:100B60000A4800F037FED4F8883043F47003C4F824
:100B70008830BFF34F8FBFF36F8FFFF7B7FFFFF7DB
:100B8000D7FD10BD00ED00E00000011000A0024004
:100B900038B54FF0E02318499C691A6922F4803275
:100BA0000A601A69D2071FD46FF07F4405225C6186
:100BB0004FF080759C611A61104B114A196800232F
:100BC000A0FB010109F0D4FF0E4BB0FBF5F205FBD1
:100BD000120084421A600AD81A6801321A60254449
:100BE000094B281A186038BD5D690135E4E7064BEA
:100BF000201A186038BD00BF400C002040170020AC
:100C000040420F0034000020440C002010B50C4C72
:100C10000C4B22681960002A0EDC08B9002010BDB8
:100C2000FFF7B6FF2368002BF8DD4FF0E0221369D1
:100C300043F002031361F1E76FF0050010BD00BF40
:100C4000340000203C0C0020F8B5174C2368002B22
:100C50001EDB26682EBB154B4FF0E0251B68AA69EA
:100C60009A421ED8124F3B685BB16FF00F00984755
:100C7000104B3E601A682A614FF0FF33236000205A
:100C8000F8BD0C4A4FF0FF3312682A612360F6E783
:100C9000074C2368002BF2D00020984700232360E4
:100CA000EDE76FF00500F8BD34000020440C002093
:100CB0003C0C0020400C002010B5094C236823B1E7
:100CC0006FF00F00984700232360064A064B106818
:100CD0004FF0E0214FF0FF3208611A6010BD00BFF5
:100CE0003C0C0020400C00203400002038B5184C8B
:100CF0002268002A29DC08B9002038BDFFF748FF28
:100D00004FF0E02202E01369DB031AD42368002BC2
:100D1000F9DC104B1A684FF0E0218B699342FCD844
:100D20000D4D2B6823B16FF00F00984700232B6007
:100D30000A4B4FF0E022196811614FF0FF33236036
:100D4000DAE72368013B2360E0E76FF0050038BD78
:100D500034000020440C00203C0C0020400C0020FB
:100D6000F8B50F4E0F4BB2689A4204460D4600F19B
:100D7000100707D018460C494FF4F07204F080FBBE
:100D80000346B060002C43F8275007DB074A61098F
:100D9000012304F01F04A34042F82130F8BD00BF36
:100DA00000ED00E0000E00200000011000E100E076
:100DB0003F2808D90D4A4038D168C0B2012383408A
:100DC0000B43D36070471F284FF0804207D920386B
:100DD000916CC0B2012383400B4393647047516A06
:100DE000012383400B435362704700BF000008405B
:100DF0003F2809D90E494038CB68C0B20122824051
:100E000023EA0203CB6070471F284FF0804108D9C6
:100E100020388B6CC0B20122824023EA02038B642B
:100E200070474B6A0122824023EA02034B627047FB
:100E30000000084010B507280AD8DFE800F00C09C8
:100E4000092333475B04BDE81040364800F0B0B8D2
:100E50006FF0020010BD4FF080440021A36843F4FE
:100E60008023A3604FF47A70FFF7D0FE03E0FFF712
:100E7000EBFE063052D1A3685901F8D5FFF71CFFED
:100E8000002010BD00214FF47A70FFF7BFFE4FF035
:100E9000804403E0FFF7D8FE06303FD1A3689A00F4
:100EA000ECD4F7E74FF080440021A36843F400231B
:100EB000A3604FF47A70FFF7A9FE03E0FFF7C4FECA
:100EC00006302BD1A3681B01F8D5D7E74FF080443B
:100ED0000021A36843F48013A3604FF47A70FFF7F6
:100EE00095FE03E0FFF7B0FE063017D1A368D800E7
:100EF000C4D4F7E74FF080440021A36843F40033E3
:100F0000A3604FF47A70FFF781FE03E0FFF79CFEC9
:100F1000063003D1A3689B01B0D4F7E76FF0090056
:100F200010BD00BFD4B001103F2809D940380F4987
:100F3000C0B2012282408A608B681A42FCD170479D
:100F40001F280AD92038C0B201224FF080418240C8
:100F50004A644B6C1A42FCD1704701224FF0804129
:100F600082404A604B681A42FCD17047000008403A
:100F7000C10710B5044608D4A2070BD463070ED4EA
:100F80002046BDE8104000F053BF0020FFF730FFBF
:100F9000A207F3D50120FFF72BFF6307F0D5402010
:100FA000FFF726FF2046BDE8104000F041BF00BF1C
:100FB00070B57F4B05689D42044637D003F58053DA
:100FC0009D4220D003F5EE2303F580639D427FD040
:100FD0007848281AB0FA80F04009C000FFF7C8FF2F
:100FE000744B22689A4215D06268217A284600F034
:100FF0004BF9D0B9637A042B00F2D780DFE803F015
:101000005A4C3E2F18000220FFF7B2FF694B2268AE
:101010009A42E9D1237A012B00F0BB80022B00F029
:10102000A580002B56D06FF0100070BD0120D5E7D1
:101030002B6E626823EA02032B666B6E13436B66AA
:10104000D5F8B83023EA0203C5F8B830594BA17A75
:101050009D4239D02846BDE8704000F0FFB82B6EA5
:10106000626813432B666B6E23EA02036B66D5F846
:10107000B83023EA0203C5F8B830E7E72B6E6268A0
:1010800023EA02032B666B6E13436B66D5F8B83008
:101090001343C5F8B830D9E72B6E626813432B664B
:1010A0006B6E23EA02036B66D5F8B8301343C5F8BC
:1010B000B830CBE72B6E626823EA02032B666B6EB7
:1010C00023EA02036B66C1E70029ACD0002070BDA3
:1010D000042083E76368384958001A010E6A00F05B
:1010E000020002F02002024326EA02020A628A6833
:1010F000C3F34003034322EA03038B60637A042BA8
:1011000091D8DFE803F0261B031B030062682A491D
:10111000D300086A03F0100302F00106334320EA0B
:1011200003030B6256019300086A03F0040306F000
:101130004006334320EA03030B6287E71E496268D7
:101140000E6AD30002F0010003F0100330430343A2
:10115000E7E76268184893005101066A03F0040348
:1011600001F040010B43334303626FE763681249A8
:1011700058001A010E6A00F0020002F02002024339
:1011800032430A628A68C3F34003034313438B600C
:10119000B4E76368084958001A010E6A00F00200BB
:1011A00002F0200202433243A0E76FF0020070BD5C
:1011B0000080004000060840006C0040084A904251
:1011C00001D000F043B8074810B4046ACA0001F027
:1011D0000101214302F010030B4310BC036270476E
:1011E00000060840006C0040094A904201D000F01F
:1011F0002FB810B4074CCA00206A02F0100201F0A8
:10120000010142EA010320EA0303236210BC704794
:1012100000060840006C004000F01CBE034A9042EB
:1012200001D000F017B8024AD161704700060840AB
:1012300000680040034B984201D000F00DB8024B0B
:10124000D86970470006084000680040C1617047D7
:101250000162704781647047006C704759B1012981
:1012600006D1D0F8C0301343C0F8C030002070471A
:101270006FF002007047D0F8C03023EA0203C0F8D4
:10128000C0300020704700BF036B1343036342600C
:1012900005292CD8DFE801F00A12191F2503C0F830
:1012A00088208267C2668260002070474261426087
:1012B0000267C267C0F88820002070470261426060
:1012C0000267C267C0F88820EEE7C0F88820C267CE
:1012D00002678260E8E7C0F88820C267C266826061
:1012E000E2E7C0F88820826702678260DCE76FF07F
:1012F0000200704700F0F6B808B5114B98420DD0C7
:10130000104B984211D0104B984215D13820FFF75E
:101310004FFD3420FFF708FE002008BD0D20FFF729
:1013200047FD1020FFF700FEF6E71C20FFF740FD09
:101330002020FFF7F9FDEFE76FF0010008BD00BFC7
:1013400000D0014000E0014000F00140C0B370B5A2
:1013500004460D461646FFF7CFFF1B4B9C4212D0AA
:101360001A4B9C421CD01A4B9C4226D13820FFF7C6
:101370003FFD1848FFF71CFE324629462046BDE8CF
:10138000704000F049B80D20FFF732FD1248FFF71A
:101390000FFE324629462046BDE8704000F03CB8BA
:1013A0001C20FFF725FD0D48FFF702FE32462946B7
:1013B0002046BDE8704000F02FB86FF0010070BD0E
:1013C0004FF0FF30704700BF00D0014000E0014007
:1013D00000F00140B0B00110C8B00110BCB0011065
:1013E00000F09AB800F0E8B800F0F6B800F012B9D2
:1013F00000F018B900F02EB900F038B900F03EB98D
:1014000000F044B900F046B900F04CB900F054B90E
:1014100000F0BEB900F0CCB9F8B5002857D00F469F
:10142000102115460446FFF7F1FF064608B1304685
:10143000F8BD236843F0010323602046FFF7DCFF7B
:101440002046FFF7DBFF02212046FFF7E3FF0621DE
:101450002046FFF7DDFFDFB123681E4A43F0020399
:10146000944223602FD01C4B9C420FD003F5805335
:101470009C4214BF4FF0FF340224184B04EB440489
:1014800003EBC40301225A603046F8BD0124F4E79F
:101490003A4629462046FFF72DFF0E4B9C4209D0C5
:1014A00003F580539C4210D00D4FBC4214BF4FF047
:1014B000FF370227094B07EB470103EBC10300226B
:1014C0005A603046F8BD3446D7E70127F2E74FF0BF
:1014D000FF36ACE700D0014000E00140E00F002003
:1014E00000F001400346A0B16AB9B1F5806F0DD29A
:1014F0007F29C26484BF4FF40042C264C26C0A43B5
:101500000020DA6470476FF0100070476FF002003F
:1015100070474FF0FF30704700283FD010B4214A89
:10152000A1F574236FF410742344934213D31E4B1C
:1015300099422FD81D4B1B685B08B3FBF1F35B0886
:101540009A1EB2F5FF7F03F1FF3323D8436310BC2B
:101550008363FFF747BF154B154C1B685B08B3FB54
:10156000F1F14A00A4FB01C14908A4FB0242013980
:1015700052080F2902F1FF320CDC0F2A0ADC0902A3
:1015800089B2D2B20A43C26302680A4942F40042F5
:101590000260D2E76FF0020010BC70474FF0FF30DE
:1015A000704700BF009F240040E133004017002037
:1015B000ABAAAAAA801A06000649436B826B086888
:1015C000C2F30802C3F3080313444008B0FBF3F06E
:1015D000704700BF40170020C8B1C1B1AAB100B523
:1015E000002301F1FF3E07E0C16A01335FFA81FC8D
:1015F0009A420EF803C005D041688907F4D5184611
:101600005DF804FB10465DF804FB104670474FF090
:10161000FF30704718B1006AC0F3032070474FF0E5
:10162000FF30704798B191B17AB1002301F1FF3CCE
:1016300006E001339A421CF80310C9B2C16204D01B
:101640004168C906F5D518467047104670474FF0F7
:10165000FF30704738B18369826AC3F30720C2F351
:101660000323C01A70474FF0FF307047C36943F03F
:101670008003C361C3691B06FCD47047436A43F00F
:1016800080034362436A1B06FCD470478160026199
:10169000704700BFC3680B43C36043691343436192
:1016A000704700BFC36823EA0103C360436923EAAC
:1016B00002034361704700BF002865D0036843F010
:1016C00001032DE9F04103600768036843F4806378
:1016D0000E46044607F480670360002943D00025C6
:1016E0002BE0FFF703FB236823F0800323600A202D
:1016F000FFF7FCFA236813F400784FF00A002BD1AF
:10170000FFF7F4FA236843F0800323600A20FFF711
:10171000EDFA23689A054FF00A001DD5FFF7E6FAA7
:10172000236843F0400323600A20FFF7DFFA2368B1
:10173000DB0525D40135AE4215D00A20FFF7D6FAD5
:10174000236823F0400323600A20FFF7CFFA2368C1
:10175000D9054FF00A00C4D52368013543F0C00312
:10176000AE422360E9D16FF008001FB9236823F46B
:1017700080632360236823F001032360BDE8F081C8
:101780004046002FF6D1F1E74FF0FF30704700BF21
:101790008269D2B28A42034607D3C26922F47062D8
:1017A00042EA01210020D96170476FF002007047C2
:1017B0008269C2F307228A42034607D3426A22F4AF
:1017C000706242EA01210020596270476FF0020006
:1017D000704700BF00F000B8D0F80031012223F0BC
:1017E0000103C0F80031C0F80027D0F80031DA0357
:1017F000FBD5D0F8003143F00103C0F80031D0F838
:101800000031DB03FBD5704708B5164B984210D06A
:10181000154B984214D0154B984218D0144B98424F
:101820001CD14420FFF780FB4420FFF7C1FA0020C1
:1018300008BD0B20FFF778FB0920FFF7B9FAF6E7A0
:101840000C20FFF771FB0A20FFF7B2FAEFE71C202C
:10185000FFF76AFB2120FFF7ABFAE8E76FF0020021
:1018600008BD00BF00200440003004400040044098
:101870000014084070B504460E461546FFF7C4FF35
:10188000A8BB022D2DD0042D18D0204B9C421BD07C
:101890001F4B9C422CD01F4B9C4230D01E4B9C4275
:1018A00023D11E48FFF784FB4420FFF7A1FA2A4604
:1018B00031462046BDE8704000F0F8B80620FFF73A
:1018C000B9FA124B9C42E3D11548FFF771FB09208E
:1018D000FFF78EFA2A4631462046BDE8704000F0F8
:1018E000E5B80520FFF7A6FACFE76FF0020070BD5C
:1018F0000C48FFF75DFB0A20FFF77AFAD7E70A48A2
:10190000FFF756FB2120FFF773FAD0E700200440D1
:1019100000300440004004400014084080B0011032
:10192000A4B0011098B001108CB00110314B984256
:1019300010B5044615D003F58053984211D003F535
:10194000805398420DD003F57533984206D1052394
:10195000022A436114D0042A32D08AB16FF0020007
:1019600010BD042AFAD0204600F0D8F80028F7DD90
:10197000236843F40043236023681B03FCD510BD98
:101980004FF4E103B3FBF1F301FB03F2C2F5E10213
:1019900013B1B2EB510F00D90133174A136110682C
:1019A00000F44030B0F5803F05D0136813F4403F99
:1019B000D4D14FF4E100104B1B69B0FBF3F0D5E735
:1019C000036843F4803303600368B1F5166F43F492
:1019D000001303600AD9002343614FF48033B3FB43
:1019E000F1F301FB03F2C2F58032D1E70123436139
:1019F000F3E700BF0020044000140840124B984257
:101A00001CD003F58053984218D003F580539842B8
:101A100014D003F57533984212D1036803F44033B0
:101A2000B3F5803F05D0036813F4403F08D14FF46D
:101A3000E103064A1069B3FBF0F0704700F0BAB852
:101A40006FF00200704700BF0020044000140840FF
:101A500000F0F0B800F00EB900F030B900F084B931
:101A600000F09EB900F008B800F012B800F0B6B966
:101A700000F0B8B900F0BCB910B504462046FFF735
:101A8000F5FF0028FAD02046BDE81040FFF7E6BF7A
:101A900038B504460D462046FFF7EAFF0028FAD085
:101AA00029462046BDE83840FFF7DABF1A4B984276
:101AB00070B504460D4616460BD003F58053984288
:101AC00007D003F58053984203D003F5753398424D
:101AD0001FD101212046FFF7CDFF00B170BD0821C5
:101AE0002046FFF7B5FF0028F8D101462046FFF752
:101AF000B3FF0028F2D101462046FFF7ABFF0028D4
:101B0000ECD1324629462046FFF710FF00EAE0708C
:101B100070BD6FF0020070BD00200440224B98425F
:101B20000BD003F58053984207D003F580539842B9
:101B300003D003F57533984232D10523012A10B43E
:101B4000436123D0022A14D01AB16FF0020010BCF6
:101B50007047164B1A685208B2FBF1F301FB1322CF
:101B600013B1B2EB510F00D9013310BC0361FFF781
:101B700045BF04684FF4E10344F40034B3FBF1F3D0
:101B800001FB03F2C2F5E1020460E9E70468084AD8
:101B9000B2FBF1F344F48034046001FB1322DFE76D
:101BA0006FF00200704700BF002004404017002083
:101BB000C06878041C4B98420BD003F580539842C0
:101BC00007D003F58053984203D003F5753398424C
:101BD00022D1036803F44033B3F5803F17D0036884
:101BE00013F4403F0CD0036803F44033B3F5003FD7
:101BF00008BF4FF4E10312D10069B3FBF0F0704766
:101C00000A4B00691B685B08B3FBF0F07047084B98
:101C10000069B3FBF0F070476FF002007047036893
:101C20006FF00200704700BF002004404017002002
:101C3000C06878040E4A904203460BD002F58052E9
:101C4000904207D002F58052904203D002F57532DF
:101C500090420AD10539032907D81A6822F4406254
:101C600042EA812200201A6070476FF0020070473C
:101C700000200440104B98420BD003F5805398424B
:101C800007D003F58053984203D003F5753398428B
:101C900008D151B1012905D1036843F48053036091
:101CA000002070476FF002007047036823F48053F0
:101CB00003600020704700BF00200440294B984279
:101CC0000BD003F58053984207D003F58053984218
:101CD00003D003F57533984241D104293FD8DFE89A
:101CE00001F0111724310300036843F0100303606F
:101CF000036843F020030360036843F0400303607C
:101D000000207047036823F0100303600020704731
:101D1000036843F010030360036823F020030360AB
:101D2000036823F040030360EAE7036843F010030D
:101D30000360036823F020030360036843F040035B
:101D40000360DDE7036843F010030360036843F0BA
:101D500020030360036823F040030360D0E76FF0C3
:101D600002007047002004400C4B98420BD003F552
:101D70008053984207D003F58053984203D003F56F
:101D80007533984204D14368DB0604D4006A704777
:101D90006FF0020070476FF00C00704700200440A5
:101DA0000D4A904203460BD002F58052904207D074
:101DB00002F58052904203D002F57532904205D16F
:101DC000586810F0800004D1196270476FF002006B
:101DD00070476FF00B007047002004404068C0F36C
:101DE000032070474068C0F30330C0F1080070471B
:101DF0000E4A904203460BD002F58052904207D023
:101E000002F58052904203D002F57532904209D11A
:101E10004A1E072A06D81A6822F00F021143002032
:101E2000196070476FF00200704700BF0020044047
:101E300010B5064C217831B905484FF4007202F014
:101E4000EFF801232370002010BD00BF28100020F0
:101E50002C1200200328F8B59ABF104B53F82050DD
:101E6000002507462846FFF7E5F9044601462846BF
:101E7000FFF7D4F98CB10A4E0A4D06EBC71605EBF5
:101E8000C715E30703D52B680BB130689847640882
:101E900006F1040605F10405F3D1F8BDE0B0011028
:101EA0002C1000202C1200200EB410B59DB06FF045
:101EB00000411FAB04910791094953F8042B02908C
:101EC0000690084C0868019302A9059400F014F8E4
:101ED000029B00221A701DB0BDE8104003B070478D
:101EE000B80500200802FFFF014B1868704700BFCB
:101EF000B8050020000000002DE9F04FDFB00C46CF
:101F0000099191460D93834602F04CF903681A93A8
:101F1000184603F055FB0822189000212EA802F065
:101F20007FF8A3891A0603D52369002B00F0908758
:101F30009FED7F7B0023CDE93333CDE91B33CDE922
:101F40001D338DED167B35AA13933292904619936B
:101F50000A93CDF81CB04D46079F2E46764BD3F81A
:101F6000E44002F019F903462EA8009032462AA94F
:101F70003846A047002800F0A980C0F29F802A9A26
:101F8000252A034601D01E44E8E7771B044640F0AB
:101F9000A08000238DF89F3099460B934FF0FF32BD
:101FA00073780892741C0134A3F120025A2A00F2BB
:101FB000C580DFE812F0EE02C300C300EA02C300EE
:101FC000C300C3006A00C300C30051026002C30023
:101FD0005C02FC02C300F8025B005B005B005B007C
:101FE0005B005B005B005B005B00C300C300C300E1
:101FF000C300C300C300C3004401C300D0011603E3
:10200000440144014401C300C300C300C300E6020D
:10201000C300C3006502C300C300C300FA01C300CC
:10202000D302C300C3000E07C300C300C300C30034
:10203000C300C300C300C3004401C300D0012C028D
:1020400044014401440196022C027F00C300AF0208
:10205000C300A0020307C1027F00C300FA017D0094
:102060000907C300C3003207C3007D00A3F130029B
:10207000002114F8013B01EB810102EB4101A3F1C6
:102080003002092AF5D90B918EE7079F384602F0F6
:1020900089F843681D93184603F092FA1E9006468D
:1020A000384602F07FF883681B93002E40F01E86AE
:1020B000237878E7237849F0200974E70822002183
:1020C0002EA801F0ADFF01231E4447E7771B04460D
:1020D00011D0349B3B443493339B0133072BC8E925
:1020E0000057339318DC08F108080A9B3B440A9315
:1020F000002C7FF44EAF349BDDF81CB0002B41F078
:10210000F381099B9B8903F04003002B41F0C383BB
:102110000A985FB0BDE8F08F0999079832AA03F0DA
:10212000A3FE0028EDD10DF1D408DEE7AFF3008067
:1021300000000000000000004C040020CDE90E3437
:10214000002BD8D000228DF8143101238DF89F2068
:1021500006930C929B46089214921092129245ADEF
:1021600019F0020302D006990231069119F0840792
:10217000349C05D10B9906980E1A002E00F3AA8004
:1021800082B10122C8F80420339A013201340DF1E2
:102190009F01072A34943392C8F8001000F3058495
:1021A00008F1080883B1339B28AA01330234C8F828
:1021B0000020072B4FF0020234943393C8F8042018
:1021C00000F3E78308F10808802F00F0C082089B25
:1021D000A3EB0B06002E00F3FF8219F4807F40F082
:1021E0001982339BC8F8005001335C44072BC8F8B0
:1021F00004B03494339300F36C8308F1080819F0A9
:10220000040F05D00B9B069A9D1A002D00F3DC836A
:10221000DDE90A3206998A42ACBF9B185B180A9323
:10222000002C40F01883002333930C9B1BB10C99B6
:10223000079803F0C5FA0DF1D4080F9D8CE6CDE99F
:102240000E340D9B073323F00703B3EC027B57ECEE
:10225000176B0D9327F0004323938DED227ADDE970
:1022600022ABB14B4FF0FF32504659468DED167BF5
:1022700008F040FC002840F04685AB4B4FF0FF32A1
:102280005046594608F018FC002840F03C850022D2
:1022900000233046394608F005FC002841F0518003
:1022A0009DF89F20A14DA24B29F080090E99472946
:1022B000C8BF1D46002303210C9306918B4608934B
:1022C000149310931293002A3FF44AAF069B0133F4
:1022D000069345E7102E339A41F37682954821956F
:1022E000CDE91F372146099D079C15904FF0100A34
:1022F000074604E0103E102E08F1080816DD0132F2
:102300001031072AC8E9007ACDE93321F2DD32AA7B
:10231000294620460DF1D40803F0A6FD002840F020
:10232000F086103E102EDDE93321E8DCDDE91F37B1
:10233000219D0C4601321599C8F800103444072A33
:10234000CDE93324C8F8046000F3CA869DF89F20C5
:1023500008F1080814E70D9A432BCDE90E3402F179
:10236000040403D019F0100F00F05C85082200214E
:1023700030A801F055FE0D9B07981A6845AD30ABAB
:10238000294601F09FFEB0F1FF3F834601F07E82B7
:1023900020EAE073069300220D948DF89F200C92A2
:1023A0000892149210921292DAE60D9E56F8045B8F
:1023B000CDE90E3400238DF89F30002D00F05785B5
:1023C0000E9B532B00F0B98619F01003129340F0C6
:1023D000B486089B5A1C01F0928012991A4628462E
:1023E00002F0FEFF0C90002801F0ED820C9B0D9690
:1023F000A3EB050B129B08932BEAEB71149310933C
:102400000C9373239DF89F2006910E935BE719F0C0
:10241000200FCDE90E3400F0EC800D9B073323F044
:1024200007031A46596852F8083B0D920A460029DC
:10243000C0F219840899013100F09C8253EA02012C
:1024400029F0800440F09782089A002A40F0988290
:10245000A14693465EAD51E10D9B53F8042B0B92C0
:10246000002A80F224840B9A0D9352420B92237817
:1024700049F0040997E52B238DF89F30237892E5E6
:10248000CDE90E3449F0100919F0200200F0B483B0
:102490000D9B073323F0070319465A6851F8083B90
:1024A0000D9129F4806400210020089D8DF89F0083
:1024B0006F1C00F00C8153EA020024F0800940F008
:1024C0000581002D40F02786002940F0C88314F0D4
:1024D000010B00F0F08330238DF877310DF2771582
:1024E0000CE12378682B03BF637849F40079013449
:1024F00049F0400957E519F0200F0F9400F0E583EB
:102500000D9B0A9A1B681A60D2175A600D9B043300
:102510000D9392E623786C2B03BF637849F0200972
:10252000013449F010093EE5FFFFEF7FF0B00110E4
:10253000F4B0011044B101100D9A0F9452F8043B0D
:102540000D9247F63002ADF8A0207820A84A1992E3
:1025500049F00204002202210E90A5E7CDE90E34D5
:1025600049F0100414F0200200F055830D9B07334E
:1025700023F0070319465A6851F8083B0D910121D1
:1025800092E7237849F008090DE5237849F001091D
:1025900009E59DF89F202378002A7FF404AD2022CE
:1025A0008DF89F20FFE4237849F08009FBE4214661
:1025B00011F8013B2A2B01F02982A3F13002092AEC
:1025C0000C4698BF002101F2308114F8013B01EB69
:1025D000810102EB4101A3F13002092AF5D90891EA
:1025E000E2E449F0100919F0200FCDE90E347FF430
:1025F00014AF0D9A19F0100F52F8043B0D9240F0F1
:10260000608319F0400F00F0588343F3C032114645
:102610001BB20CE70E9B652B40F36681DDE91601CA
:102620000022002308F034FA002800F01182339BC6
:10263000704AC8F80020013301340122072B34947A
:102640003393C8F8042000F36B8508F10808299B30
:10265000139A934280F22683189B1A9A1C44C8E965
:102660000023339B34940133072B339300F3E4832B
:1026700008F10808139B5D1E002D7FF7C0AD102DDB
:10268000339B40F3AD855C4FDDF81CB0DDF824A032
:102690001597102605E008F10808103D102D40F3AD
:1026A000A18501331034072BC8E90076CDE9333416
:1026B000F1DD32AA5146584603F0D6FB002840F01F
:1026C000C082DDE933340DF1D408E6E74C46012938
:1026D00000F0518102295EAD1ED1199803F00F015F
:1026E0001B09415C05F8011D43EA0273120953EA14
:1026F0000201F3D15EABA146A3EB050B08999DF84F
:102700009F2059454FF00003B8BF59460C930691DE
:10271000149310931293D6E503F00701DB0843EA04
:102720004273D208303153EA0206284605F8011DEB
:10273000F2D1E607DED53029DCD03023023805F8A7
:10274000013C5EABA146A3EB000B0546D6E70B9B15
:10275000069A9E1A002E7FF73AAD102E339B41F356
:102760009F802548DDF81CA01590214610271A46A9
:10277000044604E0103E102E08F1080816DD013270
:102780001031072AC8E90047CDE93321F2DD099964
:1027900032AA50460DF1D40803F066FB002840F041
:1027A000B284103E102EDDE93321E8DC0C461346DE
:1027B0000133159AC8F800203444072BCDE933348F
:1027C000C8F8046000F31C85089BA3EB0B06002EE1
:1027D00008F108087FF701AD074A339B1592102EC8
:1027E0002ADD2246079F099C4FF0100A0BE000BF2C
:1027F00000B1011030B1011034B10110103E102EA3
:1028000008F1080817DD01338E491032072BC8E99B
:10281000001ACDE93332F1DD32AA2146384603F001
:1028200023FB002840F00C82103E102EDDE93332ED
:102830000DF1D408E7DC14460133159AC8F80020DE
:102840003444072BCDE93334C8F8046000F3C78162
:1028500008F10808C1E40999079832AA03F004FBBB
:1028600000283FF4E0ACDDF81CB0EAE1339B764988
:10287000C8F80010013301340121072B349433933D
:10288000C8F8041000F3738508F10808002A40F026
:10289000E584139A09F0010313433FF4B0AC189B8D
:1028A0001A9A1C44C8E90023339B34940133072B44
:1028B000339300F3438608F10808139AC8F80050D0
:1028C00001331444072BCDE93334C8F804207FF7D3
:1028D00094AC0999079832AA03F0C6FA0028C2D12D
:1028E000349C0DF1D4088AE4139B339E012B04F130
:1028F000010406F1010608F1080740F329810123CC
:10290000072ECDE93364C8F80050C8F8043000F34E
:10291000B181189B1A9A01361C44072EC7E900237F
:10292000CDE9336400F3B2810837139BDDE916016A
:1029300003F1FF380022002308F0AAF8002840F035
:102940002181013601354444072ECDE933643D60D1
:10295000C7F8048000F30A8108371C9B7B600136AE
:102960001C44072E2CABCDE933643B60B1DC07F18E
:10297000080844E44C460A2B72F1000180F05383AE
:1029800030338DF87731A1464FF0010B0DF27715FA
:10299000B4E60999079832AA03F066FA00287FF492
:1029A00062AF349C0DF1D4080EE409990798159391
:1029B00032AA03F059FA00287FF455AF349C159BD6
:1029C0000DF1D408FFF7EEBB102D339B40F3318798
:1029D0001E4FDDF81C90DDF824A01597102604E0AA
:1029E000103D102D08F1080816DD01331034072BB7
:1029F000C8E90076CDE93334F2DD32AA51464846C3
:102A00000DF1D40803F030FA002840F0E783103DC0
:102A1000102DDDE93334E8DC0133159A2C44072B03
:102A2000C8E90025CDE933347FF7F2AB099907985F
:102A300032AA03F019FA00287FF415AF349CFFF78F
:102A4000E7BB00BF34B1011030B1011044B1011037
:102A5000299A002A7FF70AAFDDE912739F42A8BFC7
:102A60001F46002F05EB030B0BDD339B01333C446A
:102A7000072BC8E900573494339300F3408608F1DC
:102A80000808129E002FA8BFF61B002E00F300823C
:102A9000129B19F4806F2B449A4640F02182299DA5
:102AA000139B9D4203DB19F0010F00F06E84189B0D
:102AB0001A9A1C44C8E90023339B34940133072B32
:102AC000339300F3738608F10808139BABEB0A06F7
:102AD0005D1BAE42A8BF2E46002E0DDD339BC8F80D
:102AE00000A001333444072BC8F8046034943393B6
:102AF00000F36E8608F10808002EA8BFAD1B002D5C
:102B00007FF77DAB102D339B40F36A83AD4FDDF82B
:102B10001CB0DDF824A01597102605E008F1080880
:102B2000103D102D40F35E8301331034072BC8E9AC
:102B30000076CDE93334F1DD32AA5146584603F030
:102B400093F900287DD1DDE933340DF1D408E7E7AE
:102B500019F0010F7FF4D3AE0123072ECDE93364C2
:102B6000C8F80050C8F804307FF7F7AE0999079805
:102B700032AA03F079F900287FF475AEDDE93364F9
:102B800035AFEAE6139B012B7FF7E7AE112B8D4B98
:102B9000159340F35783CDF82090DDF81CA0DDF8A5
:102BA00024B01025994606E00837A8F11008B8F1BE
:102BB000100F40F3458301361034072EC7E9009506
:102BC000CDE93364F0DD32AA5946504603F04CF9A2
:102BD000002840F09882DDE9336435AFE5E70999D4
:102BE000079832AA03F040F900287FF43CAE349CE9
:102BF0000DF1D408FFF7F1BA0D9951F8043B0D918E
:102C000019F010017FF44DAC19F0400000F0628320
:102C10009BB20A4645E40D9951F8043B0D9114F01E
:102C200010010BD114F0400003D00A469BB20121E1
:102C30003AE414F400721CBFDBB20246012133E413
:102C4000BB460C9B002B3FF45CAA0C99584602F043
:102C5000B7FD099B9B8903F04003FFF756BADDF8E7
:102C600020B05EAD4AE55B4262EB42024C462D204D
:102C700001211AE40999079832AA03F0F5F800280F
:102C80007FF4F1ADDDE9336435AF42E60999079889
:102C900032AA03F0E9F800287FF4E5ADDDE93364FA
:102CA00035AF42E619F0010F3FF4A9AAD4E40D9321
:102CB0002378FFF778B95EAD20E519F4007F40F086
:102CC0007383DA171146FFF7B2BB19F0100F40F00B
:102CD000B18219F0400F40F0618319F4007F00F0D9
:102CE000A9820D9B0A9A1B681A700FE41B9A23781D
:102CF000002A3FF458A91278002A3FF454A949F455
:102D00008069FFF750B9DDE9160102460B4607F06E
:102D1000F1FE002840F00D860E9B612B00F004852B
:102D2000412B00F08085089B013300F015840E9B39
:102D300023F02003472B04D1089B002B08BF01235D
:102D40000893DDE9160149F4807200291592CDF847
:102D500018904FF00003C0F21F85CDE924011F93A6
:102D60000C930E9B413B252B00F22683DFE813F0EA
:102D7000FF03240324032403F803FC032403240394
:102D8000240324032403240324032403240324030B
:102D900024032403240324032403240324032403FB
:102DA00024032403240324032403240324032403EB
:102DB0002403240324032403F803FC03CDE90E3485
:102DC000FFF762BB34B10110CDE90E344C46FFF77A
:102DD000C9BBCDE90E34BD4B199319F0200200F0A8
:102DE00008810D9B073323F0070319465A6851F8F1
:102DF000083B0D9119F0010F0AD053EA020107D0E8
:102E00000E998DF8A110302149F002098DF8A0101B
:102E100029F480640221FFF747BBCDE90E34AC4BA7
:102E20001993DAE70D9B1B688DF814310123069383
:102E30009B4645ADFFF7AFBA0999079832AA03F050
:102E400013F800287FF40FAD349C0DF1D40811E481
:102E50004021584600F020FE099B186018610028A8
:102E600000F01086099A40235361FFF761B8089B70
:102E70000C95062B294628BF062308952A4606935B
:102E8000944D0D969B46149110911291FFF71BBA29
:102E9000102E339B40F3E7858F48DDF81CA015907A
:102EA00042462146A846099C1027054604E0083200
:102EB000103E102E40F3238201331031072BC2E95C
:102EC0000057CDE93331F2DD32AA2146504602F0F7
:102ED000CBFF002840F01781DDE9333135AAE7E761
:102EE00021461C46109BCDF820B0CDF838904246C4
:102EF000794FDDF85090DDF87880DDF86CA0DDF8D2
:102F00001CB083B3B9F1000F00F0FF8009F1FF3965
:102F100033981D9B013041440728C2E900383491A1
:102F2000339075DC0832089B9AF800001E1B86421D
:102F3000A8BF0646002E0CDD339801303144072827
:102F4000C2E900463491339000F367819AF800009B
:102F50000832002EACBF851B0546002D13DC04444F
:102F6000109B002BCED1B9F1000FCFD1DDF820B0EE
:102F7000CDF86CA0A246DA45DDF8389090460C46B4
:102F800028BFDA468BE5102D339840F33C85234665
:102F90003E462C461D4604E0103C102C02F108026F
:102FA00016DD0130103110230728CDE933011760F9
:102FB0005360F1DD099932AA584602F055FF002806
:102FC0007FF43FAE103C102CDDE9330135AAE8DC7C
:102FD0002B4625461C46013029440728CDE93301FC
:102FE0001660556000F37D839AF8000008320444AF
:102FF000B6E70D9951F8043B0D9119F010017FF4DB
:10300000F9AE19F0400000F05F819BB20A46F1E68C
:10301000099932AA584602F027FF00287FF411AE22
:10302000349935AA7FE704F4806B0021CDF8308015
:10303000DFF8A890DDF86C8006945EAD4FF0CC3AD6
:1030400005278C465E4605E00A2B72F1000233D359
:103050005B462246991841F10001A9FB010424F0C6
:10306000030000EB9400091A581A62F1000E0AFBE3
:1030700000F4A0FB09B009FB0E440BF0010E044460
:10308000AEFB070E40184FEA5B0B303005F8010C21
:103090004BEAC47B0CF1010C013D6408002ED3D037
:1030A00098F800108C45CFD1BCF1FF0FCCD00A2B83
:1030B00072F1000280F03681CDF86C80069CDDF85C
:1030C0003080CDF84CC0FFF715BB00BF14B1011024
:1030D00000B1011028B1011034B10110CDCCCCCC1D
:1030E00009990798159332AA02F0BEFE00287FF4D2
:1030F000BAAB9DF89F20349C159B0DF1D408FFF7C7
:103100003FB8A3469DE5D3469BE5109B013B0AF1E2
:10311000FF3A1093FCE601294C467FF4DBAA2FE42A
:103120000999079832AA02F09FFE00287FF49BAB12
:10313000349C0DF1D408FFF78ABA30AF0822002181
:1031400038462B9500F06CFF089B581C00F0C98096
:103150000024CDF81890A346DDF81C909A460CE0A8
:1031600045A9484600F0AEFF411C584400F08E834C
:10317000504508DC00F0418483462B9A12593B46A7
:103180000434002AECD1DDF81890BBF1000F00F0F8
:10319000DD80BBF1630F00F3B98100230C9345ADD3
:1031A00008220021384600F03BFF079800975B4655
:1031B0002BAA294601F082F8834540F05A84002367
:1031C00005F80B302BEAEB719DF89F200D960893C4
:1031D0000691149310931293FFF775B8CB4630E520
:1031E000744A15920133159AC8F800202C44072B15
:1031F000C8F80450CDE933347EF7FFAFFFF769BB61
:103200000999079832AA02F02FFE00287FF42BAB11
:10321000349C0DF1D408FEF7DABF099932AA58465A
:1032200002F022FE00287FF40CAD9AF800003499D9
:1032300035AA8EE60D9B0A9A1B681A60FFF766B9DD
:10324000DDF82090159B3B6001364444072ECDE904
:103250003364C7F804807FF77FAB87E4189B1A9923
:103260001C44C8E90013339B34940133072B339378
:1032700000F3648108F10808002ABFF61EAB56422D
:1032800010324C4A159280F2E782AA461027154662
:1032900005E008F10808103E102E40F3DC820133EF
:1032A0001034072BC8E90057CDE93334F1DD099913
:1032B000079832AA02F0D8FD00287FF4D4AADDE9ED
:1032C00033340DF1D408E6E719F400721CBFDBB209
:1032D00002468FE519F400721CBFDBB20246FFF70D
:1032E000E0B80023079800972BAA194600F0E6FFE4
:1032F000B0F1FF3F834600F0C9822B9545E7454674
:103300000C4690460133159AC8F800203444072B28
:10331000CDE93334C8F8046000F3038108F10808EC
:10332000FFF7B6BB1E9B1D99ED1A1A46284602F000
:1033300045FB98F801300BB108F101084FF0000C83
:1033400086E62D228DF89F20FEF7ACBF9DF89F20CA
:103350000D96CDF818B0CDF820B0CDF850B0CDF81E
:1033600040B0CDF848B0CDF830B0FEF7ACBF099909
:10337000079832AA02F078FD00287FF474AA299AEF
:10338000349C0DF1D408FFF781BA139BABEB0A060E
:103390005D1BAE42A8BF2E46FFF7AEBB0D9B0A9A3F
:1033A0001B681A80FFF7B2B843F3C01211465BB234
:1033B000FFF73DB834B10110089E0223CDE9003675
:1033C00030AB04932BAB039329AB02930798DDE951
:1033D000242301F015F80E9B672B054600F03B8176
:1033E0000E9B472B00F037810E9B23F02007462FC2
:1033F00000EB060405D10378302B00F0F182299E02
:103400003444DDE924010022002307F041FB0028B9
:1034100000F03F8123465B1B1393299A1292472F9A
:1034200000F02181462F00F0E3810E99531E61299F
:10343000299300F01683412940F02081502101207A
:10344000002BB6BFC2F101032B222D22092B8DF8D0
:10345000B0108DF8B12040F327820DF1C704AE4EB5
:1034600022461046A6FB0312D20802EB8201A3EB10
:103470004101303100F8011C19466329134600F15F
:10348000FF32EEDC303302F8013C831EA34280F0B1
:10349000ED820DF1B10213F8011B02F8011FA342E6
:1034A000F9D15EAB181AA0F1AD031C93139B1C9AC3
:1034B000012B03EB020B40F32A82189B9B44069BD3
:1034C00023F4806343F480792BEAEB720023149396
:1034D0000692109312931F9B002B40F0D3809DF80F
:1034E0009F200893FEF7EFBE099C32AA214658465A
:1034F00002F0BAFCA38903F04003FEF706BE28469B
:103500000D9602F05DF88346FEF774BF07980BF145
:10351000010100F0C1FA0546002800F0B7810C90C7
:103520003EE60999079832AA02F09EFC00287FF433
:103530009AA9349C0DF1D408FFF7AABA0999079803
:1035400032AA02F091FC00287FF48DA9DDE9333422
:10355000299A0DF1D4088FE606230893FFF7F1BBF3
:10356000089B5E1C022329E7089E032326E729AA5D
:10357000DDE9240102F090F800224FF07F5307F0BC
:103580001FF802460B46CDE910230022002307F066
:103590007FFA002840F0C081604B1293089BCDF861
:1035A0004C8003F1FF392E461495DDF848B04D46A6
:1035B000DDE9108905E00022002307F069FAF0B97F
:1035C0003D46574B00224046494606F0F9FF8946E2
:1035D000804607F0A5FA044606F088FF0B4602462F
:1035E0004946404606F034FE1BF80430B24606F861
:1035F000013B6B1C05F1FF3780468946DBD1CB468A
:103600005746C246474BDDF84C800022504659468B
:10361000A946149D07F064FA002840F05381414BFD
:1036200050465946002207F033FA10B1E20700F184
:103630004981B9F1000FC0F25F8109F10103334400
:10364000302206F8012BB342FBD15B1B13930E9B78
:1036500023F02007E1E6069BDB0700F1F980309BB1
:10366000299A5B1B1393D31C129202DB089B934293
:103670001BDA0E9B023B0E93531E29939DF83810C4
:103680000020DDE62D2200238DF89F200893FEF711
:103690001DBE309BA342BFF4BEAE30215A1C3092F7
:1036A0001970309B9C42F9D8B5E613998A42C0F252
:1036B000C480069BDE0740F18481189B02EB030B5C
:1036C000069B5C0502D5002A00F34D812BEAEB73C3
:1036D0000693DDF8549067230E9300231493109300
:1036E000F9E6099932AA584602F0BEFB00287FF499
:1036F000A8AA9AF80000349935AA044430E409993C
:10370000079832AA02F0B0FB00287FF4ACA8349CE2
:103710000DF1D408FFF7B5B9CDCCCCCC14B1011064
:10372000000030400000E03F78238DF8A1303023C6
:103730008DF8A03049F002030693089B632B00F339
:10374000DD8000230C9345AD49F481731593179BDD
:10375000002B22DB9DED167B8DED247B00231F9338
:103760000E9B612B7FF4FDAA29AADDE9240101F05B
:1037700093FF00224FF07F5306F022FF02460B46D4
:10378000CDE910230022002307F082F9002840F041
:10379000C380A84B129301E70C93DDE9161202F1E6
:1037A000004325932D2324911F93D9E70999079866
:1037B00032AA02F059FB00287FF455A8299D349CB9
:1037C0000DF1D408FFF781B99B491591FEF7B2BD01
:1037D0000999079832AA02F047FB00287FF443A812
:1037E000299D139B349C5D1B0DF1D408FFF784B910
:1037F000069B1299089A03F00103002943EA020389
:1038000040F30F81002B40F0D5806623DDF848B0EF
:103810000E93069B5A0500F1A8802BEAEB73DDF8A6
:103820005490069359E758237FE700220892FEF749
:10383000BBBB814A1592FFF7EFB8139B189A03EBB5
:10384000020B129B002B40F3838067230E93E0E76B
:10385000AC194727D5E555460133159AC8F800201D
:103860003444072BCDE93334C8F804607FF723A82C
:103870000999079832AA02F0F7FA00287EF4F3AF0C
:10388000DDE933340DF1D408FFF717B8099A9389AD
:1038900043F0400393814FF0FF330A93FEF738BCA7
:1038A000664A1592FEF784BF00283FD130228DF87A
:1038B000B2200DF1B302303302F8013B2CABD31A26
:1038C0001C93F3E5129B3097D97B16F8012C8A42A2
:1038D000334609D1302003F8010C309B5A1E309238
:1038E00013F8012C9142F6D0392A0BBF129A0132FB
:1038F000927AD2B203F8012C3346A6E60798591CF7
:1039000000F0CAF805460028C0D00C901CE7069BC2
:10391000DF077FF5D4ADD0E5494B464A0E996129C2
:1039200018BF1A4601231292299337E60DF1B2020D
:10393000C1E7179B434D002BB4BF2D229DF89F205C
:10394000414BB8BF8DF89F2029F08009FEF7AEBC2F
:10395000C3F101039B442BEAEB7306936723DDF865
:1039600054900E93B9E667230E931B990B78FF2BA7
:1039700000F08C800024129A204603E001300131CF
:10398000FF2B08D0934206DAD21A4B78002BF5D1E0
:103990000B780134F4E71B91109014941292DDE936
:1039A0001439109A13441E9A02FB03BB2BEAEB73E3
:1039B000069390E5189BCF183A44662393460E93DE
:1039C00027E793467CE6089B06939B4673239DF866
:1039D0009F200D960890149010900E93FEF773BCE4
:1039E000DDE924010022002307F052F800287FF4CB
:1039F00006ADC6F10106299602E5DDF81890DDF85E
:103A000020B0FFF7C2BB0D4EFFF7E5BA0D9A637801
:103A10000C4652F8041B0D9241EAE1710891FEF741
:103A2000C2BADDF854908BB90123662206930E9238
:103A30009B4652E600B1011044B1011034B10110AF
:103A400014B10110F8B00110FCB00110189B5F1CFC
:103A5000089B3B449B4623EAE373069366230E933D
:103A60003BE67021EBE40B4A15924BE402231C93D6
:103A70001CE5099ADDF81CB0938943F0400393815B
:103A8000FFF7DFB80C23CBF8003004E700231493D2
:103A9000109384E734B101102DE9F04F01F10B05CB
:103AA000162D85B0064624D8102900F2B18000F00A
:103AB000F3FB102518234FF0020CBA4F3B44A3F13F
:103AC00008025C68944200F022816368E268A168A1
:103AD00023F00303CA602344304691605A6842F0E1
:103AE00001025A60083400F0DDFB204605B0BDE855
:103AF000F08F35F0070500F18B80A94200F2888035
:103B000000F0CAFBB5F5FC7FC0F073816B0A00F0D2
:103B10008380042B00F22281AB0903F1390C03F1FD
:103B2000380E4FEACC039F4F3B44A3F108005C687A
:103B3000A04207D10DE0002AE16880F2E2808842CD
:103B400007D00C46636823F003035A1B0F2AF2DDEB
:103B5000F446DFF864823C69444500F0BF80636846
:103B600023F00309A9EB05030F2B00F34781002B7A
:103B7000C7E9048880F23181B9F5007FD7F804E005
:103B800080F0CC804FEAD90101314FEA5919012365
:103B900003FA09F357F83120A2604EEA030E07EB4F
:103BA000C103083BE360C7F804E047F83140D46044
:103BB0004FEAAC0301209840704534D810EA0E0F4C
:103BC00007D12CF0030C400010EA0E0F0CF1040C8E
:103BD000F9D007EBCC0A5246E146D1680EE04B68BB
:103BE00023F00303A3EB050EBEF10F0F0C46C968CB
:103BF00000F3C180BEF1000F80F2E2808A42EED174
:103C000009F1010919F0030F02F10802E5D121E1E0
:103C10000C233360002468E74FF400734FF0400C2E
:103C20004FF03F0E7FE7BC68636823F00309A945A6
:103C300003D3A9EB05030F2B53DC5B4BDFF87CB1FF
:103C40001B68082003F1100800F0B0FADBF8003020
:103C500001900133A84404EB090205D008F1FF38B4
:103C60008044434203EA080841463046029201F08C
:103C70002FFFB0F1FF3F029A824600F0DC808242C3
:103C800000F2D780494B01991868404401F1FF3197
:103C90001860844640F0FC801AEA010F40F0F8807A
:103CA000D7F808A0C84448F00102CAF80420404BE5
:103CB0001968814238BF18603E4B1968814238BF8D
:103CC0001860544622F00308A845A8EB050301D369
:103CD0000F2B06DC304600F0E5FA9BE7D7F804E04E
:103CE00066E7621943F0010345F00105656030465F
:103CF000BA60536000F0D6FA0834204605B0BDE83B
:103D0000F08FA2682344D16030468A60E6E6DC6822
:103D1000A3427FF4DAAE0CF1020C1AE7B9F5206F7A
:103D20004FEA59227ED3142A00F2158102F15C0376
:103D3000DB005B32F918FB580839994203D1F0E0F7
:103D40009B68994204D05A6822F003024A45F7D88A
:103D5000D968C4E902318C60DC6029E7142B6DD985
:103D6000542B00F201812B0B03F16F0C03F16E0E4B
:103D70004FEACC03D7E63046A668621945F0010544
:103D80006560F1608E604EF00101C7E90422C2F85F
:103D90000880C2F80C80516044F803E000F082FA19
:103DA0000834A2E6400000205C1400202C140020FF
:103DB000581400205414002048000020380000202F
:103DC000234430465A6842F001025A6054F8083FD2
:103DD000D9608B6000F066FA87E6A1443046D9F8D6
:103DE000043043F00103C9F80430083400F05AFAF3
:103DF0007BE64FEAD50C05F108035EE6621943F055
:103E0000010145F0010565603046C7E90422C2F8AA
:103E10000880C2F80C80516044F8093000F042FA82
:103E2000083462E64FEA991202F13903DB003832B6
:103E300080E7BC4224D0BC68626843E703F15C0CB5
:103E400003F15B0E4FEACC036DE65AF8083953458F
:103E500040F0D8801CF0030F0CF1FF3CF5D17B68DB
:103E600023EA00037B60400098423FF6DCAE18B9BD
:103E7000D9E6400009F104091842FAD0CC46A8E678
:103E8000614B0199186808EB000C0139C3F800C0B8
:103E9000DBF8000001301BBFAAEB02026244CBF842
:103EA00000A01A601AF00702CDE9022342D0C2F145
:103EB0000802019B9244D044134408EA01001A1AF4
:103EC00002EA010B5946304601F002FE421C039BF8
:103ED0007AD0A0EB0A0000EB0B081868C7F808A01E
:103EE00048F001025844BC42CAF8042018603FF46C
:103EF000DEAEB9F10F0F42D96168A9F10C0222F0D0
:103F0000070201F0010111436160A1184FF0050C97
:103F10000F2AC1F804C0C1F808C04AD8DAF8042052
:103F2000C5E69210012000FA02F24EEA020EC7F82E
:103F300004E00EE7019B0AEB08020A409A1A02EA23
:103F4000010B5946304601F0C3FD431C039BC0D111
:103F5000DDF808B0C1E7542A15D84FEA193202F14A
:103F60006F03DB006E32E5E6B3F5AA7F15D8EB0BE5
:103F700003F1780C03F1770E4FEACC03D3E501236C
:103F8000CAF80430A6E6B2F5AA7F25D84FEAD9329E
:103F900002F17803DB007732CCE640F254529342D0
:103FA00025D8AB0C03F17D0C03F17C0E4FEACC035A
:103FB000B9E5304604F10801019301F001FC019BD1
:103FC000D7F808A01868A9E7029A083A9044A8EB25
:103FD0000A084FF0000B80E740F254539A420DD884
:103FE0004FEA994202F17D03DB007C32A2E64FF4F6
:103FF0007E734FF07F0C4FF07E0E94E54FF47E738E
:104000007E2297E67B682EE72C140020024B13B12A
:10401000024800F04DB970470000000061410110F6
:10402000830730B547D0541E002A3ED0CAB203469B
:1040300001E0013C39D303F8012B9D07F9D1032C92
:104040002CD9CDB205EB05250F2C05EB054535D94F
:10405000A4F1100222F00F0C03F1100EE6444FEA17
:10406000121C1A46156055609560D5601032724575
:10407000F8D10CF1010214F00C0F03EB021204F062
:104080000F0C13D0ACF1040323F0030304331344E7
:1040900042F8045B9A42FBD10CF003042CB1C9B284
:1040A0001C4403F8011B9C42FBD130BD64461346FF
:1040B000002CF4D1F9E703461446C0E71A46A4469B
:1040C000E0E700BF70B5054684B05BB11C460F4BFE
:1040D000D3F8E060234669B12846B047431C0FD0AF
:1040E00004B070BD094B00F58274D3F8E06023463C
:1040F0000029F1D10A46284601A9B047431CEFD157
:1041000000228A2322602B6004B070BD4C04002082
:1041100070B50F4B0F4DAB42A3EB050607D0B610A1
:10412000002455F8043B01349847A642F9D807F01B
:10413000E3F9094D094B5E1BAB424FEAA60606D0D8
:10414000002455F8043B01349847A642F9D870BDC5
:10415000EC060020EC060020EC060020F40600200F
:1041600038B5074D074C2C1BA41005D0013C55F861
:10417000043D9847002CF9D1BDE8384007F0C2B99A
:10418000F8060020F4060020704700BF704700BF0B
:10419000704700BF704700BF014B93F8280170477C
:1041A0004C040020004870473C050020082802D13C
:1041B0004FF48050704708B5FDF796FE1623036054
:1041C0004FF0FF3008BD00BF0FB400B5074983B002
:1041D00004AB086853F8042B8168019301F0C8FE12
:1041E00003B05DF804EB04B0704700BFB8050020D1
:1041F00070B5054688B008460C4601F0E1F9214E3D
:104200006A6B059001214318CDE9066104A80221DB
:1042100004940393AC6801900291002A2ED0626E40
:10422000B4F90C30D60701D4980521D5990406D4E9
:10423000626E43F4005322F40052A3816266284662
:1042400001AA214601F056FC636E00280CBF0A2526
:104250004FF0FF35DA0702D4A3899B0502D5284623
:1042600008B070BDA06DFFF795FF284608B070BD7F
:10427000A06DFFF78DFFB4F90C30D7E7284601F0A9
:1042800085F8CCE798B10110024B01461868FFF79A
:10429000AFBF00BFB80500200148FFF779BF00BFDE
:1042A000641400200148FFF775BF00BF64140020AC
:1042B000002301461A46184604F01EBD10B582B010
:1042C000049CCDE900344FF0FF3305F0A7FB02B0AA
:1042D00010BD00BF2DE9F04F03690C69A34283B004
:1042E000C0F28A80013C01F1140500F1140855F870
:1042F000243058F8242001339A428E4681464FEAF2
:10430000840105EB840708EB840AB2FBF3F63AD389
:10431000CDE900150022AC46404613465CF8041B6C
:1043200005681FFA81FB06FB0B22090C4FEA124BB2
:1043300006FB01BB92B2A9B2891A19441FFA8BF38A
:10434000C3EB214303EB154389B241EA03416745BF
:1043500040F8041B4FEA1B424FEA2343DED2DDE95B
:10436000001558F8013073B9AAF1040AD04504D3F6
:1043700007E0D04504F1FF3403D25AF80439002B8A
:10438000F7D0C9F810407146484605F061F9002899
:104390002EDB4146002255F8040BD1F800C01FFA6D
:1043A00080FE1FFA8CF3A3EB0E031344020CC2EB46
:1043B000234202EB1C429BB243EA0243AF4241F864
:1043C000043B4FEA2242E6D258F8242008EB84034B
:1043D0006AB9043B984504D307E0984504F1FF34DB
:1043E00003D253F80429002AF7D0C9F81040013647
:1043F000304603B0BDE8F08F002003B0BDE8F08F79
:104400002DE9F04F816B9DB016461F46CDE904673C
:10441000299D029049B1C26B4A6001239340044632
:104420008B6004F0B3FE0023A363B7F10009B4BFAF
:10443000012300232B60764BBCBF29F00049CDF847
:10444000149033EA090300F0AA809DED047B00225A
:1044500051EC170B00238DED067B06F019FB80460F
:1044600068B1289A012313602A9B13B12A9A694BD9
:104470001360694B039303981DB0BDE8F08F1AAB2E
:1044800001931BAB00930298DDE9062305F0B4F914
:104490005FEA1955824640F09880DDE91A85454467
:1044A00005F23243202B40F38183C3F1400309FA24
:1044B00003F905F2124326FA03F349EA030006F072
:1044C00005F80123013D0F93A1F1F871534B002230
:1044D00005F0BEFE48A3D3E9002306F071F848A317
:1044E000D3E9002305F0B6FE064628460F4605F040
:1044F000FDFF45A3D3E9002306F062F802460B4610
:104500003046394605F0A6FE06460F4606F008FB83
:104510000022834600233046394606F0C3FA0028BD
:1045200040F01883A8EB0508BBF1160F08F1FF3423
:1045300000F28A813A4D05EBCB05D5E90023DDE990
:10454000060106F0AFFA002870D00023002C0BF112
:10455000FF3B0E93C0F27D8100230993BBF1000F56
:104560006ADA099BA3EB0B030993CBF10003CDE9B6
:104570000CB3269B092B4FF0000B65D8052B40F39D
:104580001A83043B26930025269B023B032B00F253
:104590002186DFE813F05E045B0452043604289A97
:1045A000C9F3130942F20F7359EA060913601CD1CB
:1045B0002A9B002B00F029861A4B039308332A9A72
:1045C000039813601DB0BDE8F08FDDE90612C2F359
:1045D0001303084643F07F51CDF83C80A5F2FF3528
:1045E000DDF8688041F4401170E72A9B002B40F011
:1045F000E5830D4B03933EE761436F63A787D23F8B
:10460000B3C8608B288AC63FFB799F501344D33FC1
:104610000000F07F31B1011030B101100000F83F0F
:1046200030B401109CB10110A8B10110B8F1000F15
:1046300040F35E840E90099000230D93269BCDF8E5
:1046400030B0092B5C4499D90023CDE926330125EC
:104650004FF0FF330A950893029B0021D963089B12
:104660001693029804F06CFD0390002800F0BB85BF
:10467000DDE902329A63089B0E2B00F21481002DB3
:1046800000F011810C9A002A40F33984B14D02F0F8
:104690000F0305EBC3031511D205D3E9008940F1DF
:1046A000F983AD4BDDE90601D3E9082306F0B2F842
:1046B000CDE9100105F00F0503277DB1A64EEB07EC
:1046C00008D540464946D6E9002305F079FF013771
:1046D000804689466D1006F10806F0D142464B46E9
:1046E000DDE9100106F096F8804689460E9B43B13D
:1046F0009A4B00224046494606F0D4F9002840F083
:10470000F084384605F0F2FE42464B4605F058FF6D
:10471000934B002205F09EFD089B0646A1F15077C1
:10472000002B00F0A9800C9B1793089B1093039B10
:10473000884D49464046CDE912675E1C06F0F0F907
:10474000109905EBC10313ED027B07468DED147B39
:1047500005F0CCFE02460B464046494605F078FD82
:1047600089460A993037DDE914238046FFB20029D3
:1047700000F052847B49002006F04CF8DDE912235A
:1047800005F066FD039D02460B46CDE912232F700E
:1047900042464B4606F0A4F9002840F09684CDE945
:1047A00018B4CDF850A0109DDDE912AB00272AE027
:1047B0000137AF4280F2DD846B4B504659460022F0
:1047C00005F0FEFE684B002282468B464046494675
:1047D00005F0F6FE8946804606F0A2F9044605F08B
:1047E00085FE02460B464046494605F031FD303411
:1047F00006F8014B52465B468046894606F052F960
:10480000002840F0B38442464B465449002005F04E
:104810001FFD52465B4606F045F90028C8D0179B9D
:10482000DDF850A0039A374603F1010802E09742F1
:1048300000F07B843E4617F8013D392BF7D0013359
:10484000DBB23B70454674E10123002C0E93BFF6AA
:1048500083AEC8F10103099300247FE6384605F0D2
:1048600045FE42464B4605F0ABFE3D4B002205F0AF
:10487000F1FC0646A1F150773C4B404649460022E8
:1048800005F0E6FC32463B468046894606F028F9AC
:10489000002840F0598440464946324607F100431B
:1048A00006F000F928BB1B9B002BC0F291800C9AEC
:1048B0000E2A00F38D80274D0C9B05EBC30595ED6B
:1048C000007B279B002B8DED047B19DA089B002BC6
:1048D00016DC0ED1254B0022DDE9040105F070FE47
:1048E00002460B46DDE9060106F0E6F8002800F076
:1048F0002B844FF00009039E4F46279BDD4324E2A3
:10490000DDE90445DDE9068922462B464046494655
:1049100005F080FF06F004F9064605F0E7FD2246A3
:104920002B4605F04DFE039F0B4602464946404686
:1049300005F08EFC06F1300307F8013B089B012BC4
:1049400000F011830125CDF818A09946DDE904ABEC
:10495000A8462BE030B4011008B401100000F03F6D
:1049600000001C400000E03F000024400000144014
:1049700052465B462046294605F04CFF06F0D0F82B
:10498000064605F0B3FD52465B4605F019FE08F1F8
:1049900001080B4602462946204605F059FC06F15F
:1049A0003003C84507F8013B00F0DB82B94B002219
:1049B00005F006FE0022002304460D4606F068F8C6
:1049C0000028D5D00C9DDDF818A001353E46B0E09A
:1049D0000A9A002A40F0D28000230D9D099E0A9376
:1049E0001F4656B1002C08DDA642099A3346A8BFDF
:1049F0002346D21A0992F61AE41A0D9B53B10A9B68
:104A000013B1002D40F0E88251460D9A029804F04F
:104A10004DFD82460298012104F064FC8146BBF101
:104A2000000F40F0B681269B012B40F3CC81012082
:104A3000204410F01F0000F09A80C0F12003042BE6
:104A400040F3DA81099BC0F11C000344099306443A
:104A50000444099B002B05DD514602981A4604F0D8
:104A60007FFD8246002C05DD49460298224604F06F
:104A700077FD81460E9B002B40F07081089B002B38
:104A800040F348810A9B002B40F0A4800C9D013527
:104A9000DDF80C80089CDDF808B0012607E05146DF
:104AA00000230A22584604F07BFB01368246494621
:104AB0005046FFF70FFCA64200F1300308F8013B17
:104AC000EDDB089A002AC8BF1646039AD8BF012614
:104AD00002EB060B0024514601220298049304F0D5
:104AE0003FFD4946824604F0B3FD002840F3E381D0
:104AF000039A02E05A4500F0E9815E460BF1FF3B64
:104B000016F8013C392BF5D001338BF80030DDF875
:104B100008804946404604F039FB57B12CB1BC42ED
:104B200003D02146404604F031FB0298394604F098
:104B30002DFB0298514604F029FB00233370289B7B
:104B40001D602A9B002B3FF496AC03981E601DB09D
:104B5000BDE8F08F584605F0C9FC32463B4605F0EB
:104B600097FF00287FF4DEAC0BF1FF3BDAE41C2357
:104B7000099A1A4409921E441C446AE7269A012A9B
:104B800040F3A981089B0D9A5D1EAA42C0F26B8179
:104B9000002BA2EB050580F2DD82DDE908239E1AD9
:104BA0000298012104F09EFB07461AE7C3F1200397
:104BB00006FA03F083E40125E6E43946002302986F
:104BC0000A2204F0EDFA169B002B074640F3EF8211
:104BD0000C950893002E00F33F81BBF1000F40F0CD
:104BE000DF81B846039E089C731E1C44049B0A94F4
:104BF00003F00103029C0D9349465046FFF76AFB00
:104C000039468346504604F023FD42464946054650
:104C1000204604F03FFDC26801460BF13003002A34
:104C20003AD1CDE90803504604F012FD08990690E8
:104C3000204604F0ABFA069A099B002A5AD1269A1C
:104C40001AB90D9A002A00F09A82002D45DB0A9AC3
:104C5000B346B2420BF8013B00F0B9815146002344
:104C60000A22204604F09CFA4745824639464FF016
:104C700000034FF00A02204636D004F091FA414674
:104C8000074600230A22204604F08AFA5E46804640
:104C9000B2E700BF000024400298069304F076FAC1
:104CA000002D069B06DB049A269902F001020D43B3
:104CB0002A432AD1514601220298049304F050FC61
:104CC0004946824604F0C4FC0028049B40F3E88077
:104CD000392B00F02F820BF131030C9D06F8013BBC
:104CE0003C460135474612E704F05AFA5E4607464D
:104CF000804681E7002DC0F27D8226990D430D99F3
:104D00000D4300F07782002AA1DD392B00F01282DA
:104D10000133E2E7269B022B7FF7B4AE089B002B02
:104D200040F01D8149460522029804F039FA0146F7
:104D30008146504604F08CFC002840F31081039E0D
:104D40000C9D312306F8013B013502984946013597
:104D500004F01CFA002F7FF4E8AEEAE6494650461C
:104D600004F076FC0028BFF689AE51460023029875
:104D70000A2204F015FA0C9B5D1E0A9B8246002B4A
:104D80007FF41BAF169B002B40F3FF810C9D089313
:104D90007EE601465A46029804F088FB269B012BCA
:104DA00081466CDD4FF0000BD9F8103009EB83031E
:104DB000186904F045FAC0F1200039E6924B0393DC
:104DC0000333FFF7FCBB049B002B7FF430AEDDE91F
:104DD0000412C2F31303002B7FF429AE8B4B134054
:104DE00023B1099B0133099301340123BBF1000F67
:104DF00040F0AE819B461AE63FF42BAEC0F13C0377
:104E0000B6E601230A93279B0C9A134416930133A9
:104E1000012B1E460893B8BF0126172E40F3D581FB
:104E2000012204235B0003F11400B042114602F199
:104E30000102F7D9029BD96313E401230A93279B4C
:104E4000002B33DD169308931E46E6E700230A93F2
:104E5000D9E700230A93F2E739460298324604F074
:104E60007FFB0746B9E60D9B099A0D95EB1A9B440B
:104E7000089B16461A441C440992002590E6049BA0
:104E8000002B8FD1DDE90401C1F313030A46002B87
:104E900088D1A3E79DED067B02278DED107B0CE406
:104EA0007FF41BAFDA077FF518AF11E701232793D3
:104EB0000893FFF7D1BB03D1049BDB073FF518AE86
:104EC0005E461BF8013D302BFAD020E6039A3123D1
:104ED000013513701BE60F9A002A00F0F98003F2E7
:104EE0003343099A0D9D16461A441C44099257E60D
:104EF000C8F10103044609930E90FFF79DBB00F033
:104F0000EB800C9B424D5E4206F00F0305EBC303A2
:104F1000D3E90023DDE9060105F052FB3511CDE9A7
:104F2000100100F04D813B4E002302278046894648
:104F3000E80709D5D6E900234046494605F040FB7D
:104F400001378046894601236D1006F10806EFD12E
:104F5000002B7FF4CBABDDE91089FFF7C7BB039EC5
:104F6000CBE4DDF818A00C9D02460B4605F072F963
:104F700002460B46CDE906230135DDE90423A846A8
:104F800005F0AEFD40B9DDE90423DDE9060105F0D9
:104F90007FFD18B1F10701D5039A4BE43E46C8E501
:104FA0007968029804F0CCF80546002800F02681C4
:104FB0003B6902339A0007F10C010C3000F060FAF3
:104FC00002982946012204F0CBFA80460AE60C9D9D
:104FD0003C46013547467EE5DDF8088039462A46DD
:104FE000404604F063FA524601460746404604F044
:104FF000A7F951468246404604F0C8F80D9B5B1B5A
:105000000D933FF407ADFFE4A8B101100000F07F5D
:1050100030B4011008B40110DDE9120105F0D0FA36
:10502000039B1F70109B012BCDE90A0100F0C68085
:10503000109F039BCDF83CB01F447C4B00224046A0
:10504000494605F0BDFA8946804605F069FD83466C
:1050500005F04CFA0BF1300B02460B464046494630
:1050600005F0F6F806F801BBB74280468946E4D160
:10507000DDF83CB06E4B0022DDE90A0105F0EAF8EC
:1050800002460B464046494605F02AFD002867D1F6
:10509000DDE90A236649002005F0DAF802460B46EE
:1050A0004046494605F0FEFC48B91B9B002BFFF625
:1050B00093AC0C9B0E2B3FF78FACFFF7FDBB3E462E
:1050C000013F16F8013C302BF9D0179D013530E532
:1050D0001A9BC3F1360304E7DDE906890227FFF7CF
:1050E00005BB089B002B3FF4B9AB169B002B7FF749
:1050F000DAAB0C9A1093013A4C4B179240460022BF
:10510000494605F05DFA80468946781C05F0EEF9BF
:1051100042464B4605F054FA464B002205F09AF8F9
:105120000646A1F15077FFF702BB08F101083123D1
:10513000FFF787BB0C9D039AB34639233C460BF817
:10514000013B01354746D8E44FF000094F46F6E5EC
:105150009B4629E6099A16461A441C4409921FE503
:10516000179B039A03F10108FFF764BBDDF850A019
:10517000ABE7DDE918B4DDF850A0FFF794BB392B9D
:10518000D8D0002D3FF7A7ADA7E5269B022B0ADC60
:10519000169B089349460C9DFFF79CF8039A00F173
:1051A000300313708DE4169B08930C95B6E5269B8F
:1051B000022BF8DC169B0C9508930BE5374659E754
:1051C000DDE910890227FFF791BA029B0021D9631C
:1051D000FFF747BA029B0025DD632946184603F016
:1051E000AFFF0390A8B9144B1448002240F2AF114E
:1051F00003F058FE002A7FF770AD5BE50E4B0F48B9
:105200002A4640F2EF2103F04DFE0D4B0393FFF7CA
:1052100032B9DDE902329A634FF0FF33012227955C
:1052200016930A920893FFF73EBB00BF000024408C
:105230000000E03F00001C40ACB10110C0B1011003
:105240009CB10110024A0349034800F0E9BD00BFC8
:10525000E0060020E58E0110C00500200C4B4168DF
:10526000994210B5044601D003F03CFEA168094BF9
:10527000994202D0204603F035FEE168064B994280
:1052800004D02046BDE8104003F02CBE10BD00BF86
:1052900070140020D8140020401500202DE9F84398
:1052A000314C324B3248DFF8DC90DFF8DC80314F94
:1052B0001860002529460423082204F15C002E4EC4
:1052C000E360C4E90055C4E90455A5606566A561BD
:1052D000FEF7A6FE04F15800C4E90749C4E90987AE
:1052E000E662FEF751FF2946244B6367082204F16A
:1052F000C400C4E91A55C4E91E552567C4F8CC504A
:10530000C4F88050FEF78CFE04F1680304F1C0007D
:10531000C4F88430C4E92298C4E92476FEF734FF47
:10532000174BC4F8DC30294604F596700822C4E90E
:105330003455C4E93855C4F8D850C4F83451C4F8C9
:10534000E850FEF76DFE04F1D003C4E93D87C4F8D0
:10535000F09004F59470C4F8FC60C4F8EC30BDE83B
:10536000F843FEF711BF00BF70140020A8150020FD
:1053700045520110895A0110AD5A0110090001006F
:1053800012000200255A0110495A011010B50446B6
:105390000A48FEF7FDFE636B23B9094B094A1B68F7
:1053A000626323B1BDE810400448FEF7F3BEFFF787
:1053B00075FFBDE810400148FEF7ECBE6C140020FC
:1053C000A81500205D5201100148FEF7E1BE00BFA4
:1053D0006C1400200148FEF7DDBE00BF6C140020F5
:1053E00001F0FF01102A2BDB10F0070F08D010F896
:1053F000013B013A8B422DD010F0070F42B3F6D19A
:10540000F0B441EA012141EA014122F007047FF0B2
:1054100000070023F0E80256083C85EA010586EA09
:10542000010685FA47F5A3FA87F586FA47F6A5FA45
:1054300087F68EB9EED1F0BC01F0FF0102F0070251
:1054400032B110F8013B013A83EA010313B1F8D1FC
:105450000020704701387047002D06BF35460338DD
:10546000073815F0010F07D1013015F4807F02BF16
:10547000013015F4C03F0130F0BC0138704700BF67
:10548000844641EA000313F003036DD1403A41D34F
:1054900051F8043B40F8043B51F8043B40F8043B0E
:1054A00051F8043B40F8043B51F8043B40F8043BFE
:1054B00051F8043B40F8043B51F8043B40F8043BEE
:1054C00051F8043B40F8043B51F8043B40F8043BDE
:1054D00051F8043B40F8043B51F8043B40F8043BCE
:1054E00051F8043B40F8043B51F8043B40F8043BBE
:1054F00051F8043B40F8043B51F8043B40F8043BAE
:1055000051F8043B40F8043B51F8043B40F8043B9D
:10551000403ABDD2303211D351F8043B40F8043B3D
:1055200051F8043B40F8043B51F8043B40F8043B7D
:1055300051F8043B40F8043B103AEDD20C3205D34D
:1055400051F8043B40F8043B043AF9D2043208D045
:10555000D2071CBF11F8013B00F8013B01D30B88B7
:1055600003806046704700BF082A13D38B078DD095
:1055700010F003038AD0C3F10403D21ADB071CBF67
:1055800011F8013B00F8013B80D331F8023B20F8D1
:10559000023B7BE7043AD9D3013A11F8013B00F80A
:1055A000013BF9D20B7803704B7843708B78837092
:1055B000604670470000000000000000000000008E
:1055C00030B490F800F020F007016FF0000C10F0FC
:1055D000070491F820F040F048804FF000046FF08D
:1055E0000700D1E9002391F840F000F1080082FAA9
:1055F0004CF2A4FA8CF283FA4CF3A2FA8CF34BBB74
:10560000D1E9022382FA4CF200F10800A4FA8CF2EC
:1056100083FA4CF3A2FA8CF3E3B9D1E9042382FABA
:105620004CF200F10800A4FA8CF283FA4CF3A2FACF
:105630008CF37BB9D1E9062301F1200182FA4CF207
:1056400000F10800A4FA8CF283FA4CF3A2FA8CF36E
:10565000002BC6D0002A04BF04301A4612BAB2FA90
:1056600082F200EBD20030BC7047D1E9002304F095
:105670000305C4F100004FEAC50514F0040F91F8CA
:1056800040F00CFA05F562EA05021CBF63EA050367
:1056900062464FF00004AAE7DFF864C0F8B521F0D5
:1056A00000430027634504460D461646176022D87E
:1056B000844653EA0C0C1ED0DFF848C001EA0C0CFB
:1056C0000A46BCF1000F09D10C4B002204F078FF10
:1056D0006FF0350704460A4621F0004322F0FF42EE
:1056E0001B1522F4E002A3F2FE3342F07F553B4447
:1056F00045F40015336020462946F8BD00005043AC
:10570000FFFFEF7F0000F07F2DE9F84306460820F9
:105710008946FEF74BFDDFF8A48005463046FEF7CC
:10572000BBFDD8F808305F6827F00307A7F1110424
:10573000A4EB09042C44B4FBF5F4013C05FB04F490
:10574000A54208DC0021304600F0C2F9D8F8083044
:105750003B44984205D03046FEF7A4FD0020BDE84A
:10576000F8836142304600F0B3F901300FD0114A9E
:10577000D8F808303F1B47F001075F6013683046D8
:105780001B1B1360FEF78EFD0120BDE8F88300218E
:10579000304600F09DF9D8F80820831A0F2BDADD87
:1057A00043F001035360044B02491B68C01A0860B0
:1057B000D1E700BF2C14002038000020400000205A
:1057C00000297CD02DE9F0410C468046FEF764FDAF
:1057D00054F8043C764FA4F1080523F00101681841
:1057E000BE684268864222F0030200F08380DE0732
:1057F000426000EB020C33D454F8084CDCF804305F
:105800002D1B2144AC6807F1080C644503F001032B
:1058100064D0D5F80CE0C4F80CE0CEF80840002BBA
:1058200000F0818041F001036B600160B1F5007F01
:1058300022D27868CB080122490901338A40024309
:1058400057F833107A6007EBC302083AC5E9021231
:1058500047F83350CD604046BDE8F041FEF722BD29
:10586000DCF80430DB072BD541F00103B1F5007FF4
:1058700044F8043C0160DCD3B1F5206F4FEA5123BA
:1058800053D28B0903F1390003F13802C300F81831
:10589000FB580838984203D163E09B68984204D0D3
:1058A0005A6822F003028A42F7D8D868C5E9023064
:1058B0008560DD604046BDE8F041FEF7F3BC70470F
:1058C000114407F1080C836863453FD0C268DA6071
:1058D000936041F001036B606950A7E7002B61D131
:1058E0000A44D0E90213CB60996042F001036B6077
:1058F000AA50B0E7DB070A4407D454F8083CED1A75
:105900001A44D5E90213CB60996042F001036B6041
:10591000284BBD601B6893429DD8274B40461968B1
:10592000FFF7F2FE97E71144CDE7142B08D9542B6B
:105930001FD80B0B03F16F0003F16E02C300A6E743
:1059400003F15C0003F15B02C300A0E741F0010337
:105950003D617D61C5F808C0C5F80CC06B60695039
:1059600079E779689210012404FA02F20A437A6016
:105970009CE7B3F5AA7F06D8CB0B03F1780003F1BF
:105980007702C30083E740F25452934206D88B0C4F
:1059900003F17D0003F17C02C30078E74FF47E73CE
:1059A0007E2274E741F001036B60016053E700BFA2
:1059B000400000203C0000205C14002040EA01036D
:1059C0009B0710B501D1032A17D8844601F1FF3E89
:1059D00007E01EF8011F03F8011B541E29B19C4665
:1059E00022466346002AF4D110BD9444002CFBD01B
:1059F00003F8011B6345FBD110BD8E468446DEF8DB
:105A00000040A4F1013323EA040313F0803F714600
:105A10000EF1040EDAD1043A032A4CF8044BEED806
:105A20007146D3E710B50C46B1F90E1004F0C0FA78
:105A3000002803DB236D0344236510BDA38923F4F1
:105A40008053A38110BD00BF2DE9F0410C46B1F990
:105A50000C101F46CB05054616460BD421F4805189
:105A6000A1813B46B4F90E1032462846BDE8F0410C
:105A700000F0C0B9B4F90E100223002204F082FA3B
:105A8000B4F90C10EAE700BF10B50C46B1F90E10DE
:105A900004F078FAB4F90C30421C0EBF23F48053A2
:105AA00043F480532065A38110BD00BFB1F90E10EF
:105AB00003F0C6BF49B1FF2A02D80A70012070471F
:105AC0008A2303604FF0FF3070470846704700BFDD
:105AD00038B5074D0022044608462A60FAF7E8FF69
