S02B00002F686F6D652F62726973746F70686572776F6F64732F4465736B746F702F435446732F4D4954524527
S3151001000000000220690901109D070110A7090110BE
S31510010010A9090110AB090110AD090110000000007A
S31510010020000000000000000000000000AF090110F0
S31510010030B109011000000000B3090110B509011042
S31510010040B9090110BB090110BD090110BF09011041
S31510010050C1090110C3090110C5090110C709011011
S31510010060C9090110CB090110CD090110CF090110E1
S31510010070D1090110D3090110D5090110D7090110B1
S31510010080D9090110DB090110DD090110DF09011081
S31510010090E1090110E3090110E5090110E709011051
S315100100A02107011029070110ED090110EF090110AF
S315100100B0F1090110F3090110F5090110F7090110F1
S315100100C0F9090110FB090110FD090110FF090110C1
S315100100D0010A0110030A0110050A0110070A01108D
S315100100E0090A01100B0A01100D0A01100F0A01105D
S315100100F0110A0110130A0110150A0110170A01102D
S31510010100190A01101B0A01101D0A01101F0A0110FC
S31510010110210A0110230A0110250A0110270A0110CC
S31510010120290A01102B0A01102D0A01102F0A01109C
S31510010130310A0110330A0110350A0110370A01106C
S31510010140390A01103B0A01103D0A01103F0A01103C
S31510010150410A0110430A0110450A0110470A01100C
S31510010160490A01104B0A01104D0A01104F0A0110DC
S31510010170510A0110530A0110550A0110570A0110AC
S31510010180590A01105B0A01105D0A01105F0A01107C
S31510010190610A0110630A0110650A0110670A01104C
S315100101A0690A01106B0A01106D0A01106F0A01101C
S315100101B0710A0110730A0110750A0110770A0110EC
S315100101C0790A01107B0A01107D0A01107F0A0110BC
S315100101D0810A0110830A0110850A0110870A01108C
S315100101E000000000000000000000000000000000F8
S315100101F000000000000000000000000000000000E8
S3151001020000488047690901100348044B834202D014
S31510010210034B03B118477047F8060020F806002073
S31510010220000000000548064B1B1AD90F01EBA3016C
S31510010230491002D0034B03B118477047F806002046
S31510010240F80600200000000010B5064C237843B9CB
S31510010250FFF7DAFF044B13B10448AFF30080012313
S31510010260237010BD0008002000000000B8B5011071
S3151001027008B5054B1BB105490548AFF30080BDE82C
S315100102800840FFF7CFBF00BF0000000004080020A0
S31510010290B8B5011000F0F6B9C0B2704710B5094CE7
S315100102A0636918700246E06805F00AF923690022AD
S315100102B01A7022691378002BFCD0636800221A7019
S315100102C010BD00BF1800002010B507494A68137801
S315100102D0002BFCD08B6809681C78E4B2224605F025
S315100102E0EFF8204610BD00BF1800002008B5002009
S315100102F000F0FEFA012000F0FBFA022000F0F8FAF5
S31510010300124C002000F0D4FA204600F0EFFC012038
S3151001031000F0CEFA204600F0E9FC022000F0C8FAFF
S31510010320204600F0E3FC002000F0E2FA204600F03F
S31510010330DDFC012000F0DCFA204600F0D7FC02209B
S3151001034000F0D6FA204600F0D1FCDAE720A107002A
S31510010350074B0FCB10B5074CA446ACE80700214656
S315100103600D208CF80030FFF799FFFFF7BFFF00BF94
S31510010370A0AE01101C08002010B5154B19784B1EA4
S3151001038082B0032B1DD8DFE803F002021A0B1149C4
S31510010390114B0B60042002B0BDE81040FFF77EBF81
S315100103A00E4C0F490F4B104A00940A4801F09AFD62
S315100103B00849252002B0BDE81040FFF76FBFFFF7CF
S315100103C0C7FF0A4802B0BDE8104003F019BF00BFCD
S315100103D01C0900201C08002025111111DCAE01108A
S315100103E0C4AE0110B0AE0110BCAE0110E4AE0110E6
S315100103F010B5094803F064FF62B60848084CFFF7C8
S315100104004BFFFFF747FF012000F052FA2046FFF796
S315100104105BFFFFF7B1FFF9E710AF011025111111BD
S315100104201C0900209048F8B58468630649D58F4E9B
S315100104303378002B40F0CB808D4D8B482B78052BD4
S315100104401BD800F0CFFF29788A4B8B4D53F821200A
S315100104502B68D21A824240F3DA80884A824852F8CF
S3151001046021701F4400F0BEFF394602467E4800F057
S31510010470B7FF2B6803442B6002E000F0B9FF7E4DF5
S3151001048079480022102100F0BBFF77480022202175
S3151001049000F0B6FF744800F0A5FF002840F0DF8099
S315100104A0714800F0A3FF082802D06F4800F0A2FFA0
S315100104B0734B6D48002240212A601A60327000F099
S315100104C09BFFA70603D56848C3689E0633D420024E
S315100104D03FD462026CD4E30611D5644C2378002B09
S315100104E07CD1634C60482378052B09D900F080FF35
S315100104F0BDE8F8405C480022102100F07DBFF8BD30
S3151001050000F070FF21785B4A5B4C52F8212023687A
S31510010510D21A824270DD594A534852F821501D446D
S3151001052000F060FF294602464F4800F059FF236844
S3151001053003442360DCE7250400F18B804C4D2B78B6
S31510010540052B69D948480022202100F055FF2002C9
S31510010550BFD54FF400014448002200F04DFF21049D
S31510010560B7D5434D404800224FF4004100F044FFF7
S315100105703D480122294600F033FF2B78052BA8D8D8
S315100105803C4E3E4A384852F8231056F8232000F0C4
S315100105902BFF3B4B2A78196856F8222008449042C3
S315100105A0186096DA30480022202100F027FF90E7E4
S315100105B02E4B2D480022102101251D7000F01EFF23
S315100105C0294800224FF4800100F016FF83E72849DD
S315100105D0012200F005FF002333702DE7244922483C
S315100105E0012200F0FDFE00232370214C1E482378C2
S315100105F0052B3FF67BAF83E7204850F821101A48A8
S31510010600194400F0EDFE23680344236070E71B488C
S3151001061050F82110194429E7194E164F1749326817
S3151001062051F8231057F823300F4811449A1A00F045
S31510010630DBFE2B78326857F823301044013B984281
S3151001064030607FF47FAF08480022202100F0D8FEE9
S3151001065078E700224FF4004100F0CEFE6EE7024823
S3151001066000F0C6FE1CE700BF00E00140250A00208D
S31510010670240A002000000020200A00201800002073
S315100106801C0A002010B5024600211B4800F052FE3C
S31510010690044660BB1949184800F096FE164800F04A
S315100106A0A7FE224614484FF4800100F0A7FE224609
S315100106B011484FF4000100F0A1FE22460E484021D8
S315100106C000F09CFE0E49242000F04AFB0D4B10222F
S315100106D05A604FF0FF321146074800F08DFE0A4B63
S315100106E059680C701B6901221A70204610BD074803
S315100106F003F0E6FD204610BD00E00140A086010092
S315100107002504011000E100E01800002024AF0110BB
S3151001071008B50346014803F073FDFEE740AF01102B
S31510010720002000F07DBD00BF012000F079BD00BFA3
S3151001073010B5002000F05EFB012000F05BFB4020AD
S3151001074000F058FB104B022218684FF4E13101F00A
S3151001075091F8041E0CDB00F0EBF858B900F088F89C
S31510010760044660B9094B0A484322DA6000F0BEFA22
S31510010770204610BD074908486F22FFF7C9FF0549F2
S3151001078005487422FFF7C4FF3000002000440040E2
S31510010790400D03005CAF0110E4AF011000BF7047BC
S315100107A04FF0FF30704700BF4FF0FF30704700BF6A
S315100107B04FF0FF30704700BF4FF0FF30704700BF5A
S315100107C0F8B5E0B9002A19DD104D0E468F180C4602
S315100107D002E0BB420FD01C46284601F041F9C1B2D6
S315100107E02170284601F03EF922780D2A04F1010301
S315100107F0EFD10A232370C6F10106A019F8BD01F045
S3151001080091FB092303604FF0FF30F8BD002004402F
S31510010810F8B5431E012B21D8002A174612DD531EA7
S31510010820124E4C1ECD1814F8013F0A2B0CD00F484E
S3151001083001F01CF90028FAD02178304601F012F99E
S31510010840AC42F0D13846F8BD084801F00FF900283E
S31510010850FAD00D21304601F005F9E8E701F062FB07
S31510010860092303604FF0FF30F8BD00BF002004409C
S31510010870F8B50D4B1F68A7B100250C4C2E46D4E9CF
S31510010880000100F099FC204600F09CFB0135002880
S3151001089018BF6FF00706AF4204F10C04EFD13046D2
S315100108A0F8BD3E463046F8BDECAF0110F0AF011071
S315100108B00B4B1B68834210B504460BD9094B04EB4D
S315100108C0440403EB840253F824005168BDE8104038
S315100108D000F08CBC044905483B22FFF719FFEDE7F0
S315100108E0ECAF0110F0AF011030B00110A4B001103F
S315100108F00B4B1B68834210B504460BD9094B04EB0D
S31510010900440403EB840253F824005168BDE81040F7
S3151001091000F052BC044905484622FFF7F9FEEDE7FF
S31510010920ECAF0110F0AF011030B00110A4B00110FE
S31510010930F8B50B4B1F6887B100240A4D2646284689
S3151001094000F040FB0134002818BF6FF00706BC42C7
S3151001095005F10C05F3D13046F8BD3E463046F8BDDB
S3151001096014B0011018B00110474885464748804712
S3151001097080B94749474A484B9B1A03DD043BC8587F
S31510010980D050FBDC4549464A00209142BCBF41F894
S31510010990040BFAE74348804743488047434880475A
S315100109A0FFF7FEFFFEE7FEE7FEE7FEE7FEE7FEE7DF
S315100109B0FEE7FEE7FEE7FEE7FEE7FEE7FEE7FEE7F8
S315100109C0FEE7FEE7FEE7FEE7FEE7FEE7FEE7FEE7E8
S315100109D0FEE7FEE7FEE7FEE7FEE7FEE7FEE7FEE7D8
S315100109E0FEE7FEE7FEE7FEE7FEE7FEE7FEE7FEE7C8
S315100109F0FEE7FEE7FEE7FEE7FEE7FEE7FEE7FEE7B8
S31510010A00FEE7FEE7FEE7FEE7FEE7FEE7FEE7FEE7A7
S31510010A10FEE7FEE7FEE7FEE7FEE7FEE7FEE7FEE797
S31510010A20FEE7FEE7FEE7FEE7FEE7FEE7FEE7FEE787
S31510010A30FEE7FEE7FEE7FEE7FEE7FEE7FEE7FEE777
S31510010A40FEE7FEE7FEE7FEE7FEE7FEE7FEE7FEE767
S31510010A50FEE7FEE7FEE7FEE7FEE7FEE7FEE7FEE757
S31510010A60FEE7FEE7FEE7FEE7FEE7FEE7FEE7FEE747
S31510010A70FEE7FEE7FEE7FEE7FEE7FEE7FEE7FEE737
S31510010A80FEE7FEE7FEE7FEE700000220550B011028
S31510010A9078B6011000000020F8060020000800209A
S31510010AA040170020590B011049410110F1030110A3
S31510010AB00B4A08B50346106828B10A4903448B420C
S31510010AC007D8136008BD08480649106003448B42D5
S31510010AD0F7D901F027FA0C2303604FF0FF3008BD58
S31510010AE0380C002000F00120481700204FF08043F9
S31510010AF09A6802F46062B2F5206F20D011D9B2F56E
S31510010B00406F17D00F4B1049B2F5606F18BF0B46E7
S31510010B104FF080420D499268C2F38212D3400B60A6
S31510010B20704752B1084947F23053B2F5C06F18BF3A
S31510010B300B46EDE74FF40043EAE7054BE8E74FF4C0
S31510010B40E103E5E7C068780400E1F50540170020E8
S31510010B50008793030020704710B50A4C0A4BA36017
S31510010B600A4800F035FED4F8883043F47003C4F80F
S31510010B708830BFF34F8FBFF36F8FFFF7B7FFFFF7C4
S31510010B80D7FD10BD00ED00E00000011000A00240ED
S31510010B9038B54FF0E02318499C691A6922F480325E
S31510010BA00A601A69D20723D46FF07F4405225C616B
S31510010BB04FF080759C611A61104B114A1968002318
S31510010BC0A0FB010109F0F4FF0E4BB0FBF5F205FB9A
S31510010BD0120084421A6007D81A6801321A602C442E
S31510010BE0094B201A186038BD074B201A186038BDFA
S31510010BF05D690135E0E700BF400C00204017002079
S31510010C0040420F0034000020440C002010B50C4C5B
S31510010C100C4B22681960002A0FDC08B9002010BDA0
S31510010C20FFF7B6FF2368002BF8DD4FF0E022002016
S31510010C30136943F00203136110BD6FF0050010BD77
S31510010C40340000203C0C0020F8B5174C2368002B0B
S31510010C501EDB26682EBB154B4FF0E0251B68AA69D3
S31510010C609A421ED8124F3B685BB16FF00F0098473E
S31510010C70104B3E601A682A614FF0FF332360002043
S31510010C80F8BD0C4A4FF0FF3312682A612360F6E76C
S31510010C90074C2368002BF2D00020984700202060D3
S31510010CA0F8BD6FF00500F8BD34000020440C00209B
S31510010CB03C0C0020400C002010B5094C236823B1D0
S31510010CC06FF00F00984700232360064A064B106801
S31510010CD04FF0E0214FF0FF3208611A6010BD00BFDE
S31510010CE03C0C0020400C00203400002038B5184C74
S31510010CF02268002A29DC00B938BDFFF749FF4FF0F9
S31510010D00E02202E01369DB031BD42368002BF9DC14
S31510010D10104B1A684FF0E0218B699342FCD80E4DA7
S31510010D202B6823B16FF00F00984700232B600B4BF4
S31510010D304FF0E022196811614FF0FF330020236054
S31510010D4038BD2368013B2360DFE76FF0050038BD2E
S31510010D5034000020440C00203C0C0020400C0020E4
S31510010D60F8B50F4E0F4BB2689A4204460D4600F184
S31510010D70100707D018460C494FF4F07204F0A0FB87
S31510010D800346B060002C43F8275008DB074B620975
S31510010D90012004F01F0400FA04F443F82240F8BDC0
S31510010DA000ED00E0000E00200000011000E100E05F
S31510010DB03F2809D90E4A4038D168C0B2012303FA37
S31510010DC000F00843D06070471F284FF0804208D9C1
S31510010DD02038916CC0B2012303FA00F008439064E5
S31510010DE07047516A012303FA00F0084350627047B5
S31510010DF0000008403F280AD910494038CB68C0B2D4
S31510010E00012202FA00F023EA0000C86070471F2889
S31510010E104FF0804109D920388B6CC0B2012202FAF9
S31510010E2000F023EA0000886470474B6A012202FA37
S31510010E3000F023EA00004862704700BF0000084036
S31510010E4010B507280AD8DFE800F00C090923334743
S31510010E505B04BDE81040364800F0B4B86FF00200EC
S31510010E6010BD4FF080440021A36843F48023A36092
S31510010E704FF47A70FFF7CAFE03E0FFF7E5FE06307E
S31510010E8052D1A3685901F8D5FFF716FF002010BDFE
S31510010E9000214FF47A70FFF7B9FE4FF0804403E05A
S31510010EA0FFF7D2FE06303FD1A3689A00ECD4F7E7DC
S31510010EB04FF080440021A36843F40023A3604FF44C
S31510010EC07A70FFF7A3FE03E0FFF7BEFE06302BD1C3
S31510010ED0A3681B01F8D5D7E74FF080440021A3681A
S31510010EE043F48013A3604FF47A70FFF78FFE03E08B
S31510010EF0FFF7AAFE063017D1A368D800C4D4F7E7C6
S31510010F004FF080440021A36843F40033A3604FF4EB
S31510010F107A70FFF77BFE03E0FFF796FE063003D1EA
S31510010F20A3689B01B0D4F7E76FF0090010BD00BFAD
S31510010F30B4B001103F280AD94038114AC0B2012372
S31510010F4003FA00F0906093681842FCD170471F288D
S31510010F500BD92038C0B201234FF0804203FA00F0BA
S31510010F605064536C1842FCD1704701234FF08042F4
S31510010F7003FA00F0506053681842FCD1704700BF65
S31510010F8000000840C10710B5044608D4A2070BD4C7
S31510010F9063070ED42046BDE8104000F04DBF002077
S31510010FA0FFF728FFA207F3D50120FFF723FF6307F9
S31510010FB0F0D54020FFF71EFF2046BDE8104000F097
S31510010FC03BBF00BF38B57A4B05689D42044659D0E0
S31510010FD003F580539D421CD003F5EE2303F5806380
S31510010FE09D4200F0A68003F500739D4213D00020A8
S31510010FF0FFF7C8FF6268217A284600F037F9A0B9D1
S31510011000637A042B00F2D180DFE803F0897B6D5EF1
S315100110104A000220ECE74068C30719D5237A002B52
S3151001102032D0012B02D06FF0100038BD614A136A1D
S3151001103043F002031362637A012B7CD0022B00F07A
S315100110408880002BEFD15B4A136A43F004031362C5
S3151001105010F00200E9D0237AE3B1012BE3D1554A0E
S31510011060136A43F020031362607A01287FD00228A5
S3151001107000F08C800028D6D14E4A136A43F0400303
S31510011080136238BD0120B3E74A4A136A23F00203FB
S315100110901362D0E7474A136A23F020031362E3E78A
S315100110A02B6E626823EA02032B666B6E13436B6623
S315100110B0D5F8B83023EA0203C5F8B830A17A284624
S315100110C0BDE8384000F0BAB82B6E626813432B6640
S315100110D06B6E23EA02036B66D5F8B83023EA020376
S315100110E0C5F8B830EAE72B6E626823EA02032B666D
S315100110F06B6E13436B66D5F8B8301343C5F8B83029
S31510011100DCE72B6E626813432B666B6E23EA0203D0
S315100111106B66D5F8B8301343C5F8B830CEE72B6EE9
S31510011120626823EA02032B666B6E23EA02036B667F
S31510011130C4E704205CE71F4B1A6A22F004021A6204
S315100111401A6A22F002021A621A6A42F001021A623D
S315100111507EE7184B1A6A22F004021A621A6A22F002
S3151001116002021A621A6A22F001021A6270E7114B20
S315100111701A6A22F040021A621A6A22F020021A62D0
S315100111801A6A42F0100200201A6238BD094B1A6A17
S3151001119022F040021A621A6A22F020021A621A6AB0
S315100111A022F0100200201A6238BD6FF0020038BD1D
S315100111B000800040006C00400A4A90420B4601D064
S315100111C000F034B8CA0704D507490A6A42F0010289
S315100111D00A629B0705D5044A136A43F0100313628A
S315100111E07047704700060840006C00400A4A90425A
S315100111F00B4601D000F01CB8CA0704D507490A6A84
S3151001120022F001020A629B0705D5044A136A23F0EC
S31510011210100313627047704700060840006C0040C7
S3151001122000F01CBE00F006B800F006B8C1617047A8
S315100112300162704781647047006C704769B101297A
S3151001124007D1D0F8C03000211A43C0F8C020084693
S3151001125070476FF0020108467047D0F8C03023EA94
S315100112600202C0F8C0200846704700BF0346006B53
S31510011270104318635A6005292AD8DFE801F00A12CB
S31510011280141B2203C3F8882000209A67DA669A6035
S3151001129070475A615A6000201A67DA67C3F88820C6
S315100112A070471A61F6E7C3F888200020DA671A67D3
S315100112B09A607047C3F888200020DA67DA669A6068
S315100112C07047C3F8882000209A671A679A6070479A
S315100112D06FF00200704700BF00F002B908B5124B5B
S315100112E098420DD0114B984212D0114B984217D1FA
S315100112F03820FFF75DFD3420FFF71CFE002008BDE6
S315100113000D20FFF755FD1020FFF714FE002008BD34
S315100113101C20FFF74DFD2020FFF70CFE002008BD15
S315100113206FF0010008BD00BF00D0014000E0014090
S3151001133000F00140C0B370B504460D461646FFF7DE
S31510011340CDFF1B4B9C4212D01A4B9C421CD01A4B00
S315100113509C4226D13820FFF74DFD1848FFF732FE83
S31510011360324629462046BDE8704000F051B80D209E
S31510011370FFF740FD1248FFF725FE32462946204663
S31510011380BDE8704000F044B81C20FFF733FD0D484E
S31510011390FFF718FE324629462046BDE8704000F098
S315100113A037B86FF0010070BD4FF0FF30704700BFC6
S315100113B000D0014000E0014000F00140D8B001101A
S315100113C0C0B00110CCB00110034B994201D800F006
S315100113D0A1B86FF01000704740E1330000F0ECB88F
S315100113E000F0FAB800F010B900F016B900F02CB9F7
S315100113F000F036B900F03CB900F042B900F044B93A
S3151001140000F04CB900F056B900F0C0B900F0CEB9F1
S31510011410F8B5002858D00F46102115460446FFF797
S31510011420F1FF064608B13046F8BD236843F00103C3
S3151001143023602046FFF7DCFF2046FFF7DBFF022182
S315100114402046FFF7E3FF06212046FFF7DDFFD7B160
S3151001145023681F4A43F00203944223602ED01D4B8A
S315100114609C420ED01C4884420CBF02244FF0FF341C
S315100114701A4B04EB440403EBC404012363603046A6
S31510011480F8BD0124F4E73A4629462046FFF724FF22
S315100114900F4B9C4214D003F580539C4212D00E4937
S315100114A08C420CBF02214FF0FF310C4B01EB410472
S315100114B003EBC404002666603046F8BD3446D7E710
S315100114C03946F2E70121F0E74FF0FF36ABE700BFEF
S315100114D000D0014000E0014000F00140E00F002083
S315100114E00346A0B16AB9B1F5806F0DD27F29C264E6
S315100114F084BF4FF40042C264C26C11430020D96408
S3151001150070476FF0100070476FF0020070474FF090
S31510011510FF307047002841D010B4224AA1F5742338
S315100115206FF410742344934214D31F4B994230D84D
S315100115301E4B1B685B08B3FBF1F149088B1EB3F513
S31510011540FF7F01F1FF3124D841635DF8044B8163BC
S31510011550FFF744BF154B164C1B685B08B3FBF1F143
S315100115604A00A4FB01C14908A4FB024201395208F1
S315100115700F2902F1FF320CDC0F2A0ADC0902D2B262
S3151001158089B21143C16302680A4942F400420260FA
S31510011590D1E76FF002005DF8044B70474FF0FF3052
S315100115A0704700BF009F240040E133004017002020
S315100115B0ABAAAAAA801A06000649436B826B086871
S315100115C0C2F30802C3F3080313444008B0FBF3F057
S315100115D0704700BF4017002098B191B17AB100232E
S315100115E001F1FF3C06E0C16A0133C9B29A420CF817
S315100115F0031004D041688907F5D51846704710467F
S3151001160070474FF0FF30704718B1006AC0F30320DE
S3151001161070474FF0FF30704798B191B17AB10023FE
S3151001162001F1FF3C06E001339A421CF80310C9B2DE
S31510011630C16204D04168C906F5D5184670471046EF
S3151001164070474FF0FF30704738B18369826AC3F330
S315100116500720C2F30323C01A70474FF0FF307047BB
S31510011660C36943F08003C361C3691B06FCD4704789
S31510011670436A43F080034362436A1B06FCD47047F6
S3151001168081600261704700BF10B4C4682143C16014
S3151001169043695DF8044B1A434261704710B4C4683C
S315100116A024EA0101C16043695DF8044B23EA020291
S315100116B042617047002865D0036843F001032DE9A4
S315100116C0F04103600768036843F480630E460446DD
S315100116D007F480670360002943D000252BE0FFF74C
S315100116E005FB236823F0800323600A20FFF7FEFA27
S315100116F0236813F400784FF00A002BD1FFF7F6FA9E
S31510011700236843F0800323600A20FFF7EFFA23686A
S315100117109A054FF00A001DD5FFF7E8FA236843F042
S31510011720400323600A20FFF7E1FA2368DB0525D47D
S315100117300135AE4215D00A20FFF7D8FA236823F0F7
S31510011740400323600A20FFF7D1FA2368D9054FF029
S315100117500A00C4D52368013543F0C003AE422360A5
S31510011760E9D16FF008001FB9236823F48063236061
S31510011770236823F001032360BDE8F0814046002F62
S31510011780F6D1F1E74FF0FF30704700BF8269D2B250
S315100117908A42034607D3C26922F4706242EA0121E2
S315100117A00020D96170476FF0020070478269C2F359
S315100117B007228A42034607D3426A22F4706242EA3A
S315100117C001210020596270476FF00200704700BF77
S315100117D000F000B8D0F80031012223F00103C0F85F
S315100117E00031C0F80027D0F80031DA03FBD5D0F864
S315100117F0003143F00103C0F80031D0F80031DB03AA
S31510011800FBD5704708B5174B984210D0164B984226
S3151001181015D0164B98421AD0154B98421FD1442019
S31510011820FFF788FB4420FFF7C3FA002008BD0B2001
S31510011830FFF780FB0920FFF7BBFA002008BD0C203B
S31510011840FFF778FB0A20FFF7B3FA002008BD1C202A
S31510011850FFF770FB2120FFF7ABFA002008BD6FF0F0
S31510011860020008BD0020044000300440004004403E
S315100118700014084070B504460E461546FFF7C2FF20
S31510011880A8BB022D2DD0042D18D0204B9C421BD065
S315100118901F4B9C422CD01F4B9C4230D01E4B9C425E
S315100118A023D11E48FFF78EFB4420FFF7A3FA2A46E1
S315100118B031462046BDE8704000F0F6B80620FFF725
S315100118C0BFFA124B9C42E3D11548FFF77BFB092067
S315100118D0FFF790FA2A4631462046BDE8704000F0DF
S315100118E0E3B80520FFF7ACFACFE76FF0020070BD41
S315100118F00C48FFF767FB0A20FFF77CFAD7E70A487F
S31510011900FFF760FB2120FFF775FAD0E700200440AE
S3151001191000300440004004400014084008B1011092
S31510011920E4B00110F0B00110FCB00110304B984238
S3151001193010B5044616D003F58053984212D003F51C
S31510011940805398420ED003F57533984207D105237B
S31510011950022A436143D0042A13D0002A3FD06FF0E4
S31510011960020010BD042AFAD0204600F0D5F800284E
S31510011970F7DD236843F40043236023681B03FCD57A
S3151001198010BD02684FF480331A4302600068B3FB3E
S31510011990F1F340F40010B1F5166F206001FB03F26C
S315100119A08CBF00200120C2F580326061ABB1B2EB71
S315100119B0510F12D80F4A1361106800F44030B0F578
S315100119C0803F05D0136813F4403FC8D14FF4E100AE
S315100119D0084B1B69B0FBF3F0C9E70133EAE74FF493
S315100119E0E103B3FBF1F301FB03F2C2F5E102DDE71B
S315100119F00020044000140840124B98421CD003F5F5
S31510011A008053984218D003F58053984214D003F5A9
S31510011A107533984212D1036803F44033B3F5803F0E
S31510011A2005D0036813F4403F08D14FF4E103064A89
S31510011A301069B3FBF0F0704700F0BCB86FF002000C
S31510011A40704700BF002004400014084000F0F0B8B1
S31510011A5000F00EB900F032B900F08AB900F0A4B95D
S31510011A6000F008B800F012B800F0BCB900F0BEB929
S31510011A7000F0C2B910B504462046FFF7F5FF00285D
S31510011A80FAD02046BDE81040FFF7E6BF38B5044648
S31510011A900D462046FFF7EAFF0028FAD029462046D0
S31510011AA0BDE83840FFF7DABF1A4B984270B50446C5
S31510011AB00D4616460BD003F58053984207D003F511
S31510011AC08053984203D003F5753398421FD10121F3
S31510011AD02046FFF7CDFF00B170BD08212046FFF764
S31510011AE0B5FF0028F8D101462046FFF7B3FF0028BD
S31510011AF0F2D101462046FFF7ABFF0028ECD1324662
S31510011B0029462046FFF712FF00EAE07070BD6FF01C
S31510011B10020070BD00200440234B98420BD003F500
S31510011B208053984207D003F58053984203D003F5AA
S31510011B307533984234D10523012A10B4436125D057
S31510011B40022A16D022B16FF002005DF8044B7047DD
S31510011B50164B1A685208B2FBF1F301FB132213B1AB
S31510011B60B2EB510F00D901335DF8044B0361FFF756
S31510011B7043BF04684FF4E10344F40034B3FBF1F3BB
S31510011B8001FB03F2C2F5E1020460E8E70468084AC2
S31510011B90B2FBF1F344F48034046001FB1322DEE757
S31510011BA06FF00200704700BF00200440401700206C
S31510011BB0C06878041B4B98420BD003F580539842AA
S31510011BC007D003F58053984203D003F57533984235
S31510011BD025D1036803F44033B3F5803F14D003686D
S31510011BE013F4403F06D1104B00691B685B08B3FB29
S31510011BF0F0F07047036803F44033B3F5003F08D0A3
S31510011C0003686FF002007047084B0069B3FBF0F0F0
S31510011C10704700694FF4E103B3FBF0F070476FF0C2
S31510011C20020070470020044040170020C068780465
S31510011C300E4A904203460BD002F58052904207D0CD
S31510011C4002F58052904203D002F5753290420AD1C4
S31510011C500539032907D81A6822F4406242EA81211C
S31510011C600020196070476FF0020070470020044091
S31510011C70114B98420BD003F58053984207D003F5C8
S31510011C808053984203D003F57533984202D161B15E
S31510011C90012903D06FF0020108467047036800213D
S31510011CA043F48053036008467047036823F4805356
S31510011CB003600846704700BF002004402B4A90423B
S31510011CC003460BD002F58052904207D002F580529E
S31510011CD0904203D002F57532904244D1042942D87C
S31510011CE0DFE801F01117253303001A6842F01002DC
S31510011CF01A601A6842F020021A601A6842F040020D
S31510011D0000201A6070471A6822F0100200201A602B
S31510011D1070471A6842F010021A601A6822F02002FF
S31510011D201A601A6822F0400200201A6070471A6879
S31510011D3042F010021A601A6822F020021A601A681C
S31510011D4042F0400200201A6070471A6842F01002F1
S31510011D501A601A6842F020021A601A6822F04002CC
S31510011D6000201A6070476FF002007047002004408F
S31510011D700C4B98420BD003F58053984207D003F5CC
S31510011D808053984203D003F57533984204D14368C2
S31510011D90DB0604D4006A70476FF0020070476FF0DB
S31510011DA00C007047002004400D4B98420BD003F5F0
S31510011DB08053984207D003F58053984203D003F518
S31510011DC07533984206D1436813F0800305D1016239
S31510011DD0184670476FF0020070476FF00B0070479E
S31510011DE0002004404068C0F3032070474068C0F3E8
S31510011DF00330C0F1080070470E4A904203460BD0DB
S31510011E0002F58052904207D002F58052904203D0DB
S31510011E1002F57532904209D14A1E072A06D81A6868
S31510011E2022F00F0211430020196070476FF0020073
S31510011E30704700BF0020044010B5064C217831B917
S31510011E4005484FF4007202F007F9012323700020B0
S31510011E5010BD00BF2814002028100020032870B5DB
S31510011E60054625D8E0B9174E3046FFF7DDF9044689
S31510011E7001463046FFF7D6F98CB1134E134B06EBDC
S31510011E80C51603EBC515E30703D52B680BB13068EF
S31510011E909847640806F1040605F10405F3D170BDEF
S31510011EA001280CD00A4E0B4B022818BF1E46DBE741
S31510011EB009490A485A22FEF72BFC0026D4E7084E98
S31510011EC0D2E700BF00800040281200202810002011
S31510011ED0000408400006084014B1011074B1011045
S31510011EE0009000400EB410B59DB06FF000411FABCD
S31510011EF004910791094953F8042B02900690084C56
S31510011F000868019302A9059400F012F8029B0022B9
S31510011F101A701DB0BDE8104003B07047B805002017
S31510011F200802FFFF014B1868704700BFB805002073
S31510011F302DE9F04FDFB00C46099191460D9383467A
S31510011F4002F04CF903681A93184603F059FB08225C
S31510011F50189000212EA802F07FF8A3891A0603D53E
S31510011F602369002B00F090879FED7F7B0023CDE93D
S31510011F703333CDE91B33CDE91D338DED167B35AAF0
S31510011F8013933292904619930A93CDF81CB04D468D
S31510011F90079F2E46764BD3F8E44002F019F9034613
S31510011FA02EA8009032462AA93846A047002800F0EC
S31510011FB0A980C0F29F802A9A252A034601D01E4481
S31510011FC0E8E7771B044640F0A08000238DF89F3088
S31510011FD099460B934FF0FF3273780892741C0134B3
S31510011FE0A3F120025A2A00F2C580DFE812F0EE02B0
S31510011FF0C300C300EA02C300C300C3006A00C300E2
S31510012000C30051026002C3005C02FC02C300F80265
S315100120105B005B005B005B005B005B005B005B00D1
S315100120205B00C300C300C300C300C300C300C300E9
S315100120304401C300D0011603440144014401C30005
S31510012040C300C300C300E602C300C3006502C30098
S31510012050C300C300FA01C300D302C300C3000E07B5
S31510012060C300C300C300C300C300C300C300C30041
S315100120704401C300D0012C024401440144019602DB
S315100120802C027F00C300AF02C300A0020307C102E6
S315100120907F00C300FA017D000907C300C3003207A0
S315100120A0C3007D00A3F13002002114F8013B01EBBE
S315100120B0810102EB4101A3F13002092AF5D90B91F5
S315100120C08EE7079F384602F089F843681D93184634
S315100120D003F096FA1E900646384602F07FF883689A
S315100120E01B93002E40F01E86237878E7237849F05B
S315100120F0200974E7082200212EA801F0ADFF012363
S315100121001E4447E7771B044611D0349B3B44349356
S31510012110339B0133072BC8E90057339318DC08F1B9
S3151001212008080A9B3B440A93002C7FF44EAF349B5C
S31510012130DDF81CB0002B41F0F381099B9B8903F05C
S315100121404003002B41F0C3830A985FB0BDE8F08FBE
S315100121500999079832AA03F0A7FE0028EDD10DF1CF
S31510012160D408DEE7AFF30080000000000000000095
S315100121704C040020CDE90E34002BD8D000228DF866
S31510012180143101238DF89F2006930C929B460892D9
S3151001219014921092129245AD19F0020302D00699CB
S315100121A00231069119F08407349C05D10B990698D2
S315100121B00E1A002E00F3AA8082B10122C8F804205B
S315100121C0339A013201340DF19F01072A3494339267
S315100121D0C8F8001000F3058408F1080883B1339B91
S315100121E028AA01330234C8F80020072B4FF0020247
S315100121F034943393C8F8042000F3E78308F10808F0
S31510012200802F00F0C082089BA3EB0B06002E00F373
S31510012210FF8219F4807F40F01982339BC8F8005071
S3151001222001335C44072BC8F804B03494339300F39C
S315100122306C8308F1080819F0040F05D00B9B069A58
S315100122409D1A002D00F3DC83DDE90A3206998A42D4
S31510012250ACBF9B185B180A93002C40F0188300231F
S3151001226033930C9B1BB10C99079803F0C9FA0DF126
S31510012270D4080F9D8CE6CDE90E340D9B073323F060
S315100122800703B3EC027B57EC176B0D9327F0004352
S3151001229023938DED227ADDE922ABB14B4FF0FF325C
S315100122A0504659468DED167B08F044FC002840F047
S315100122B04685AB4B4FF0FF325046594608F01CFC91
S315100122C0002840F03C85002200233046394608F0AC
S315100122D009FC002841F051809DF89F20A14DA24B89
S315100122E029F080090E994729C8BF1D4600230321ED
S315100122F00C9306918B460893149310931293002A0C
S315100123003FF44AAF069B0133069345E7102E339AE5
S3151001231041F3768295482195CDE91F372146099DCE
S31510012320079C15904FF0100A074604E0103E102E38
S3151001233008F1080816DD01321031072AC8E9007ABA
S31510012340CDE93321F2DD32AA294620460DF1D40812
S3151001235003F0AAFD002840F0F086103E102EDDE9AC
S315100123603321E8DCDDE91F37219D0C460132159931
S31510012370C8F800103444072ACDE93324C8F804609C
S3151001238000F3CA869DF89F2008F1080814E70D9AF4
S31510012390432BCDE90E3402F1040403D019F0100FCA
S315100123A000F05C850822002130A801F055FE0D9B36
S315100123B007981A6845AD30AB294601F09FFEB0F17A
S315100123C0FF3F834601F07E8220EAE07306930022E6
S315100123D00D948DF89F200C920892149210921292DD
S315100123E0DAE60D9E56F8045BCDE90E3400238DF81E
S315100123F09F30002D00F057850E9B532B00F0B986A8
S3151001240019F01003129340F0B486089B5A1C01F080
S31510012410928012991A46284603F002F80C90002869
S3151001242001F0ED820C9B0D96A3EB050B129B089305
S315100124302BEAEB71149310930C9373239DF89F2041
S3151001244006910E935BE719F0200FCDE90E3400F0DB
S31510012450EC800D9B073323F007031A46596852F88F
S31510012460083B0D920A460029C0F2198408990131D8
S3151001247000F09C8253EA020129F0800440F0978211
S31510012480089A002A40F09882A14693465EAD51E122
S315100124900D9B53F8042B0B92002A80F224840B9A7D
S315100124A00D9352420B92237849F0040997E52B2399
S315100124B08DF89F30237892E5CDE90E3449F0100955
S315100124C019F0200200F0B4830D9B073323F00703A4
S315100124D019465A6851F8083B0D9129F48064002178
S315100124E00020089D8DF89F006F1C00F00C8153EAA7
S315100124F0020024F0800940F00581002D40F0278666
S31510012500002940F0C88314F0010B00F0F08330234A
S315100125108DF877310DF277150CE12378682B03BF0F
S31510012520637849F40079013449F0400957E519F007
S31510012530200F0F9400F0E5830D9B0A9A1B681A6011
S31510012540D2175A600D9B04330D9392E623786C2BA8
S3151001255003BF637849F02009013449F010093EE5BB
S31510012560FFFFEF7F94B1011098B10110E8B101108E
S315100125700D9A0F9452F8043B0D9247F63002ADF8BE
S31510012580A0207820A84A199249F0020400220221BB
S315100125900E90A5E7CDE90E3449F0100414F020028F
S315100125A000F055830D9B073323F0070319465A682C
S315100125B051F8083B0D91012192E7237849F008095A
S315100125C00DE5237849F0010909E59DF89F20237847
S315100125D0002A7FF404AD20228DF89F20FFE4237892
S315100125E049F08009FBE4214611F8013B2A2B01F041
S315100125F02982A3F13002092A0C4698BF002101F263
S31510012600308114F8013B01EB810102EB4101A3F189
S315100126103002092AF5D90891E2E449F0100919F0B6
S31510012620200FCDE90E347FF414AF0D9A19F0100F67
S3151001263052F8043B0D9240F0608319F0400F00F000
S31510012640588343F3C03211461BB20CE70E9B652B20
S3151001265040F36681DDE916010022002308F038FAFD
S31510012660002800F01182339B704AC8F8002001330C
S3151001267001340122072B34943393C8F8042000F354
S315100126806B8508F10808299B139A934280F22683D9
S31510012690189B1A9A1C44C8E90023339B34940133BE
S315100126A0072B339300F3E48308F10808139B5D1E8F
S315100126B0002D7FF7C0AD102D339B40F3AD855C4FD8
S315100126C0DDF81CB0DDF824A01597102605E008F1F9
S315100126D00808103D102D40F3A18501331034072B46
S315100126E0C8E90076CDE93334F1DD32AA51465846B0
S315100126F003F0DAFB002840F0C082DDE933340DF136
S31510012700D408E6E74C46012900F0518102295EAD55
S315100127101ED1199803F00F011B09415C05F8011D23
S3151001272043EA0273120953EA0201F3D15EABA146E1
S31510012730A3EB050B08999DF89F2059454FF000030F
S31510012740B8BF59460C930691149310931293D6E57C
S3151001275003F00701DB0843EA4273D208303153EA2A
S315100127600206284605F8011DF2D1E607DED5302905
S31510012770DCD03023023805F8013C5EABA146A3EB51
S31510012780000B0546D6E70B9B069A9E1A002E7FF77D
S315100127903AAD102E339B41F39F802548DDF81CA0DE
S315100127A01590214610271A46044604E0103E102EB5
S315100127B008F1080816DD01321031072AC8E9004769
S315100127C0CDE93321F2DD099932AA50460DF1D4082B
S315100127D003F06AFB002840F0B284103E102EDDE9AA
S315100127E03321E8DC0C4613460133159AC8F800204C
S315100127F03444072BCDE93334C8F8046000F31C8543
S31510012800089BA3EB0B06002E08F108087FF701AD14
S31510012810074A339B1592102E2ADD2246079F099CE3
S315100128204FF0100A0BE000BFA4B10110D4B1011092
S31510012830D8B10110103E102E08F1080817DD01332A
S315100128408E491032072BC8E9001ACDE93332F1DD72
S3151001285032AA2146384603F027FB002840F00C82A5
S31510012860103E102EDDE933320DF1D408E7DC1446A3
S315100128700133159AC8F800203444072BCDE93334B7
S31510012880C8F8046000F3C78108F10808C1E4099982
S31510012890079832AA03F008FB00283FF4E0ACDDF8F4
S315100128A01CB0EAE1339B7649C8F8001001330134B4
S315100128B00121072B34943393C8F8041000F3738560
S315100128C008F10808002A40F0E584139A09F001037B
S315100128D013433FF4B0AC189B1A9A1C44C8E9002361
S315100128E0339B34940133072B339300F3438608F15A
S315100128F00808139AC8F8005001331444072BCDE980
S315100129003334C8F804207FF794AC0999079832AA92
S3151001291003F0CAFA0028C2D1349C0DF1D4088AE416
S31510012920139B339E012B04F1010406F1010608F1F4
S31510012930080740F329810123072ECDE93364C8F82E
S315100129400050C8F8043000F3B181189B1A9A013669
S315100129501C44072EC7E90023CDE9336400F3B28185
S315100129600837139BDDE9160103F1FF380022002316
S3151001297008F0AEF8002840F02181013601354444B3
S31510012980072ECDE933643D60C7F8048000F30A8150
S3151001299008371C9B7B6001361C44072E2CABCDE9F6
S315100129A033643B60B1DC07F1080844E44C460A2B5A
S315100129B072F1000180F0538330338DF87731A146DF
S315100129C04FF0010B0DF27715B4E60999079832AA63
S315100129D003F06AFA00287FF462AF349C0DF1D40833
S315100129E00EE409990798159332AA03F05DFA0028A7
S315100129F07FF455AF349C159B0DF1D408FFF7EEBB50
S31510012A00102D339B40F331871E4FDDF81C90DDF8F6
S31510012A1024A01597102604E0103D102D08F1080882
S31510012A2016DD01331034072BC8E90076CDE93334AE
S31510012A30F2DD32AA514648460DF1D40803F034FAB4
S31510012A40002840F0E783103D102DDDE93334E8DC32
S31510012A500133159A2C44072BC8E90025CDE93334E7
S31510012A607FF7F2AB0999079832AA03F01DFA0028ED
S31510012A707FF415AF349CFFF7E7BB00BFD8B1011047
S31510012A80D4B10110E8B10110299A002A7FF70AAFD3
S31510012A90DDE912739F42A8BF1F46002F05EB030BFA
S31510012AA00BDD339B01333C44072BC8E900573494A3
S31510012AB0339300F3408608F10808129E002FA8BF31
S31510012AC0F61B002E00F30082129B19F4806F2B4423
S31510012AD09A4640F02182299D139B9D4203DB19F0F2
S31510012AE0010F00F06E84189B1A9A1C44C8E9002342
S31510012AF0339B34940133072B339300F3738608F118
S31510012B000808139BABEB0A065D1BAE42A8BF2E4607
S31510012B10002E0DDD339BC8F800A001333444072B7A
S31510012B20C8F804603494339300F36E8608F10808EC
S31510012B30002EA8BFAD1B002D7FF77DAB102D339B4B
S31510012B4040F36A83AD4FDDF81CB0DDF824A015976C
S31510012B50102605E008F10808103D102D40F35E839C
S31510012B6001331034072BC8E90076CDE93334F1DD92
S31510012B7032AA5146584603F097F900287DD1DDE96E
S31510012B8033340DF1D408E7E719F0010F7FF4D3AE12
S31510012B900123072ECDE93364C8F80050C8F8043074
S31510012BA07FF7F7AE0999079832AA03F07DF9002845
S31510012BB07FF475AEDDE9336435AFEAE6139B012B7D
S31510012BC07FF7E7AE112B8D4B159340F35783CDF855
S31510012BD02090DDF81CA0DDF824B01025994606E0FA
S31510012BE00837A8F11008B8F1100F40F345830136E4
S31510012BF01034072EC7E90095CDE93364F0DD32AA0A
S31510012C005946504603F050F9002840F09882DDE904
S31510012C10336435AFE5E70999079832AA03F044F909
S31510012C2000287FF43CAE349C0DF1D408FFF7F1BABD
S31510012C300D9951F8043B0D9119F010017FF44DAC2B
S31510012C4019F0400000F062839BB20A4645E40D99E3
S31510012C5051F8043B0D9114F010010BD114F0400002
S31510012C6003D00A469BB201213AE414F400721CBF48
S31510012C70DBB20246012133E4BB460C9B002B3FF429
S31510012C805CAA0C99584602F0BBFD099B9B8903F07F
S31510012C904003FFF756BADDF820B05EAD4AE55B4258
S31510012CA062EB42024C462D2001211AE4099907983C
S31510012CB032AA03F0F9F800287FF4F1ADDDE93364A7
S31510012CC035AF42E60999079832AA03F0EDF80028C4
S31510012CD07FF4E5ADDDE9336435AF42E619F0010F56
S31510012CE03FF4A9AAD4E40D932378FFF778B95EAD22
S31510012CF020E519F4007F40F07383DA171146FFF7C8
S31510012D00B2BB19F0100F40F0B18219F0400F40F02C
S31510012D10618319F4007F00F0A9820D9B0A9A1B6842
S31510012D201A700FE41B9A2378002A3FF458A91278D7
S31510012D30002A3FF454A949F48069FFF750B9DDE937
S31510012D40160102460B4607F0F5FE002840F00D86E7
S31510012D500E9B612B00F00485412B00F08085089BAA
S31510012D60013300F015840E9B23F02003472B04D169
S31510012D70089B002B08BF01230893DDE9160149F4CE
S31510012D80807200291592CDF818904FF00003C0F209
S31510012D901F85CDE924011F930C930E9B413B252BD7
S31510012DA000F22683DFE813F0FF0324032403240330
S31510012DB0F803FC0324032403240324032403240318
S31510012DC024032403240324032403240324032403B4
S31510012DD024032403240324032403240324032403A4
S31510012DE02403240324032403240324032403240394
S31510012DF0F803FC03CDE90E34FFF762BBD8B101101D
S31510012E00CDE90E344C46FFF7C9BBCDE90E34BD4BA7
S31510012E10199319F0200200F008810D9B073323F056
S31510012E20070319465A6851F8083B0D9119F0010F1D
S31510012E300AD053EA020107D00E998DF8A11030215C
S31510012E4049F002098DF8A01029F480640221FFF7D8
S31510012E5047BBCDE90E34AC4B1993DAE70D9B1B68D2
S31510012E608DF81431012306939B4645ADFFF7AFBA92
S31510012E700999079832AA03F017F800287FF40FADC5
S31510012E80349C0DF1D40811E44021584600F020FE7F
S31510012E90099B18601861002800F01086099A4023D2
S31510012EA05361FFF761B8089B0C95062B294628BF7D
S31510012EB0062308952A460693944D0D969B46149122
S31510012EC010911291FFF71BBA102E339B40F3E78531
S31510012ED08F48DDF81CA0159042462146A846099C4C
S31510012EE01027054604E00832103E102E40F32382C7
S31510012EF001331031072BC2E90057CDE93331F2DD29
S31510012F0032AA2146504602F0CFFF002840F0178121
S31510012F10DDE9333135AAE7E721461C46109BCDF88A
S31510012F2020B0CDF838904246794FDDF85090DDF853
S31510012F307880DDF86CA0DDF81CB083B3B9F1000F11
S31510012F4000F0FF8009F1FF3933981D9B0130414490
S31510012F500728C2E900383491339075DC0832089B92
S31510012F609AF800001E1B8642A8BF0646002E0CDDED
S31510012F703398013031440728C2E900463491339021
S31510012F8000F367819AF800000832002EACBF851B4A
S31510012F900546002D13DC0444109B002BCED1B9F14C
S31510012FA0000FCFD1DDF820B0CDF86CA0A246DA45DE
S31510012FB0DDF8389090460C4628BFDA468BE5102D81
S31510012FC0339840F33C8523463E462C461D4604E085
S31510012FD0103C102C02F1080216DD013010311023BD
S31510012FE00728CDE9330117605360F1DD099932AA3B
S31510012FF0584602F059FF00287FF43FAE103C102CC2
S31510013000DDE9330135AAE8DC2B4625461C4601309D
S3151001301029440728CDE933011660556000F37D83F5
S315100130209AF8000008320444B6E70D9951F8043BAA
S315100130300D9119F010017FF4F9AE19F0400000F06E
S315100130405F819BB20A46F1E6099932AA584602F007
S315100130502BFF00287FF411AE349935AA7FE704F4CB
S31510013060806B0021CDF83080DFF8A890DDF86C80F8
S3151001307006945EAD4FF0CC3A05278C465E4605E0C8
S315100130800A2B72F1000233D35B462246991841F19D
S315100130900001A9FB010424F0030000EB9400091AB6
S315100130A0581A62F1000E0AFB00F4A0FB09B009FBE5
S315100130B00E440BF0010E0444AEFB070E40184FEA06
S315100130C05B0B303005F8010C4BEAC47B0CF1010C9B
S315100130D0013D6408002ED3D098F800108C45CFD14D
S315100130E0BCF1FF0FCCD00A2B72F1000280F03681B1
S315100130F0CDF86C80069CDDF83080CDF84CC0FFF71A
S3151001310015BB00BFB8B10110A4B10110CCB10110AB
S31510013110D8B10110CDCCCCCC09990798159332AA08
S3151001312002F0C2FE00287FF4BAAB9DF89F20349CB2
S31510013130159B0DF1D408FFF73FB8A3469DE5D3467D
S315100131409BE5109B013B0AF1FF3A1093FCE601291E
S315100131504C467FF4DBAA2FE40999079832AA02F0AC
S31510013160A3FE00287FF49BAB349C0DF1D408FFF726
S315100131708ABA30AF0822002138462B9500F06CFF31
S31510013180089B581C00F0C9800024CDF81890A3465E
S31510013190DDF81C909A460CE045A9484600F0AEFFB2
S315100131A0411C584400F08E83504508DC00F04184E0
S315100131B083462B9A12593B460434002AECD1DDF88A
S315100131C01890BBF1000F00F0DD80BBF1630F00F327
S315100131D0B98100230C9345AD08220021384600F031
S315100131E03BFF079800975B462BAA294601F082F808
S315100131F0834540F05A84002305F80B302BEAEB7116
S315100132009DF89F200D96089306911493109312938F
S31510013210FFF775B8CB4630E5744A15920133159A06
S31510013220C8F800202C44072BC8F80450CDE93334D4
S315100132307EF7FFAFFFF769BB0999079832AA02F02B
S3151001324033FE00287FF42BAB349C0DF1D408FEF726
S31510013250DABF099932AA584602F026FE00287FF4F1
S315100132600CAD9AF80000349935AA8EE60D9B0A9A90
S315100132701B681A60FFF766B9DDF82090159B3B6055
S3151001328001364444072ECDE93364C7F804807FF72D
S315100132907FAB87E4189B1A991C44C8E90013339B2A
S315100132A034940133072B339300F3648108F1080832
S315100132B0002ABFF61EAB564210324C4A159280F2C6
S315100132C0E782AA461027154605E008F10808103EC0
S315100132D0102E40F3DC8201331034072BC8E9005756
S315100132E0CDE93334F1DD0999079832AA02F0DCFDF4
S315100132F000287FF4D4AADDE933340DF1D408E6E7CA
S3151001330019F400721CBFDBB202468FE519F4007284
S315100133101CBFDBB20246FFF7E0B8002307980097FF
S315100133202BAA194600F0E6FFB0F1FF3F834600F0E5
S31510013330C9822B9545E745460C4690460133159AA9
S31510013340C8F800203444072BCDE93334C8F804609B
S3151001335000F3038108F10808FFF7B6BB1E9B1D9900
S31510013360ED1A1A46284602F049FB98F801300BB1BE
S3151001337008F101084FF0000C86E62D228DF89F20EA
S31510013380FEF7ACBF9DF89F200D96CDF818B0CDF87D
S3151001339020B0CDF850B0CDF840B0CDF848B0CDF84A
S315100133A030B0FEF7ACBF0999079832AA02F07CFD3E
S315100133B000287FF474AA299A349C0DF1D408FFF7DA
S315100133C081BA139BABEB0A065D1BAE42A8BF2E4614
S315100133D0FFF7AEBB0D9B0A9A1B681A80FFF7B2B8AE
S315100133E043F3C01211465BB2FFF73DB8D8B10110D5
S315100133F0089E0223CDE9003630AB04932BAB039321
S3151001340029AB02930798DDE9242301F015F80E9BE9
S31510013410672B054600F03B810E9B472B00F0378149
S315100134200E9B23F02007462F00EB060405D10378E7
S31510013430302B00F0F182299E3444DDE9240100226B
S31510013440002307F045FB002800F03F8123465B1B54
S315100134501393299A1292472F00F02181462F00F0DB
S31510013460E3810E99531E6129299300F01683412990
S3151001347040F0208150210120002BB6BFC2F101037B
S315100134802B222D22092B8DF8B0108DF8B12040F387
S3151001349027820DF1C704AE4E22461046A6FB031233
S315100134A0D20802EB8201A3EB4101303100F8011C75
S315100134B019466329134600F1FF32EEDC303302F868
S315100134C0013C831EA34280F0ED820DF1B10213F887
S315100134D0011B02F8011FA342F9D15EAB181AA0F124
S315100134E0AD031C93139B1C9A012B03EB020B40F3A8
S315100134F02A82189B9B44069B23F4806343F48079AC
S315100135002BEAEB72002314930692109312931F9BCE
S31510013510002B40F0D3809DF89F200893FEF7EFBE55
S31510013520099C32AA2146584602F0BEFCA38903F033
S315100135304003FEF706BE28460D9602F061F8834653
S31510013540FEF774BF07980BF1010100F0C1FA0546A9
S31510013550002800F0B7810C903EE60999079832AA27
S3151001356002F0A2FC00287FF49AA9349C0DF1D4082C
S31510013570FFF7AABA0999079832AA02F095FC002812
S315100135807FF48DA9DDE93334299A0DF1D4088FE63C
S3151001359006230893FFF7F1BB089B5E1C022329E75C
S315100135A0089E032326E729AADDE9240102F094F8EF
S315100135B000224FF07F5307F023F802460B46CDE960
S315100135C010230022002307F083FA002840F0C0815F
S315100135D0604B1293089BCDF84C8003F1FF392E46B0
S315100135E01495DDF848B04D46DDE9108905E0002255
S315100135F0002307F06DFAF0B93D46574B00224046BD
S31510013600494606F0FDFF8946804607F0A9FA0446A9
S3151001361006F08CFF0B4602464946404606F038FE38
S315100136201BF80430B24606F8013B6B1C05F1FF3757
S3151001363080468946DBD1CB465746C246474BDDF815
S315100136404C80002250465946A946149D07F068FA47
S31510013650002840F05381414B50465946002207F04D
S3151001366037FA10B1E20700F14981B9F1000FC0F242
S315100136705F8109F101033344302206F8012BB3426D
S31510013680FBD15B1B13930E9B23F02007E1E6069BF0
S31510013690DB0700F1F980309B299A5B1B1393D31C2E
S315100136A0129202DB089B93421BDA0E9B023B0E938E
S315100136B0531E29939DF838100020DDE62D22002394
S315100136C08DF89F200893FEF71DBE309BA342BFF4D1
S315100136D0BEAE30215A1C30921970309B9C42F9D8DB
S315100136E0B5E613998A42C0F2C480069BDE0740F103
S315100136F08481189B02EB030B069B5C0502D5002AFD
S3151001370000F34D812BEAEB730693DDF85490672392
S315100137100E93002314931093F9E6099932AA584689
S3151001372002F0C2FB00287FF4A8AA9AF80000349987
S3151001373035AA044430E40999079832AA02F0B4FB79
S3151001374000287FF4ACA8349C0DF1D408FFF7B5B965
S31510013750CDCCCCCCB8B10110000030400000E03F18
S3151001376078238DF8A13030238DF8A03049F002036B
S315100137700693089B632B00F3DD8000230C9345AD64
S3151001378049F481731593179B002B22DB9DED167B54
S315100137908DED247B00231F930E9B612B7FF4FDAAD5
S315100137A029AADDE9240101F097FF00224FF07F538A
S315100137B006F026FF02460B46CDE910230022002310
S315100137C007F086F9002840F0C380A84B129301E751
S315100137D00C93DDE9161202F1004325932D23249152
S315100137E01F93D9E70999079832AA02F05DFB0028C1
S315100137F07FF455A8299D349C0DF1D408FFF781B9A2
S315100138009B491591FEF7B2BD0999079832AA02F0A4
S315100138104BFB00287FF443A8299D139B349C5D1B09
S315100138200DF1D408FFF784B9069B1299089A03F093
S315100138300103002943EA020340F30F81002B40F0F4
S31510013840D5806623DDF848B00E93069B5A0500F124
S31510013850A8802BEAEB73DDF85490069359E75823A9
S315100138607FE700220892FEF7BBBB814A1592FFF74C
S31510013870EFB8139B189A03EB020B129B002B40F324
S31510013880838067230E93E0E7AC194727D5E55546A4
S315100138900133159AC8F800203444072BCDE9333487
S315100138A0C8F804607FF723A80999079832AA02F08D
S315100138B0FBFA00287EF4F3AFDDE933340DF1D408B9
S315100138C0FFF717B8099A938943F0400393814FF094
S315100138D0FF330A93FEF738BC664A1592FEF784BF8A
S315100138E000283FD130228DF8B2200DF1B3023033CA
S315100138F002F8013B2CABD31A1C93F3E5129B3097BC
S31510013900D97B16F8012C8A42334609D1302003F8A7
S31510013910010C309B5A1E309213F8012C9142F6D0AD
S31510013920392A0BBF129A0132927AD2B203F8012CBC
S315100139303346A6E60798591C00F0CAF80546002832
S31510013940C0D00C901CE7069BDF077FF5D4ADD0E500
S31510013950494B464A0E99612918BF1A4601231292FC
S31510013960299337E60DF1B202C1E7179B434D002BA0
S31510013970B4BF2D229DF89F20414BB8BF8DF89F20D3
S3151001398029F08009FEF7AEBCC3F101039B442BEA73
S31510013990EB7306936723DDF854900E93B9E667230C
S315100139A00E931B990B78FF2B00F08C800024129A32
S315100139B0204603E001300131FF2B08D0934206DA8D
S315100139C0D21A4B78002BF5D10B780134F4E71B9101
S315100139D0109014941292DDE91439109A13441E9A18
S315100139E002FB03BB2BEAEB73069390E5189BCF18EA
S315100139F03A44662393460E9327E793467CE6089B43
S31510013A0006939B4673239DF89F200D96089014905C
S31510013A1010900E93FEF773BCDDE9240100220023FA
S31510013A2007F056F800287FF406ADC6F1010629966F
S31510013A3002E5DDF81890DDF820B0FFF7C2BB0D4E98
S31510013A40FFF7E5BA0D9A63780C4652F8041B0D92EE
S31510013A5041EAE1710891FEF7C2BADDF854908BB9CB
S31510013A600123662206930E929B4652E6A4B10110DB
S31510013A70E8B10110D8B10110B8B101109CB1011013
S31510013A80A0B10110189B5F1C089B3B449B4623EA7F
S31510013A90E373069366230E933BE67021EBE40B4A20
S31510013AA015924BE402231C931CE5099ADDF81CB010
S31510013AB0938943F040039381FFF7DFB80C23CBF8CA
S31510013AC0003004E700231493109384E7D8B1011052
S31510013AD02DE9F04F01F10B05162D85B0064624D8B8
S31510013AE0102900F2B18000F0F3FB102518234FF0D6
S31510013AF0020CBA4F3B44A3F108025C68944200F0F1
S31510013B0022816368E268A16823F00303CA60234433
S31510013B10304691605A6842F001025A60083400F04A
S31510013B20DDFB204605B0BDE8F08F35F0070500F145
S31510013B308B80A94200F2888000F0CAFBB5F5FC7FA4
S31510013B40C0F073816B0A00F08380042B00F222818E
S31510013B50AB0903F1390C03F1380E4FEACC039F4F31
S31510013B603B44A3F108005C68A04207D10DE0002A8E
S31510013B70E16880F2E280884207D00C46636823F040
S31510013B8003035A1B0F2AF2DDF446DFF864823C69FF
S31510013B90444500F0BF80636823F00309A9EB0503D0
S31510013BA00F2B00F34781002BC7E9048880F231817E
S31510013BB0B9F5007FD7F804E080F0CC804FEAD9013F
S31510013BC001314FEA5919012303FA09F357F8312044
S31510013BD0A2604EEA030E07EBC103083BE360C7F888
S31510013BE004E047F83140D4604FEAAC030120984015
S31510013BF0704534D810EA0E0F07D12CF0030C400093
S31510013C0010EA0E0F0CF1040CF9D007EBCC0A524650
S31510013C10E146D1680EE04B6823F00303A3EB050ED2
S31510013C20BEF10F0F0C46C96800F3C180BEF1000F3B
S31510013C3080F2E2808A42EED109F1010919F0030FEF
S31510013C4002F10802E5D121E10C233360002468E773
S31510013C504FF400734FF0400C4FF03F0E7FE7BC68F6
S31510013C60636823F00309A94503D3A9EB05030F2BB9
S31510013C7053DC5B4BDFF87CB11B68082003F110089D
S31510013C8000F0B0FADBF8003001900133A84404EBE0
S31510013C90090205D008F1FF388044434203EA0808B7
S31510013CA041463046029201F033FFB0F1FF3F029ACE
S31510013CB0824600F0DC80824200F2D780494B01999E
S31510013CC01868404401F1FF311860844640F0FC80C9
S31510013CD01AEA010F40F0F880D7F808A0C84448F056
S31510013CE00102CAF80420404B1968814238BF186096
S31510013CF03E4B1968814238BF1860544622F00308BA
S31510013D00A845A8EB050301D30F2B06DC304600F0BE
S31510013D10E5FA9BE7D7F804E066E7621943F0010379
S31510013D2045F0010565603046BA60536000F0D6FA79
S31510013D300834204605B0BDE8F08FA2682344D1604F
S31510013D4030468A60E6E6DC68A3427FF4DAAE0CF10F
S31510013D50020C1AE7B9F5206F4FEA59227ED3142ABD
S31510013D6000F2158102F15C03DB005B32F918FB5896
S31510013D700839994203D1F0E09B68994204D05A68F8
S31510013D8022F003024A45F7D8D968C4E902318C609A
S31510013D90DC6029E7142B6DD9542B00F201812B0B12
S31510013DA003F16F0C03F16E0E4FEACC03D7E63046E2
S31510013DB0A668621945F001056560F1608E604EF0E6
S31510013DC00101C7E90422C2F80880C2F80C805160CB
S31510013DD044F803E000F082FA0834A2E6400000201D
S31510013DE05C1400202C1400205814002054140020B8
S31510013DF04800002038000020234430465A6842F01B
S31510013E0001025A6054F8083FD9608B6000F066FAD7
S31510013E1087E6A1443046D9F8043043F00103C9F8C6
S31510013E200430083400F05AFA7BE64FEAD50C05F156
S31510013E3008035EE6621943F0010145F0010565606C
S31510013E403046C7E90422C2F80880C2F80C805160D6
S31510013E5044F8093000F042FA083462E64FEA991242
S31510013E6002F13903DB00383280E7BC4224D0BC684A
S31510013E70626843E703F15C0C03F15B0E4FEACC0376
S31510013E806DE65AF80839534540F0D8801CF0030FF7
S31510013E900CF1FF3CF5D17B6823EA00037B604000FF
S31510013EA098423FF6DCAE18B9D9E6400009F104098B
S31510013EB01842FAD0CC46A8E6614B0199186808EB6E
S31510013EC0000C0139C3F800C0DBF8000001301BBF3C
S31510013ED0AAEB02026244CBF800A01A601AF007029C
S31510013EE0CDE9022342D0C2F10802019B9244D0448B
S31510013EF0134408EA01001A1A02EA010B5946304620
S31510013F0001F006FE421C039B7AD0A0EB0A0000EBDF
S31510013F100B081868C7F808A048F001025844BC42BB
S31510013F20CAF8042018603FF4DEAEB9F10F0F42D97A
S31510013F306168A9F10C0222F0070201F00101114397
S31510013F406160A1184FF0050C0F2AC1F804C0C1F821
S31510013F5008C04AD8DAF80420C5E69210012000FA02
S31510013F6002F24EEA020EC7F804E00EE7019B0AEBD5
S31510013F7008020A409A1A02EA010B5946304601F024
S31510013F80C7FD431C039BC0D1DDF808B0C1E7542A15
S31510013F9015D84FEA193202F16F03DB006E32E5E6EE
S31510013FA0B3F5AA7F15D8EB0B03F1780C03F1770E55
S31510013FB04FEACC03D3E50123CAF80430A6E6B2F5DD
S31510013FC0AA7F25D84FEAD93202F17803DB0077327E
S31510013FD0CCE640F25452934225D8AB0C03F17D0C3A
S31510013FE003F17C0E4FEACC03B9E5304604F1080122
S31510013FF0019301F005FC019BD7F808A01868A9E701
S31510014000029A083A9044A8EB0A084FF0000B80E791
S3151001401040F254539A420DD84FEA994202F17D0368
S31510014020DB007C32A2E64FF47E734FF07F0C4FF02B
S315100140307E0E94E54FF47E737E2297E67B682EE71B
S315100140402C140020024B13B1024800F04DB97047F1
S315100140500000000099410110830730B547D0541E66
S31510014060002A3ED0CAB2034601E0013C39D303F817
S31510014070012B9D07F9D1032C2CD9CDB205EB0525C2
S315100140800F2C05EB054535D9A4F1100222F00F0CC2
S3151001409003F1100EE6444FEA121C1A4615605560DC
S315100140A09560D56010327245F8D10CF1010214F009
S315100140B00C0F03EB021204F00F0C13D0ACF1040336
S315100140C023F003030433134442F8045B9A42FBD1F1
S315100140D00CF003042CB1C9B21C4403F8011B9C4219
S315100140E0FBD130BD64461346002CF4D1F9E70346E3
S315100140F01446C0E71A46A446E0E700BF70B5054668
S3151001410084B05BB11C460F4BD3F8E060234669B10E
S315100141102846B047431C0FD004B070BD094B00F5BB
S315100141208274D3F8E06023460029F1D10A46284665
S3151001413001A9B047431CEFD100228A2322602B60CC
S3151001414004B070BD4C04002070B50F4B0F4DAB423F
S31510014150A3EB050607D0B610002455F8043B01342D
S315100141609847A642F9D807F01BFA094D094B5E1B71
S31510014170AB424FEAA60606D0002455F8043B01349B
S315100141809847A642F9D870BDEC060020EC0600202F
S31510014190EC060020F406002038B5074D074C2C1B01
S315100141A0A41005D0013C55F8043D9847002CF9D1CF
S315100141B0BDE8384007F0FAB9F8060020F4060020E9
S315100141C0704700BF704700BF704700BF704700BF00
S315100141D0014B93F8280170474C04002000487047A2
S315100141E03C050020082802D14FF48050704708B5CD
S315100141F0FDF798FE162303604FF0FF3008BD00BF90
S315100142000FB400B5074983B004AB086853F8042B03
S315100142108168019301F0CCFE03B05DF804EB04B0A4
S31510014220704700BFB805002070B5054688B008462E
S315100142300C4601F0E5F9214E6A6B059001214318F0
S31510014240CDE9066104A8022104940393AC68019098
S315100142500291002A2ED0626EB4F90C30D60701D421
S31510014260980521D5990406D4626E43F4005322F4BD
S315100142700052A3816266284601AA214601F05AFC22
S31510014280636E00280CBF0A254FF0FF35DA0702D4FA
S31510014290A3899B0502D5284608B070BDA06DFFF70E
S315100142A095FF284608B070BDA06DFFF78DFFB4F9D4
S315100142B00C30D7E7284601F085F8CCE73CB201105F
S315100142C0024B01461868FFF7AFBF00BFB8050020C3
S315100142D00148FFF779BF00BF641400200148FFF7BA
S315100142E075BF00BF64140020002301461A46184604
S315100142F004F022BD10B582B0049CCDE900344FF014
S31510014300FF3305F0ABFB02B010BD00BF2DE9F04F36
S3151001431003690C69A34283B0C0F28A80013C01F1A2
S31510014320140500F1140855F8243058F824200133E7
S315100143309A428E4681464FEA840105EB840708EBC3
S31510014340840AB2FBF3F63AD3CDE900150022AC4646
S31510014350404613465CF8041B05681FFA81FB06FBF1
S315100143600B22090C4FEA124B06FB01BB92B2A9B202
S31510014370891A19441FFA8BF3C3EB214303EB154337
S3151001438089B241EA0341674540F8041B4FEA1B42D3
S315100143904FEA2343DED2DDE9001558F8013073B92F
S315100143A0AAF1040AD04504D307E0D04504F1FF343D
S315100143B003D25AF80439002BF7D0C9F810407146C8
S315100143C0484605F065F900282EDB4146002255F8CE
S315100143D0040BD1F800C01FFA80FE1FFA8CF3A3EB71
S315100143E00E031344020CC2EB234202EB1C429BB296
S315100143F043EA0243AF4241F8043B4FEA2242E6D276
S3151001440058F8242008EB84036AB9043B984504D371
S3151001441007E0984504F1FF3403D253F80429002A22
S31510014420F7D0C9F810400136304603B0BDE8F08F19
S31510014430002003B0BDE8F08F2DE9F04F816B9DB0E0
S3151001444016461F46CDE90467299D029049B1C26BF4
S315100144504A600123934004468B6004F0B7FE0023A3
S31510014460A363B7F10009B4BF012300232B60764B78
S31510014470BCBF29F00049CDF8149033EA090300F0C6
S31510014480AA809DED047B002251EC170B00238DEDC4
S31510014490067B06F01DFB804668B1289A012313603E
S315100144A02A9B13B12A9A694B1360694B039303989C
S315100144B01DB0BDE8F08F1AAB01931BAB00930298A8
S315100144C0DDE9062305F0B8F95FEA1955824640F091
S315100144D09880DDE91A85454405F23243202B40F3D5
S315100144E08183C3F1400309FA03F905F2124326FA4F
S315100144F003F349EA030006F009F80123013D0F937E
S31510014500A1F1F871534B002205F0C2FE48A3D3E97D
S31510014510002306F075F848A3D3E9002305F0BAFE87
S31510014520064628460F4606F001F845A3D3E90023AF
S3151001453006F066F802460B463046394605F0AAFEE5
S3151001454006460F4606F00CFB002283460023304632
S31510014550394606F0C7FA002840F01883A8EB05087B
S31510014560BBF1160F08F1FF3400F28A813A4D05EBC3
S31510014570CB05D5E90023DDE9060106F0B3FA0028DB
S3151001458070D00023002C0BF1FF3B0E93C0F27D81FE
S3151001459000230993BBF1000F6ADA099BA3EB0B0306
S315100145A00993CBF10003CDE90CB3269B092B4FF0F0
S315100145B0000B65D8052B40F31A83043B269300257F
S315100145C0269B023B032B00F22186DFE813F05E04E3
S315100145D05B0452043604289AC9F3130942F20F7385
S315100145E059EA060913601CD12A9B002B00F0298673
S315100145F01A4B039308332A9A039813601DB0BDE82A
S31510014600F08FDDE90612C2F31303084643F07F511A
S31510014610CDF83C80A5F2FF35DDF8688041F44011F4
S3151001462070E72A9B002B40F0E5830D4B03933EE781
S3151001463061436F63A787D23FB3C8608B288AC63F91
S31510014640FB799F501344D33F0000F07FD5B1011081
S31510014650D4B101100000F83FD8B4011040B20110D6
S315100146604CB20110B8F1000F40F35E840E90099020
S3151001467000230D93269BCDF830B0092B5C4499D9B4
S315100146800023CDE9263301254FF0FF330A95089310
S31510014690029B0021D963089B1693029804F070FDC2
S315100146A00390002800F0BB85DDE902329A63089B6E
S315100146B00E2B00F21481002D00F011810C9A002AA4
S315100146C040F33984B14D02F00F0305EBC303151105
S315100146D0D205D3E9008940F1F983AD4BDDE9060135
S315100146E0D3E9082306F0B6F8CDE9100105F00F0558
S315100146F003277DB1A64EEB0708D540464946D6E9B4
S31510014700002305F07DFF0137804689466D1006F1BD
S315100147100806F0D142464B46DDE9100106F09AF83B
S31510014720804689460E9B43B19A4B00224046494624
S3151001473006F0D8F9002840F0F084384605F0F6FE68
S3151001474042464B4605F05CFF934B002205F0A2FD55
S31510014750089B0646A1F15077002B00F0A9800C9B0F
S315100147601793089B1093039B884D49464046CDE904
S3151001477012675E1C06F0F4F9109905EBC10313EDEF
S31510014780027B07468DED147B05F0D0FE02460B46E3
S315100147904046494605F07CFD89460A993037DDE9E0
S315100147A014238046FFB2002900F052847B49002071
S315100147B006F050F8DDE9122305F06AFD039D024665
S315100147C00B46CDE912232F7042464B4606F0A8F947
S315100147D0002840F09684CDE918B4CDF850A0109D6C
S315100147E0DDE912AB00272AE00137AF4280F2DD8402
S315100147F06B4B50465946002205F002FF684B0022CA
S3151001480082468B464046494605F0FAFE8946804661
S3151001481006F0A6F9044605F089FE02460B46404607
S31510014820494605F035FD303406F8014B52465B46D4
S315100148308046894606F056F9002840F0B384424670
S315100148404B465449002005F023FD52465B4606F0BF
S3151001485049F90028C8D0179BDDF850A0039A3746AE
S3151001486003F1010802E0974200F07B843E4617F8F7
S31510014870013D392BF7D00133DBB23B70454674E16C
S315100148800123002C0E93BFF683AEC8F101030993E1
S3151001489000247FE6384605F049FE42464B4605F0B0
S315100148A0AFFE3D4B002205F0F5FC0646A1F150770F
S315100148B03C4B40464946002205F0EAFC32463B464F
S315100148C08046894606F02CF9002840F05984404666
S315100148D04946324607F1004306F004F928BB1B9BF3
S315100148E0002BC0F291800C9A0E2A00F38D80274D71
S315100148F00C9B05EBC30595ED007B279B002B8DEDDE
S31510014900047B19DA089B002B16DC0ED1254B0022ED
S31510014910DDE9040105F074FE02460B46DDE90601E8
S3151001492006F0EAF8002800F02B844FF00009039EE8
S315100149304F46279BDD4324E2DDE90445DDE906897F
S3151001494022462B464046494605F084FF06F008F9F3
S31510014950064605F0EBFD22462B4605F051FE039F58
S315100149600B4602464946404605F092FC06F13003D5
S3151001497007F8013B089B012B00F011830125CDF8A7
S3151001498018A09946DDE904ABA8462BE0D8B401106E
S31510014990B0B401100000F03F00001C400000E03FE1
S315100149A0000024400000144052465B46204629462A
S315100149B005F050FF06F0D4F8064605F0B7FD52464D
S315100149C05B4605F01DFE08F101080B460246294615
S315100149D0204605F05DFC06F13003C84507F8013B9A
S315100149E000F0DB82B94B002205F00AFE00220023FB
S315100149F004460D4606F06CF80028D5D00C9DDDF85E
S31510014A0018A001353E46B0E00A9A002A40F0D2803D
S31510014A1000230D9D099E0A931F4656B1002C08DDF1
S31510014A20A642099A3346A8BF2346D21A0992F61A04
S31510014A30E41A0D9B53B10A9B13B1002D40F0E88285
S31510014A4051460D9A029804F051FD824602980121B1
S31510014A5004F068FC8146BBF1000F40F0B681269B3D
S31510014A60012B40F3CC810120204410F01F0000F0EF
S31510014A709A80C0F12003042B40F3DA81099BC0F11F
S31510014A801C000344099306440444099B002B05DDCD
S31510014A90514602981A4604F083FD8246002C05DD24
S31510014AA049460298224604F07BFD81460E9B002B57
S31510014AB040F07081089B002B40F348810A9B002B24
S31510014AC040F0A4800C9D0135DDF80C80089CDDF8C2
S31510014AD008B0012607E0514600230A22584604F081
S31510014AE07FFB0136824649465046FFF70FFCA64228
S31510014AF000F1300308F8013BEDDB089A002AC8BF24
S31510014B001646039AD8BF012602EB060B002451461E
S31510014B1001220298049304F043FD4946824604F0AB
S31510014B20B7FD002840F3E381039A02E05A4500F0ED
S31510014B30E9815E460BF1FF3B16F8013C392BF5D0A6
S31510014B4001338BF80030DDF808804946404604F001
S31510014B503DFB57B12CB1BC4203D02146404604F06F
S31510014B6035FB0298394604F031FB0298514604F0A0
S31510014B702DFB00233370289B1D602A9B002B3FF4CD
S31510014B8096AC03981E601DB0BDE8F08F584605F02F
S31510014B90CDFC32463B4605F09BFF00287FF4DEAC88
S31510014BA00BF1FF3BDAE41C23099A1A4409921E44BD
S31510014BB01C446AE7269A012A40F3A981089B0D9A9B
S31510014BC05D1EAA42C0F26B81002BA2EB050580F295
S31510014BD0DD82DDE908239E1A0298012104F0A2FB69
S31510014BE007461AE7C3F1200306FA03F083E4012509
S31510014BF0E6E43946002302980A2204F0F1FA169BDC
S31510014C00002B074640F3EF820C950893002E00F314
S31510014C103F81BBF1000F40F0DF81B846039E089C2F
S31510014C20731E1C44049B0A9403F00103029C0D930A
S31510014C3049465046FFF76AFB39468346504604F00B
S31510014C4027FD424649460546204604F043FDC26803
S31510014C5001460BF13003002A3AD1CDE9080350463B
S31510014C6004F016FD08990690204604F0AFFA069A4C
S31510014C70099B002A5AD1269A1AB90D9A002A00F0D0
S31510014C809A82002D45DB0A9AB346B2420BF8013BD4
S31510014C9000F0B981514600230A22204604F0A0FAF9
S31510014CA04745824639464FF000034FF00A02204627
S31510014CB036D004F095FA4146074600230A222046CB
S31510014CC004F08EFA5E468046B2E700BF000024402B
S31510014CD00298069304F07AFA002D069B06DB049AD5
S31510014CE0269902F001020D432A432AD15146012287
S31510014CF00298049304F054FC4946824604F0C8FC19
S31510014D000028049B40F3E880392B00F02F820BF129
S31510014D1031030C9D06F8013B3C460135474612E727
S31510014D2004F05EFA5E460746804681E7002DC0F222
S31510014D307D8226990D430D990D4300F07782002A45
S31510014D40A1DD392B00F012820133E2E7269B022BFB
S31510014D507FF7B4AE089B002B40F01D814946052212
S31510014D60029804F03DFA01468146504604F090FC43
S31510014D70002840F31081039E0C9D312306F8013B58
S31510014D80013502984946013504F020FA002F7FF4C7
S31510014D90E8AEEAE64946504604F07AFC0028BFF62A
S31510014DA089AE5146002302980A2204F019FA0C9B87
S31510014DB05D1E0A9B8246002B7FF41BAF169B002BB0
S31510014DC040F3FF810C9D08937EE601465A460298F0
S31510014DD004F08CFB269B012B81466CDD4FF0000BFA
S31510014DE0D9F8103009EB8303186904F049FAC0F1B8
S31510014DF0200039E6924B03930333FFF7FCBB049B68
S31510014E00002B7FF430AEDDE90412C2F31303002B3D
S31510014E107FF429AE8B4B134023B1099B01330993C0
S31510014E2001340123BBF1000F40F0AE819B461AE617
S31510014E303FF42BAEC0F13C03B6E601230A93279B40
S31510014E400C9A134416930133012B1E460893B8BFCF
S31510014E500126172E40F3D581012204235B0003F1AD
S31510014E601400B042114602F10102F7D9029BD9632F
S31510014E7013E401230A93279B002B33DD1693089322
S31510014E801E46E6E700230A93D9E700230A93F2E7C1
S31510014E9039460298324604F083FB0746B9E60D9B64
S31510014EA0099A0D95EB1A9B44089B16461A441C4405
S31510014EB00992002590E6049B002B8FD1DDE90401B0
S31510014EC0C1F313030A46002B88D1A3E79DED067B98
S31510014ED002278DED107B0CE47FF41BAFDA077FF50B
S31510014EE018AF11E7012327930893FFF7D1BB03D11D
S31510014EF0049BDB073FF518AE5E461BF8013D302BD0
S31510014F00FAD020E6039A3123013513701BE60F9A66
S31510014F10002A00F0F98003F23343099A0D9D1646D3
S31510014F201A441C44099257E6C8F101030446099331
S31510014F300E90FFF79DBB00F0EB800C9B424D5E423D
S31510014F4006F00F0305EBC303D3E90023DDE90601E0
S31510014F5005F056FB3511CDE9100100F04D813B4EA0
S31510014F600023022780468946E80709D5D6E900239A
S31510014F704046494605F044FB0137804689460123E0
S31510014F806D1006F10806EFD1002B7FF4CBABDDE9EE
S31510014F901089FFF7C7BB039ECBE4DDF818A00C9D63
S31510014FA002460B4605F076F902460B46CDE9062375
S31510014FB00135DDE90423A84605F0B2FD40B9DDE966
S31510014FC00423DDE9060105F083FD18B1F10701D5CA
S31510014FD0039A4BE43E46C8E57968029804F0D0F886
S31510014FE00546002800F026813B6902339A0007F135
S31510014FF00C010C3000F064FA02982946012204F0E3
S31510015000CFFA80460AE60C9D3C46013547467EE5B9
S31510015010DDF8088039462A46404604F067FA5246BA
S3151001502001460746404604F0ABF9514682464046D2
S3151001503004F0CCF80D9B5B1B0D933FF407ADFFE419
S315100150404CB201100000F07FD8B40110B0B40110B9
S31510015050DDE9120105F0D4FA039B1F70109B012B99
S31510015060CDE90A0100F0C680109F039BCDF83CB034
S315100150701F447C4B00224046494605F0C1FA894639
S31510015080804605F06DFD834605F050FA0BF1300BA5
S3151001509002460B464046494605F0FAF806F801BBAA
S315100150A0B74280468946E4D1DDF83CB06E4B00220A
S315100150B0DDE90A0105F0EEF802460B46404649467F
S315100150C005F02EFD002867D1DDE90A236649002087
S315100150D005F0DEF802460B464046494605F002FD4C
S315100150E048B91B9B002BFFF693AC0C9B0E2B3FF77D
S315100150F08FACFFF7FDBB3E46013F16F8013C302B46
S31510015100F9D0179D013530E51A9BC3F1360304E733
S31510015110DDE906890227FFF705BB089B002B3FF443
S31510015120B9AB169B002B7FF7DAAB0C9A1093013AA9
S315100151304C4B179240460022494605F061FA8046CB
S315100151408946781C05F0F2F942464B4605F058FAA5
S31510015150464B002205F09EF80646A1F15077FFF75F
S3151001516002BB08F101083123FFF787BB0C9D039A97
S31510015170B34639233C460BF8013B01354746D8E483
S315100151804FF000094F46F6E59B4629E6099A164661
S315100151901A441C4409921FE5179B039A03F101084F
S315100151A0FFF764BBDDF850A0ABE7DDE918B4DDF815
S315100151B050A0FFF794BB392BD8D0002D3FF7A7ADE0
S315100151C0A7E5269B022B0ADC169B089349460C9DE4
S315100151D0FFF79CF8039A00F1300313708DE4169BC8
S315100151E008930C95B6E5269B022BF8DC169B0C95BD
S315100151F008930BE5374659E7DDE910890227FFF7D2
S3151001520091BA029B0021D963FFF747BA029B002589
S31510015210DD632946184603F0B3FF0390A8B9144B72
S315100152201448002240F2AF1103F05CFE002A7FF70A
S3151001523070AD5BE50E4B0F482A4640F2EF2103F0A5
S3151001524051FE0D4B0393FFF732B9DDE902329A6332
S315100152504FF0FF330122279516930A920893FFF711
S315100152603EBB00BF000024400000E03F00001C4090
S3151001527050B2011064B2011040B20110024A034942
S31510015280034800F0EDBD00BFE0060020258F011098
S31510015290C00500200C4B4168994210B5044601D057
S315100152A003F040FEA168094B994202D0204603F053
S315100152B039FEE168064B994204D02046BDE81040FC
S315100152C003F030BE10BD00BF70140020D8140020AA
S315100152D0401500202DE9F843314C324B3248DFF8A6
S315100152E0DC90DFF8DC80314F186000252946042355
S315100152F0082204F15C002E4EE360C4E90055C4E9AE
S315100153000455A5606566A561FEF7A6FE04F1580071
S31510015310C4E90749C4E90987E662FEF751FF294640
S31510015320244B6367082204F1C400C4E91A55C4E981
S315100153301E552567C4F8CC50C4F88050FEF78CFE74
S3151001534004F1680304F1C000C4F88430C4E922985A
S31510015350C4E92476FEF734FF174BC4F8DC3029462E
S3151001536004F596700822C4E93455C4E93855C4F8D1
S31510015370D850C4F83451C4F8E850FEF76DFE04F164
S31510015380D003C4E93D87C4F8F09004F59470C4F8CD
S31510015390FC60C4F8EC30BDE8F843FEF711BF00BF5E
S315100153A070140020A81500207D520110C95A011051
S315100153B0ED5A01100900010012000200655A011090
S315100153C0895A011010B504460A48FEF7FDFE636BB3
S315100153D023B9094B094A1B68626323B1BDE8104022
S315100153E00448FEF7F3BEFFF775FFBDE8104001480C
S315100153F0FEF7ECBE6C140020A81500209552011082
S315100154000148FEF7E1BE00BF6C1400200148FEF70B
S31510015410DDBE00BF6C14002000000000000000007B
S3151001542001F0FF01102A2BDB10F0070F08D010F83E
S31510015430013B013A8B422DD010F0070F42B3F6D142
S31510015440F0B441EA012141EA014122F007047FF05B
S3151001545000070023F0E80256083C85EA010586EAB2
S31510015460010685FA47F5A3FA87F586FA47F6A5FAEE
S3151001547087F68EB9EED1F0BC01F0FF0102F00702FA
S3151001548032B110F8013B013A83EA010313B1F8D1A5
S315100154900020704701387047002D06BF3546033886
S315100154A0073815F0010F07D1013015F4807F02BFBF
S315100154B0013015F4C03F0130F0BC0138704700BF10
S315100154C0844641EA000313F003036DD1403A41D3F8
S315100154D051F8043B40F8043B51F8043B40F8043BB7
S315100154E051F8043B40F8043B51F8043B40F8043BA7
